:020000041000EA
:1000000000B5324B212058609868022188439860DF
:10001000D860186158612E4B002199600221596106
:100020000121F02299502B49196001219960352056
:1000300000F044F80222904214D00621196600F024
:1000400034F8196E01211966002018661A6600F04E
:100050002CF8196E196E196E052000F02FF8012189
:100060000842F9D1002199601B49196000215960AB
:100070001A491B48016001219960EB211966A021F2
:10008000196600F012F800219960164914480160C1
:100090000121996001BC002800D000471248134993
:1000A000086003C880F30888084703B5996A0420EC
:1000B0000142FBD001200142F8D103BD02B5186610
:1000C0001866FFF7F2FF186E186E02BD00000240BE
:1000D000000000180000070000035F00212200005C
:1000E000F4000018222000A00001001008ED00E03C
:1000F00000000000000000000000000074B24E7A12
:1001000000200420F7010010CB010010CD010010E9
:10011000C9010010C9010010C9010010C901001077
:10012000C9010010C9010010C9010010CF01001061
:10013000C9010010C9010010D1010010D301001045
:10014000C1010010C1010010C1010010C101001067
:10015000C1010010C1010010C1010010C101001057
:10016000C1010010C1010010C1010010C101001047
:10017000C1010010C1010010C1010010C101001037
:10018000C1010010C1010010C1010010C101001027
:10019000C1010010C1010010C1010010C101001017
:1001A000C1010010C1010010C1010010C101001007
:1001B000C1010010C1010010C1010010C1010010F7
:1001C000EFF30580103800BE00BE00BE00BE00BECA
:1001D00000BE00BEF2EB88713CD9001054D900106B
:1001E0003802001090A31AE71E481F49086006C88D
:1001F00081F3088810471D480068002801D019487D
:10020000F3E70DA40ECC002902D000F012F8F9E7B4
:100210001749184A002000E001C19142FCD116495B
:100220008847164988471649884700BEFDE701C937
:1002300001C29A42FBD3704754D90010D00000206D
:10024000D81200205CEB0010000004200000042005
:100250005CEB0010001004200010042000000000DF
:10026000704700000000000008ED00E0000000D032
:10027000D81200202CDB0120E1380010950400107A
:10028000A9380010F8B5C04610B5064C2378002BED
:1002900007D1054B002B02D0044800E000BF01232A
:1002A000237010BD5814002000000000B0C90010D9
:1002B000044B10B5002B03D00349044800E000BFF5
:1002C00010BDC046000000005C140020B0C9001042
:1002D000F0B5244C0122A544234912A805F084FE60
:1002E00003000020834213D1FA271C261F4CBF00B5
:1002F000236002AD4021280012AA06F0E3F900288D
:100300000AD112A806F0CAF92368D817C01AC00F7C
:10031000AB239B009D44F0BD2B780A3BDBB2192B2D
:1003200003D8134ADA40D307E3D42268072AE8DC6B
:10033000724313000F4910335518143252185B18CA
:1003400000920D492A0002A807F0CCFF0328D0D163
:100350003800696901F020FB2368A861013323603C
:10036000C7E7C04654FDFFFFB0C90010B415002018
:1003700009000002B8150020C5C90010F8B5D02545
:10038000802604002D061920B60400F02FFB6E62B3
:10039000002796206E6101F069F801379620AE6162
:1003A00001F064F8BC42F4D1FA20800001F05EF85C
:1003B000EEE70000F0B5304C0300A5442F4A009151
:1003C00006A8402103F020FA012206A916A805F08C
:1003D0000BFE002802D00420FFF7D0FFE1256D02BC
:1003E0002A00274905AB16A805F0AAFF040016A8A5
:1003F00006F054F9002C02D1059BAB4201D0052038
:10040000EAE7D026EF2520233606736122002B0071
:1004100021001C48009500F037FA2B002200210033
:100420001948009500F030FA80235B027361802345
:100430009B027361F02676003300D025802763434A
:100440000F4A2D06D31803937F0332000399AF613F
:100450000E480CF055FA6F618027BF0332000399F4
:100460000B48AF6101340CF04BFA6F61F02CE1D115
:10047000AF239B009D44F0BD44FDFFFFD3C9001096
:1004800026190020D4160020FC16002000C00340CE
:1004900000000440F0B585B003F0E6FAFA20400011
:1004A00000F0E4FF00F0D4F800F0DEF807F08CF87C
:1004B000002000F049FA03000120002B08D01800AA
:1004C00001221968383005F05FFD041E02D00220B9
:1004D000FFF754FF5549564803F0E4FA00F0C2F91B
:1004E000E12221005202D026524802F0DDF9EF2528
:1004F00020233606736122002B0021004E48009510
:1005000000F0C2F92B00220021004C48009500F0B9
:10051000BBF980235B02736180239B027361F02629
:1005200076003300D02580276343424A2D06D31836
:1005300002937F0332000299AF613D480CF0E0F96D
:100540006F618027BF03320002993D48AF610134DB
:100550000CF0D6F96F61F02CE1D1FFF7B9FE00285D
:1005600001D10330B4E701F00BF800292AD0FA22B8
:100570000023920001F076FA0025324E30601C23F1
:100580006B43314A9B1803931C2300276B43029350
:100590002D4B029A9B181B69BB4218DC2B4B1F6822
:1005A000012FF1DD3468630363405C0C5C40630140
:1005B0005C403900200001F017FA8D42F3D00D00A5
:1005C0003460DCE7FA21890001F00EFAD4E700F08C
:1005D000D7FF00291FD0FA220023920001F042FA2F
:1005E000040039000398FFF7E5FE00F0C9FF002979
:1005F00016D0FA220023920001F034FA029A124B2C
:100600009B189B69021B934203D91B19181A00F00F
:100610002DFF0137BCE7FA21890001F0E5F9DFE79A
:10062000FA21890001F0E0F9E8E7C04600127A00FB
:1006300000C0034026190020D4160020FC1600201C
:100640000000044080050020B8150020B4150020EB
:1006500010B5162000F0CAF9D02380221B06D20361
:100660005A625A6110BD000070B50121062000F0E9
:100670007DF9012107203A4D00F078F9012104208D
:1006800000F074F900220121042000F087F928000D
:10069000344903F05BFAC0200223334A800110186A
:1006A000696803602868194005334340CF20034040
:1006B000802040012818036080239B01D21811601C
:1006C0000A20012100F052F901210B2000F04EF91F
:1006D000142000F08BF9D024802324065B0363628E
:1006E0001020636100F082F980235B0263621220B4
:1006F00000F07CF98023DB0263621520636100F067
:1007000075F980239B0363621120636100F06EF929
:1007100080239B026362132000F068F980231B038F
:1007200063620520636100F061F920230F4A636270
:1007300063610F4B50211A6014225A60043A9A6088
:100740000232DA600022152019615A61094B5860A3
:100750000438986002301D60D86019615A6170BD1C
:100760000000044040787D010400044000C00340C4
:10077000D4160020FC16002037B515006A460C0080
:10078000D11D01220C7014009C402300D0242406AB
:10079000A3611300AB401D00A3610CF0B1F86561CB
:1007A00037BD37B515006A460C00D11D01220C700B
:1007B00014009C402300D024240663611300AB4046
:1007C0001D00A3610CF09CF8656137BDF7B50126EB
:1007D000C36847689E400096D026009B3606856811
:1007E000046801910F20B36100F040FE009B782067
:1007F000736100F03BFE2B003A0011212000FFF74F
:10080000BBFF782000F032FE2B003A0020003A2196
:10081000FFF7B2FF2B003A0020005521FFF7C1FF80
:100820002B003A0020003621FFF7A6FF2B003A00EC
:1008300020000199FFF7B5FF2B003A00200021218D
:10084000FFF79AFF2B003A0020001321FFF794FFD7
:100850002B003A0029212000FFF78EFF322000F004
:1008600005FEF7BDD023202210B51B06A0210448A9
:100870005A61FFF7ABFFE0210248FFF7A7FF10BD69
:10088000D4160020FC160020F0B5076985B07F184B
:1008900001694568CB18416901938B1802930A9B43
:1008A00086680468CB182A00200003932A213300AD
:1008B000FFF762FF390A33002A002000C9B2FFF7B0
:1008C00070FF33002A002000F9B2FFF76AFF019B96
:1008D0002A00190A20003300C9B2FFF762FF6B46F5
:1008E0002A00200019793300FFF75BFF33002A004C
:1008F00020002B21FFF740FF029B2A00190A20004D
:100900003300C9B2FFF74DFF6B462A002000197A69
:100910003300FFF746FF039B2A00190A200033002B
:10092000C9B2FFF73EFF6B462A002000197B330057
:10093000FFF737FF33002A002C212000FFF71CFFB0
:1009400005B0F0BD012070470023984200D1014B53
:100950001800704788050020012070470023984246
:1009600000D1014B1800704740080020084B82005E
:10097000D31810B51C6840236340C0242340054CA5
:10098000C00012191360044BC018416010BDC0466E
:1009900004C0014004D001400040014010B54C1E8D
:1009A000A141541EA241C900920011430C22054BE3
:1009B0008000C3181B685940034B1140C0180160E8
:1009C00010BDC04604C0014004D00140054B80006A
:1009D000C3181B680901594030231940024BC01845
:1009E0000160704704C0014004D001400123D022BF
:1009F000834010B51206936205219361FFF7B6FF9D
:100A000010BD00000FB407B5084803F03BF8049B85
:100A1000002B07D005A91800019102F007FF044838
:100A200003F030F8012002F024FFC046EBC90010AB
:100A3000F9C90010EFF3108072B6034A1368002B57
:100A4000FCD0BFF35F8F70472C0100D0BFF35F8FE6
:100A50000022024B1A6080F3108870472C0100D0EE
:100A60000722CB08C35C0120114088401840431E78
:100A70009841C0B27047F8B505000C001700FFF7A9
:100A8000D9FF210006002800FFF7EAFF002803D065
:100A900021003800FFF7B6FF07210123E2080C40D0
:100AA000A340A95C30000B43AB54FFF7CFFFF8BD68
:100AB000F7B5050014001F000191FFF7BBFF06000A
:100AC000BC4202D9012464420DE021002800FFF756
:100AD000C7FF002812D10722012322409340E108DA
:100AE0006A5C13436B543000FFF7B0FF002C07DA49
:100AF000019B002B04D00898FFF784FF0134DFE747
:100B00002000FEBD044A1078431CDBB2172B01D82D
:100B1000137070471023FBE7840800200021044B6A
:100B2000044ABFF35F8F02C39342FAD17047C046B5
:100B3000000100D0800100D0074B10309B6880007E
:100B4000C150BFF35F8FBFF35F8F0021034B19606C
:100B500082F310887047C04600ED00E0240100D009
:100B6000054B064A1360064A136053609360D360D6
:100B700013615361936170478080808000E400E0DE
:100B800004E400E01F2318401E3B8340002905D0E9
:100B9000C021044A4900535013607047024AD3678A
:100BA000FBE7C04600E100E004E100E0024B10304A
:100BB0009B688000C058704700ED00E070B50400ED
:100BC0000D00EFF3108672B60A4A1368002BFCD0B2
:100BD000BFF35F8F2000FFF7E9FF074B984203D078
:100BE000A84201D000F0EEFD320029002000FFF7FE
:100BF000A3FF70BD240100D0C1010010F0B587B083
:100C0000049003910192EFF3108372B6574A059353
:100C10001368002BFCD0BFF35F8F554F3B787F2BC1
:100C200001D900F0CFFD0C2300251C007D57514E4B
:100C30006C439C46A31902939B793B704E4B9A6878
:100C4000049B10339B0099588B1B2F2B1FD94B4BA8
:100C5000994201D000F0B6FD0C235D43484B0234AD
:100C60007353484B7519043B36199E1B464B474C32
:100C7000AB80FF23AB71019B3605760DEB71039BB7
:100C800026436E80AB600121029B194333E00123B0
:100C900008009843030000220090DF790198874202
:100CA0002FD8002A3AD00627D757131D9C4637481D
:100CB000002F31DB93882F4E5B051B150434A419DC
:100CC00063441C1B2405640D0443A4B26646029BC6
:100CD0009571043B9B1B1B055B0D034393800C2309
:100CE0005D43244BED182A4BAC802B60019BAF7108
:100CF000EB71039BAB60059A0498FFF71DFF07B0EB
:100D0000F0BD0627DF57002F04DB624657431A0069
:100D1000F319C2E71A00C6E71E4CD7E7154A1E4969
:100D2000009B9B1A5B415943090D0C235D43144BF7
:100D3000A61CAB52134BB618043B9B1B1B05134E52
:100D40005B0D551933436B800434009BA4181C1BA6
:100D5000019B043CEB71039B2405AB60009A0C4B98
:100D6000640D3443AC80A97113608CE7240100D07A
:100D700028DB01208808002000ED00E0C101001000
:100D800000A1FFFFB808002001BDFFFF00E0FFFF4A
:100D90000148804701BD0000AAAA000001230343C7
:100DA000F0B51E00EFF30581EFF3108772B61C4B10
:100DB0001B68002BFBD0BFF35F8F1A4A04001A4B4D
:100DC000A41A644163431B0D5BB29C46174B890018
:100DD0009B6814005B581D000023B54214D1134BCF
:100DE000134A9B685A50134B1A78827162461A70E4
:100DF000BFF35F8F00230A4A136087F31088F0BDAA
:100E000001330C34042BEED0062161566145F7D135
:100E10000C214B43D218FF239371074B9380E2E7D9
:100E2000240100D088080020AAAA000000ED00E0FC
:100E3000C101001028DB012001BDFFFF70B50400D7
:100E40000E001500FFF75EFE0100200000F006F81E
:100E5000A680E580BFF35F8F70BD0000024BC9180C
:100E6000890001607047C0464000003410B504009E
:100E7000FFF748FE01002000FFF7F0FFFF2323717A
:100E8000BFF35F8F10BD10B50400FFF73BFE0100FC
:100E90002000FFF7E3FFFF23A380BFF35F8F10BDA8
:100EA00010B50848084B984200D310BD04000368F1
:100EB0000834002B03D0FFF7E6FF2000F2E7FFF72E
:100EC000D5FFFAE7C0120020D81200200A4B18689C
:100ED000EFF3108272B601680029FCD0BFF35F8F78
:100EE0001B68BFF35F8F0021196082F3108840BF39
:100EF000002000217047C04618190020F0B58BB0C3
:100F0000EFF3058203231A409F4B07929200D458B7
:100F10000123079A93400893089A9C4B1A609C4BB4
:100F2000089A5A630822A35E0493002B65DB1825F8
:100F30005D43636996485D19AA68EB680092019366
:100F400000F0F2FA009A019B801A9941002954DBC3
:100F5000019B002B00DA7CE02B698E4A6E6993427C
:100F600000D064E0300033699847002800D170E079
:100F70007768366833003B4300D16AE0002F00DB1E
:100F80005FE0009A019B921BBB4102920393029A7D
:100F9000039BAA60EB600023EA5E0092002A2CDB30
:100FA000029E039F182263690993009B5A43099B81
:100FB00099188868C968361A8F41002F1DDB009B7D
:100FC000238108239C46A444182202980399009B7D
:100FD0005A43099B9F18BA68FB68801A99410029F7
:100FE00006DB3B0000229A5EBC460092002AEBDA48
:100FF000009B049A2B8063461A80A3881BB2002BA7
:101000003EDAA379002B0AD00023A3710822A35E45
:1010100018222000944608305A1C00D072E00823A1
:10102000E25E002A00DB87E040BF0BB0F0BD082184
:10103000605E6A88000431001043984706000F0084
:1010400098E7534800F070FA8019794102900391B3
:101050009DE72B8821692381EFF3108372B60A681C
:10106000002AFCD0BFF35F8F62882A80049A6280D6
:101070002269BFF35F8F0021116083F31088BCE702
:101080002169EFF3108272B60B68002BFCD0BFF31E
:101090005F8F0121A3884942A1801BB22169BFF360
:1010A0005F8F0020086082F31088220008320992C6
:1010B000002B00DAA5E76269944618225A4362447D
:1010C0009068D16804900591099900910821655EA6
:1010D000002D0CDB18266E433100049E059F6144F1
:1010E00002918868C968361A8F41002F05DA009985
:1010F0000B800021535E1580DAE7029900910025EC
:101100004D5FE5E76146594365696A186D5E518830
:1011100009B200290EDA0826A15F01267642F717E8
:101120009660D7608B4203D005802189118023818E
:101130002B0071E71000FBE7182353436269D318B3
:101140009E68DF68731C01D17B1C0ED0079B104D7D
:101150009B005B19A96A1A69701A521A904203D34C
:101160002A6A0899114200D11E61094800F0DCF991
:10117000361A8F41002F00DD56E700D0CFE6002E53
:1011800000D1CCE650E7C046EC1600203C7005408C
:1011900000400540FD0E0010F8B5C16004001600C7
:1011A0001F000D00FFF7AEFCD02226701206126859
:1011B000154B62700122C0185242BBB2638122817A
:1011C0009B18A2801932638094460023800020611E
:1011D000BB4212D101270D4BB200D4503C00B440A9
:1011E00030002C620A49FFF7E9FC39003000FFF7B4
:1011F000C9FC084BED182C60F8BD61465943626983
:10120000581E88520133E3E740000034EC160020FA
:10121000FD0E00103820000010B5094C2369002B8A
:1012200009D10321074800F075F91023032220009B
:101230000449FFF7B1FF0A210348FFF70FFE10BD75
:10124000D0080020004005401819002010B5074CB8
:101250000300626A0020914206D8A46A01309C42D1
:1012600002D2881A431E984110BDC0460040054076
:10127000F0B501000569EFF3108072B62C68002C00
:10128000FCD0BFF35F8F02240D5F18246C434E69BE
:101290003419002D01DB26884E800E69BFF35F8F65
:1012A0000027376080F31088BD422CDBE360638841
:1012B0000598013320615B0406985B0CA2606061B5
:1012C0001A1CBB4200D1012290B22B046280184349
:1012D0000E69EFF3108372B63268002AFCD0BFF3B8
:1012E0005F8F8A8822808D800A69BFF35F8F002418
:1012F000146083F3108801220B789A40CB6803496D
:101300005B181A60F0BD01204042FBE73C20000062
:10131000F7B51F000AAB1C7805001600002C09D099
:10132000099B32000193089B280000933B00FFF7C4
:101330009FFFFEBD00F024F932003B00121A8B41E2
:10134000002BEDDA2000F4E7030070B55A89081489
:10135000824201DC002070BD1822424358691C699A
:101360008218EFF3108572B620680028FCD0BFF316
:101370005F8F568889B20020B4B28E4205D1802199
:1013800009020C435480013098711A69BFF35F8FD2
:101390000021116085F310888842DBD00122197882
:1013A000DB688A4001495B181A60D4E73C200000E2
:1013B000F0B506000F0006246442E517A4197D412C
:1013C00085B08D4202D803D1844201D90024002582
:1013D00000F0D6F822002B00121A8B41002B08DCFB
:1013E00001D1002A05D13000390000F0DBF805B04A
:1013F000F0BD002302930193104B2200009310488C
:101400002B00FFF785FF0028EDDB20002900FFF708
:101410001DFF0028E7D10B4B1868EFF3108272B65E
:1014200001680029FCD0BFF35F8F1B68BFF35F8F9B
:101430000021196082F3108820BFE6E7CD0E00106E
:10144000D00800201819002070B504000D0000F02D
:1014500097F800196941002902DA01200249404247
:10146000FFF7A6FF70BDC046FFFFFF7FFA2210B551
:1014700000239200002101F089F9FFF7E5FF10BD7C
:10148000F0B504000D0087B0EFF305830493002B43
:1014900002D0200029002AE01C4FFB683E7818008B
:1014A000059300F041F802000B0004360599B600E0
:1014B000715820008E1A2900801A99410B00049956
:1014C0000200994204DC01D1964201D820BFE0E736
:1014D0000023029301930E4B2200009338002B004F
:1014E000FFF716FF290006002000002E03DCFFF79F
:1014F000ADFE07B0F0BDFFF7A9FE002800D120BF68
:1015000031003800FFF720FFC3E7C046D0080020B5
:10151000CD0E001010B5024A0248FFF7ACFA10BD1C
:10152000FBC90010251900200300416A0A00986ACF
:10153000596A8A42FAD17047416A9942FCD399426A
:1015400002D1816A914200D37047416AF7E770B5D2
:1015500014001D000600FFF7E7FF02000B00A418AF
:101560005D41A94202D804D1A04202D901246442BB
:10157000E5172B0030002200FFF7DEFF70BD0000F2
:1015800010B50248FFF7D0FF10BDC046004005402F
:1015900010B502000B000248FFF7D9FF10BDC0468E
:1015A0000040054010B502000B000248FFF7C4FFE1
:1015B00010BDC04600400540F7B50C2444430193DC
:1015C000264B0092E4186368089A05000E009342C7
:1015D00000D26260C0232F1F9B01FFB2E318012FCE
:1015E0001FD8012E1DD103221A60A3683342FCD0FC
:1015F000009A236852015A40E0231A4080235B017D
:10160000E1180A60012F1DD9802380229B01E31875
:1016100012011A60089B019A6360114BAD00EA50F9
:10162000F7BD802212011A600D4BAA00D158002983
:10163000DED0586900F0D8F9431C03205843033822
:10164000FDD2D5E703222368734013400B600123CA
:10165000B340A2681342FCD0D6E7C04600800040E9
:1016600098160020F7B505000E001800089917001D
:1016700000F0BAF9089A0300140231003A00280079
:101680000094FFF799FFF7BD13B580246400009420
:10169000FFF792FF13BD0000014B8000C058704758
:1016A00098160020F8B504001F4817001E000D0012
:1016B00000F09AF90100380000F096F9069A330418
:1016C000120313432268002A0FDA3F2122680A40DE
:1016D000AA420AD1A2681205120D824205D1EE215A
:1016E000E268C9020A409A421CD0104A104EA11862
:1016F0004A42514101220C318A400E490A600E498A
:101700000A60170031688F43391EFAD10B4A213124
:10171000A2182560A060116021680029FCDAE3604E
:1017200008231360F8BDC046001BB7000040FDBF92
:1017300008C0004000E0004000F00040043000001D
:101740008023024A9B000B43D36270470080054010
:10175000142310B50100188804331B88984710BD66
:10176000162310B50100188802331B88984710BD56
:10177000F8B50E00040000270125B74201D128006A
:10178000F8BD2068FFF7E4FF01C4431E98414042C2
:1017900005400137F1E70000AA22064B12011A604A
:1017A0008D225200DA600449044A11605A68002A06
:1017B000FCDA70470040024000B0FA0000600240CE
:1017C0007047000010B50148FFF71CF91DCA001052
:1017D00010B5044C044B9C4200D310BD08CC984774
:1017E000F8E7C04670C90010ACC90010054B064AA6
:1017F00006491A60064B074A136018000A689043AE
:10180000FBD1704700E00040BFCDFBFE08C00040A8
:10181000FE7F3C0000F00040044BDB6C002B03D14A
:101820008022034BD2021A607047C046000011505C
:101830004C201150044A054B1A60054A1368DB011D
:101840008033FBD17047C046FFFFFF0100F000402E
:1018500008C000404022034B9A675A671A67DA664D
:101860007047C04600F0014010B5FFF757F910BDB2
:1018700070B50B490B4C0C4D641AA4102200302C8F
:1018800000D930222800920001F014F8074B2F2CC9
:1018900002D9074B9D6070BDA200AB500134F6E742
:1018A00000010010C001001000000020C101001064
:1018B00000ED00E0002373B5284DAB67FFF76CFF28
:1018C0000122274B1A606B6C012BFCD10322254BA4
:1018D0001A60AC6B012CFCD1022605252100009674
:1018E0000623214A2148FFF7DDFE2B002100009549
:1018F0001F4A2048FFF7D6FE3100002204201E4B6D
:10190000FFF7C2FE2800210000221C4BFFF7BCFE9F
:101910000022072011001A4BFFF7B6FE0022082014
:101920001100174BFFF7B0FE80230022DB001100EF
:1019300000930920124BFFF795FE00220F4B110078
:101940000620FFF7A1FE0420FFF7A6FE0D4900F0D8
:101950004BF801000020FFF7F3FE73BD008000404C
:101960003CB0004030B00040002F68590080024079
:10197000008C864700C00240001BB7004059730727
:10198000006CDC0240420F0001480421014B184763
:10199000F008002071170010124A936F9B0815D2AF
:1019A0009066D166002905D0FFE7FFE7FFE7516F9A
:1019B000106F704704B580210906C21751400028F6
:1019C00000D0C8430AF094FF002104BDF0B5146EA6
:1019D000556E576F166FFFF7E3FF1466556657672E
:1019E0001667F0BD000000D0114A936F9B0813D218
:1019F00010665166002905D0FFE7FFE7FFE7516F4A
:101A0000106F704704B5002801D00020C0430AF0D1
:101A10006FFF002104BDC046F0B5146E556E576FC0
:101A2000166FFFF7E5FF1466556657671667F0BD3A
:101A3000000000D094464A4A926F9208624601D252
:101A400028E0C046F0B5464E346E756E776F366F3F
:101A500000F020F89446424A1466556657671667A8
:101A60006246F0BD94463E4A926F9208624601D2A9
:101A700054E0C046F0B53A4E346E756E776F366FEF
:101A800000F04CF89446364A146655665767166758
:101A90006246F0BD002B24DB11D000293EDA00B5F0
:101AA000C943404200D1013100F038F8C9434042F7
:101AB00000D10131DB43524200D1013300BD002A85
:101AC000EBD1002801D1002905D00020C90FC9079A
:101AD00001D1C043410800B50AF0FAFE00220023FC
:101AE00000BD00B500290ADBDB43524200D10133BF
:101AF00000F014F8C943404200D1013100BDC94390
:101B0000404200D10131DB43524200D1013300F0A9
:101B100005F8DB43524200D1013300BD002923D137
:101B2000002B18D1002A0CD0BC460D4F38667A66BF
:101B300000210023FFE7FFE7FFE77A6F386F674672
:101B40007047002801D00748010000B50AF0C0FE28
:101B50000022002300BD02000B000020002170477E
:101B6000000000D0FFFFFFFF002B00D0BFE0130CF0
:101B700028D1002AE7D080B4114F39667A66FFE792
:101B8000FFE730B4040C7B6F396F1B0423433B66C3
:101B90007A66FFE7FFE7FFE7C04684B27B6F3D6FE1
:101BA0001B0423433B667A66FFE7FFE7C04600233A
:101BB0002C042D0C7A6F386F00196941B0BC704746
:101BC000000000D0F0B594460025140E01D1120299
:101BD0000835140F01D112010435940F01D1920080
:101BE0000235D40F01D152000135D40B0134254FF9
:101BF0007C66254C3C660E0C93B2FFE7FFE7FFE7DF
:101C00003C6F6643360C7703BE467343DF0B5B04C1
:101C1000C01AB941130C7343DB18C91ACE086643C6
:101C2000360CB64493B273431F0F1B01C01AB9415F
:101C3000130C73431F0B1B05C01AB941860D8F028D
:101C40003E436643360C092D24DB520A7243801A48
:101C50007703460A6643360C16235B1BDE40DF40E3
:101C6000BF1964466643821B704604350633010083
:101C7000D940A840C01900D30131A24206D20023A6
:101C8000F0BD0000000000D0FFFFFFFF121B01307D
:101C9000F3D3F1E709277F1BFE406446A2B27243EB
:101CA000801A00D20139220C7243130C1204821ADA
:101CB00099410B007046043513370100F940A840E4
:101CC000801900D30131002B02D1A2420AD2F0BD0B
:101CD000013000D30131121BFAD2013BF8D1A242EC
:101CE00000D2F0BD013000D30131121BF7E7F0B58F
:101CF0001C0C00D080E00CB400251C0A04D11B028F
:101D0000160E3343120208351C0B04D11B01160FAB
:101D10003343120104359C0B04D19B00960F3343CF
:101D200092000235DC0B02D192185B4101351C0098
:101D3000971864410134464F7C66464C3C660E0C55
:101D4000FFE7FFE7FFE7C0463C6F6643360C7703CB
:101D5000BE4697B27743C01B00D20139C01B00D2E8
:101D600001399FB27743C91BC91B170C77437E0407
:101D7000FF0B801BB941CE086643360C0C2D33DBBC
:101D8000B644120B1F053A431B0B97B27743C01B97
:101D900000D201399FB27743C91B170C77433E0429
:101DA0003F0C801BB941860D8F023E4366432927B5
:101DB0007F1BFE400C3D7746AF40BF1930BCA2B23E
:101DC000ABB272437343801A9941220C7243130CD5
:101DD0001204801A994102000B000137001BA9412F
:101DE000F9D2781E0021F0BD0C277F1BFE407746FC
:101DF0007F0BAF40FF19E0E700245D1C07D0144FB4
:101E00007D663966FFE7FFE7FFE7FFE73C6F95B2C6
:101E10009EB265436643401BB141150C1E0C6543E1
:101E2000664336042F0C3E432D04401BB1419942BA
:101E300004D202000B0020000021F0BD01D190422D
:101E4000F7D3801A994101349942F2D3F6E70000A2
:101E5000000000D0FFFFFFFF48404140484018B459
:101E60001B4B5B68FC46019308BD04DF5B2100103F
:101E700018B4174B1B68FC46019308BD00DF6521B1
:101E800000109446134A926F920809D2624618B421
:101E90000F4BDB68FC46019308BD0CDF1D240010CE
:101EA0000C4AF0B5146E556E576F166F6246FFF709
:101EB000EEFF084A1466556657671667F0BD18B4FA
:101EC000034B9B68FC46019308BD08DFC12200104C
:101ED00014170020000000D0FFB550404240504091
:101EE00059404B40594000E0FFB5154F4C00640D80
:101EF00003D0BC4204D10C0314D80020090D0905FD
:101F00005C00640D03D0BC4204D11C030AD800223B
:101F10001B0D1B0501264B4009D44B4003D58B42BA
:101F200000D18242FFBD9942FCD19042FFBD0B43DC
:101F3000DB1803431343F5D0C9434918FFBD000024
:101F4000FF07000000B5FFF7CFFF01D0002000BD64
:101F5000012000BD00B5FFF7C7FF804100BDC046AE
:101F600000B5FFF7C1FF01D9002000BD012000BD71
:101F700000B5FFF7B1FF01D9002000BD012000BD71
:101F800000B5FFF7A9FF804100BD012040054A00D0
:101F9000121804D85A00121801D8002070470120E6
:101FA000704700000021002805D17047C117484044
:101FB000401AFAD0C90713B5064B1B6898470CBCEA
:101FC000441CA2401005120B0349091B09051943C3
:101FD000114310BD141800201F04000010B54C0060
:101FE000620D8023D218DB00D21A5B057E2A10DD39
:101FF0009E3A13DACC170903490819435242D140DB
:10200000640001341532202A05DAD04008436043C9
:1020100010BD002010BD0846604310BDC80FC01899
:10202000013810BD18B4044B5B6AFC46019308BD2F
:1020300024DFCD25001000001417002018B4044B35
:10204000DB6DFC46019308BD5CDFD9260010000063
:1020500014170020C94211D300B5490049080022D5
:1020600000F018F8002904D4002240428A411146A9
:1020700000BD80210906002000BD000018B4044BFB
:10208000DB6EFC46019308BD6CDFDB250010000011
:102090001417002018B4044B9B6FFC46019308BD35
:1020A00078DFF725001000001417002018B4044B47
:1020B000DB6FFC46019308BD7CDF65260010000045
:1020C00014170020132370B51C78114D012C0ED16C
:1020D000002310499A000133A950202BFAD10D4B4F
:1020E000AB640D48FFF734FB0C4B186070BD012C3E
:1020F000F5DD0B48FFF734FB06000A48FFF730FB1D
:1021000080223100280000F0D5FB022CE9D1E6E75F
:1021100014170020292100104C330000141800204F
:10212000534400005346000007B5604601880A0A80
:102130000230DF2AFAD1C9B2820804D3028840886B
:102140000004104300E00068014A5050039007BDAE
:10215000141700200FB403BC0CBCF0B50124E40735
:10216000634000E0F0B50C0DCF0F661E3605891BED
:10217000640503D3C943404200D30131640D03D049
:10218000661CF60A07D0E41B00207F00791C890733
:102190008912803C24031D0DDF0F6E1E36059B1B2C
:1021A0006D0503D3DB43524200D301336D0D03D0E1
:1021B0006E1CF60A07D0ED1B00227F007B1C9B07DC
:1021C0009B12803D2D032F1B661B58D4A446202E46
:1021D00046DA20371400BC401D00BD40F2403341B8
:1021E0002A4380185941CB0F05D0C943C043002270
:1021F00064425041514162464D0D28D10D0D07D129
:1022000000281FD0241940414941013A0D0DF9D051
:10221000640006D3013000D30131002C01D1400805
:102220004000013A0BD4941CE40A04D11205114475
:10223000DB071944F0BDD907204B194300E0D9074B
:102240000020F0BD0029DDD1002CDBD1F0BD013232
:10225000C6074008CD0728434908002EE1D0D9E73A
:102260003C2E29DA203E40371400BC4000D0012427
:10227000F24014431A00BB401C43D317ACE7AC46F2
:10228000202F08DA20360400B4400D00B540F84095
:1022900039412843A5E73C2F0CDA203F40360400A3
:1022A000B44000D00124F84004430800B1400C437E
:1022B000C117EAE710001900002494E70000F07F3E
:1022C000F0B50C0D661E3605891BE60A6405640D23
:1022D00002D0651CED0A04D0002001210905803CD4
:1022E0002403A4461C0D671E3F05DB1BE70A64059B
:1022F000640D02D0651CED0A04D0002201231B05E9
:10230000803C24037740644497B484B296B274430B
:10231000070C7E43150C6F4380B26843361802D316
:10232000012000043F183004350C00197D4184461B
:1023300088B29AB250430C0C62431F0C7C438EB29D
:102340007E43921902D301263604A4191604170CF1
:102350003618674101BC81B29AB25143040C624302
:102360001B0C5C4380B25843121802D301200004B6
:1023700024181004130C401863412D185E410020EE
:10238000474106BC88B293B258430C0C6343120C0D
:10239000544389B251435B1802D3012109046418E4
:1023A00019041A0C091862416D1856410020474162
:1023B00018BCF902720D1143F0026A0D1043ED02D0
:1023C0000A0D03D16D1940414941013B124E9B1B3F
:1023D0007600B3420ED26D0007D301300026714162
:1023E0006646354301D1400840001B05C918E40783
:1023F0002144F0BD0BDA013306D1013004D10131A3
:102400004F0D01D04908F2E7E1070020F0BD013689
:1024100031050020EBE70000FF030000F0B51C0DC4
:10242000671E3F05DB1BE70A6405640D02D0661CCE
:10243000F60A04D0002201231B05803C2403D0258A
:102440002D060026F6432E661E096E66CE0FF6197F
:10245000B44649004F0D02D07E1CF60A03D000207E
:102460000021403F3F033E1BB600B444013F7F05BF
:10247000C91B49082E6F013676089C02950D25432D
:102480007543ED137543AD1301356D10F603761BDF
:102490000CB4CC02450D2C43A2B2B3B25A43270C64
:1024A0007B43350C6F43A4B26C431B1902D3012448
:1024B00024043F191C041D0CA4187D4124196D41EE
:1024C000009A91B2ACB26143170C7C432B0C5F4372
:1024D00092B25A43A41802D301221204BF18220454
:1024E000230C52187B41019C6C431B19520ED901DD
:1024F0000A434401A01A81B2B2B2514303145A43B1
:10250000360C734387B27743D617D21900277E4122
:1025100036049B191704160C7F185E417316ED18CC
:10252000F301002680337541A90F06D16400690AC2
:10253000E8055B0A184309D22FE004229444803353
:102540007541A90AA8059B0A184326D34041494171
:102550002404009A019B0D005543641B4343E41A75
:1025600095B286B27543170C7E43030C5F4392B25B
:102570005A43B61802D301221204BF183204330C96
:1025800052197B4152429C41002C02D4002201305E
:1025900051414008CA071043490802B06246D707B4
:1025A0009210084BD218084B9A4203D21205891890
:1025B000C919F0BD0020002A01DC3900F0BD01334B
:1025C0001905F5E7FD030000FE070000002200B535
:1025D000203200F010F8080000BD002200B500F025
:1025E0000CF8CA179A4200D100BDD8430121C9078F
:1025F000414000BD00220B150AD410B5944600F0EE
:10260000A7F81414013400DA0021CB17144C20472A
:102610000020002170476244343A0CD40C2A07DAB7
:1026200004009140904052422032D440214310BDDA
:10263000D843D94310BD203207D40C4694405242AF
:1026400020321141D040204310BD0800C91720326C
:1026500003D452422032104110BD1800190010BDA1
:10266000172600104A00520D144BD21A13DDFF2A10
:102670001EDAD205CB0FDB071A43C300400F090354
:10268000490A084310435B0001D301D00130704771
:102690004308FBD2704702D0C80FC00770470A0337
:1026A00012130132F8D1420F072AF5D1012200E0BE
:1026B000FF22C80F00028018C00570478003000089
:1026C00000210A00002104E000210A00C11704E0F3
:1026D0000022002306E0C0460022CB175840594094
:1026E000C01A994130B5184CA21A002903D1010033
:1026F00010D00020203A4C1512D104D2013A001813
:1027000049414C0DFAD3114CA24204D2120589184A
:10271000DB07C91830BDD243520D00200021F5E778
:1027200003D4013A00184941FBD50B324405C00AD5
:102730004D052843C90A640003D00024604161416B
:10274000E1E7E0D34408F8E732040000FE070000A8
:102750000A0DCC0F531E1B05C91A520503D3C943DA
:10276000404200D30131520D03D0531CDB0A07D085
:10277000121B00206400611C89078912803A120331
:10278000014BD21A70470000FF030000514343433E
:10279000C9188C46110C83B24B4310B4040C61432E
:1027A00092B280B2504362431C041B0C001910BC4F
:1027B00059411304120CC018514161447047000084
:1027C000132310B510481C78FEF7CAFF0100012C36
:1027D00013D10E4C5422200000F06CF815230C4A43
:1027E000990001336250202BFAD12262E26109483C
:1027F000FEF7AEFF084B186010BD012CF7DD8022FC
:10280000024800F057F8F2E753460000181800207D
:102810001D2800104C3300001418002007B5604636
:1028200001880A0A0230DF2AFAD1C9B2820804D329
:10283000028840880004104300E00068014A5050BC
:10284000039007BD1818002010B5002803D0044BD2
:102850004018984202D90348FEF7D4F810BDC0468C
:102860000000042029CA001070B5050005F08CF89E
:1028700004002900FFF7E8FF200070BD70B50D00CF
:1028800005F068FB04002900FFF7DEFF200070BDA3
:1028900010B505F083F810BD01480421014B18471D
:1028A0000009002071170010014B1B681847000039
:1028B00000090020014B5B68184700000009002058
:1028C0009A4200D2885470477047F7B500930B9B2B
:1028D00004000E0017009B0720D00192099D019A69
:1028E000099B9818421B002D1AD10B9BC51B9B07F7
:1028F00023D4FEBD31002020009BA0470135099B59
:10290000FA1A0A9B52199D42F4D3099A0A99002394
:102910008A4200D88B1ADB190193DFE7099DEEE7A5
:10292000089B013D585D3100009BA047D7E702009E
:1029300031002020009BA04701350A9B7819AB424B
:10294000F5D8D6E7F0B589B0070010A80678149836
:10295000059106920E990F9A139C079383071ED434
:1029600001250540002C07D0002D05D0002E02D1F6
:102970000C23184200D0013C30239C4604E0202A5E
:1029800005D063468B540132129B9342F7D8302313
:102990009C46002D03D0A24201D21F2A19D9C3069A
:1029A0003AD543051AD4002A18D0129B9A4201D076
:1029B000A24213D1551E012A0FD0119B023A102BAF
:1029C0000FD02A00119B022B21D11F2A0ED862257D
:1029D0001BE063468B540132DBE72A00119B102B6E
:1029E000F0D183060ED478251F2A0ED903900192C8
:1029F00000913800079B069A05990294FFF765FF3E
:102A000009B0F0BD58251F2AF0D88D5401321F2A75
:102A1000ECD830258D5401321F2AE7D82D25002E01
:102A200005D12B25430702D40307DFD520258D547C
:102A30000132DBE7F0B597B00A921CAA0B9308CAE3
:102A40000D001278219C09900C92002B01D11022CC
:102A50009443620501D5002B1FD06122A10600D549
:102A600041221E000027D2B20A3A0D9230001E9970
:102A7000FEF7BAFF0D9ACBB29A188446D2B2092952
:102A800001D83033DAB2202006A90918CA551E9A97
:102A90007B1C964201D3834213D1209A0193059265
:102AA0001F9A0EAB04921E9A009303920C9A29006F
:102AB00002920B9B0A9A09980694FFF743FF17B0FE
:102AC000F0BD1F006646D1E7F0B59BB00D9322AB79
:102AD0001B78209D0E932B00219C249F259E0A90FD
:102AE0000B910C92234303D1289A10339A432892D6
:102AF000289B5B0504D52A00002322439A422AD052
:102B0000289A6123920600D541230022DBB20A3BBA
:102B100009920F933A00330028002100FEF7A2FF2C
:102B20000F9BD2B2D318DBB29C4610901191092AA8
:102B300002D83032D3B29C4620200AAA121860462E
:102B4000099B099901335054A64204D801D1AF42E0
:102B500001D8202B13D1289A01930692279A12AB01
:102B60000592269A009304920E9A0D9B02920B995D
:102B70000C9A0A980397FFF7E5FE1BB0F0BD109D75
:102B8000119C0993C6E70000F0B595B00E931A9B0F
:102B90000F920A931B9B0A9A0B930B9B0C900D911F
:102BA00010001900FFF7F1F9002811D10122D44BD0
:102BB0000A980B995242FFF7E3F9002808D1012245
:102BC000D04B0A980B995242FFF7C4F9002813D052
:102BD0001E9B0A9A04931D9B0D9903931C9B0C98B2
:102BE00002930B9B009201930F9A0E9B00F0BCF98D
:102BF0000200100015B0F0BD002200230A980B99C6
:102C0000FFF7A8F9002800D165E18022120694465A
:102C10000A9B06930B9B6344079380231E9ADB0059
:102C20001A4011921E9A1A4201D106231C93069D46
:102C3000079B069E079F1D4300D151E15800B24BF0
:102C4000400DC018FFF7B2F9B04AB14BFFF737F9A2
:102C5000B04AB14BFFF70CF9079BB04A1B031B0BA3
:102C60001A4304000D0030001100AD4B0022FFF7A5
:102C7000F6F8AC4AAC4BFFF722F902000B0020003B
:102C80002900FFF7F5F8FFF7A9F90990FFF78EF98A
:102C9000A64AA74B06000F00FFF711F90022A54B2B
:102CA000FFF7E6F8FFF79AF9A34AA44B3900109012
:102CB0003000FFF704F9060010980F00FFF776F9CF
:102CC0009F4AA04BFFF7FBF802000B0030003900D1
:102CD000FFF7C5F802000B0004000D00FFF7EFF846
:102CE000220006000F002B0020002900FFF7C0F88B
:102CF000002212901391944B30003900FFF7C1F875
:102D00000022924BFFF7B4F802000B0030003900AC
:102D1000FFF7B7F800228E4BFFF7AAF802000B006E
:102D200030003900FFF7ADF80F00802106002200C7
:102D30002B000020C905FFF792F802000B003000BD
:102D40003900FFF795F802000B0012981399FFF76E
:102D500098F80022714BFFF78BF87E4B109C9C4635
:102D6000644400222305FFF7AAF8069A079B060091
:102D70000F00FFF705F900280AD0099B3000013B3E
:102D8000390009930022714BFFF77BF806000F0012
:102D9000099B05246333C62B00D8A2E01E9B1B05AC
:102DA00023D533003B4311D0069807996A4A6B4BF1
:102DB000FFF7DEF8002800D197E006980799002277
:102DC000674BFFF7C7F8002800D18EE01C9B099ADB
:102DD000934200DC87E09D1A6B1E1C938023002425
:102DE0001E9ADB001A431E9209941D9B00259C42EB
:102DF00000D21D1B02231E9A1A4010921E9A1A42DC
:102E000003D0634263415B421D40099B002B07D006
:102E10000698079932003B00FFF733F806900791B8
:102E2000002200230A980B99FFF794F8002809D094
:102E300080200006844606990A00079961440B0029
:102E4000069207931E9A474B0D99134004931C9BBF
:102E50000C9802930395069A079B009201930F9A90
:102E60000E9B00F081F80200002C00D1C1E61E9BF1
:102E700045209B0600D420300E9B0D990C9D561CBE
:102E8000A84705230593002303930A330293099B64
:102E9000013CDB0F0193099B0D99DA179D185540F2
:102EA0000E9B32000C9804940095FFF7C3FD109B15
:102EB0000200002B00D19CE60F9BC41A0F9B1A192D
:102EC0001D9BA34200D894E620200E9B0D990C9DDB
:102ED000A8470134F2E70A980B99069007919CE6FF
:102EE000099504245AE7002377E71C9B002B00D1A7
:102EF0007BE7119B5A1E93411C9AD31A1C9374E7CB
:102F0000FFFFEF7FFFFFEFFF01FCFFFFFB799F500B
:102F10001344D33FB3C8608B288AC63F0000F03FFC
:102F20000000F83F61436F63A787D23F71A379091F
:102F30004F930A400000E03F1655B5BBB16B02400D
:102F4000EF39FAFE422EE63F00002C4000002440FC
:102F500000001840FF0300002D431CEBE2361A3F2F
:102F600080842E41FFF7FFFFF0B59BB0209E219F8C
:102F700009900A910B920C9332003B00300039000B
:102F8000229CFFF702F8002808D0249B0393239B80
:102F9000029303230193B04B009324E001223000FD
:102FA0003900AE4B5242FEF7D5FF002807D0249BD4
:102FB0000393239B029304230193A94BECE7012283
:102FC00030003900A74B5242FEF7DAFF002814D038
:102FD0000423249A1A420DD0A34A24990193039101
:102FE0002399009202910C9B0B9A0A990998FFF77A
:102FF0006CFC1FE003239D4AEFE7002230003900FC
:103000009B4BFEF7BDFF002807D10022300039009E
:10301000984BFEF79FFF00280ED0249B0096019747
:103020000493239B0B9A03930A990C9B099802948F
:10303000FFF7AAFD1BB0F0BD0022002330003900CD
:10304000FEF788FF002877D03B00320000200021E7
:10305000FEF705FF012306000F000D93249B5B057F
:103060006CD52200302112AB203A08940898251A1A
:10307000092807D90898197001380890013390423F
:10308000F4D1202539003000FEF7A8FF089B0790F7
:10309000DA00794B9B185C681B680E930F94FEF75F
:1030A00085FF02000B0030003900FEF7D8FE0E9AB3
:1030B0000F9BFEF704FF10901191FEF7B3FF040081
:1030C000FEF770FF02000B0010981199FEF7C7FE83
:1030D00000226A4B10901191FEF752FF00282FD06A
:1030E00001342000FEF75EFF02000B000E980F99DE
:1030F000FEF736FF002803D00024079B0133079317
:10310000089B002B2AD00A26202D47D10323249A7E
:103110001340012B00D08BE0239B002B00D187E0D4
:103120000D9B002B02D10C331A4202D0239B013B92
:103130002393302212AB6FE00D908FE7062490E7C7
:103140000022109811994D4BFEF704FF0028D7D1AB
:10315000002C01D0E307D3D50134D1E70798FEF75F
:1031600025FF02000B0030003900FEF778FE002238
:10317000424B06000F00FEF7EDFE00280CD10022A6
:10318000300039003D4BFEF7FBFE002804D101233F
:10319000079A1340D31807930A2438E0089B0CAA17
:1031A000013B0893172331009B1820000135EF18CD
:1031B000FEF71AFC3031397020003100FEF714FCA4
:1031C000092C0CD83020089B12A95B19202D9DD00A
:1031D0006A1C9D4205D12E234B551500DCE70400E7
:1031E00092E748551500F1E717230CAA9B1807989A
:1031F00021000135EE18FEF7CFFB30310798317012
:103200002100FEF7C9FB0790002800D17EE7202DA2
:10321000EAD17BE7EA5401352399A94208D9202D48
:10322000F8D1249B01950393239B029312ABB3E641
:10323000202DF6D00D9A12AB002A03D02D225A551C
:103240000135EEE7249A520701D52B22F7E7249A9D
:103250001207E6D52022F2E7B5CA0010FFFFEFFF04
:10326000B9CA0010FFFFEF7FB0CA0010ACCA00104F
:1032700065CDCD4165CDCDC1C0CA00100000E03F95
:1032800010B5002801D000F0F1FB10BDF0B59BB0E7
:1032900015000F938C4A8D4B209F0D900E911A6054
:1032A000002901D18A4B0D9300260BE00F9B0133BF
:1032B0000F93252816D03200741C2B000D9E0E99FA
:1032C000B04726000F9B18780028EFD13200AE429D
:1032D00000D36A1E2B0000200E990D9CA0473000E1
:1032E0001BB0F0BD00230120082405E02D2A16D0D4
:1032F000302A0CD103430F910F9A0F9912780131A4
:103300002B2A0FD0F2D8202A0ED0232A0ED010005C
:10331000303809282CD800220A240B920EE0022211
:103320001343E8E70422FBE72343E4E71022F7E72F
:103330000B9A0F906243303A8A180B920F9A1178C9
:10334000501C0A00303A092AF2D900200F9A0C903A
:1033500011782E2928D18021C9000B430F99013201
:1033600049780800303809283CD80A218C4615E0F5
:1033700000200B902A2AE8D104CF0B92824204DA73
:10338000022213430B9A52420B920F91DDE76046E3
:103390000C9A4243303A8A180C9222001178541C3D
:1033A000080030380928F2D91078511C6C282CD02C
:1033B00024D8682831D06A2837D011000C784A1CEC
:1033C0000F92782C04D8572C32D8452C5CD056D884
:1033D000731C320020000B930E992B000D9CA0470C
:1033E0000B9E6FE72A29DFD104CF0C92D2430C99B0
:1033F000D21711400F9A0C910232D5E7742801D0F0
:103400007A28DAD1802252000BE050786C28F9D16A
:10341000C02189000B43911CD0E75078682802D066
:1034200080221343CAE7C021F4E780229200F8E724
:10343000200058382028CBD809F06AFA4C00CAFF7F
:10344000CAFFCAFFCAFFCAFFCAFFCAFFCAFFCAFF34
:103450004C00FB004C002600E8002600CAFF4C0090
:10346000CAFFCAFFCAFFCAFFCAFF4C00B601CAFFA3
:10347000CAFF4301CAFF4C00CAFFCAFF4C00462CDA
:1034800000D1C1E0472CA3D120222100914347293C
:1034900004D180221201134302229443452C01D10E
:1034A00020221343072204930B9B073703930C9BA3
:1034B000974302930CCF0E99009201930D982B0025
:1034C0003200FFF761FBB2E08D320010D016002011
:1034D000C9280010782C47D0582C00D178E16F2CE7
:1034E00000D179E1622C00D178E110229343063AB1
:1034F000692C03D0642C01D00C218B43590501D5D4
:1035000001218B43802189001940692C01D0642C52
:1035100046D100292AD0072107378F433C0003CF2B
:1035200008930B9B049207930C9B0834069300238B
:103530000593CB0F0293CB17119310934340149331
:10354000119B4B401593149A159B10981199121AC0
:103550008B41009201930E992B0032000D98FFF7DA
:10356000B3FA06002700ADE61022C5E73C1DD905D9
:103570000DD5396805930B9B029204930C9B039322
:10358000CB0F0193CB17C9185940009124E039683B
:10359000580601D5C9B2EDE71806EBD509B2E9E73F
:1035A00000290DD008930B9B072107930C9BFC1D52
:1035B000069300238C430492059302930CCCC8E736
:1035C0003C1DD8050FD505930B9B029204930C9BD1
:1035D000019103933B6800932B0032000E990D98E4
:1035E000FFF728FABDE73968580609D5C9B205932F
:1035F0000B9B029204930C9B039300230193C4E75B
:103600001806F4D589B2F2E7202213430722049367
:103610000B9B073703930C9B974302930CCF0E9998
:10362000009201930D982B003200FFF79DFC0600DD
:1036300048E602221A40129202220124134218D1B3
:10364000320005E02B0020200E990D9CA0470C9A1B
:103650000B99531C0C939B1B8B42F3D30023994271
:1036600001D00B00013BF6180B9B0224002B00D06D
:103670005C1C01CF731C32000C930E992B000D9E25
:10368000C0B2B047129B002B19D00C9A12940AE0DA
:10369000531C139320202B000E990D9EB047129BB4
:1036A000139A013312930B9B12999942F0D30B9A00
:1036B0000023A24200D3131B0C9AD3180C930C9E28
:1036C00000E6390004C913920C9A1691002A01D120
:1036D0000122524213990C008A182178002901D046
:1036E000A24214D1139A1900A41A8022D2001140C8
:1036F0001791134203D00C9A944200D9140002226D
:103700001A4018920222134217D1320009E0013404
:10371000E3E7531C129320202B000E990D9FB8470E
:10372000129AA31B0B99D3189942F2D80023A142F5
:1037300000D30B1B0134F6181C1912960AE00C93E7
:10374000129B129A013319930E992B000D9FB847C3
:10375000199B1293139B129A9B1B985C002807D00D
:10376000179B002BECD00C9B0C9A013B002AE6D156
:10377000189B002B15D0129A06E0561C2B00202017
:103780000E990D9FB8473200129B0B99E31A9B18B4
:103790009942F2D80023A14200D30B1B129AD318EE
:1037A0001293169F129E8DE5212213430593082341
:1037B00004930C9B32000393102302930023019384
:1037C00008CF0E9900930D982B00FFF733F92EE7E1
:1037D00020221343103A8FE608228DE602228BE660
:1037E0000EB4012210B585B007AC08CC01000094DE
:1037F000524204480394FFF749FD05B010BC08BCD1
:1038000003B01847C12800100CB41FB506AC08CC93
:103810000A000094010004480394FFF737FD04B048
:1038200010BC08BC02B01847C12800101FB5094BD6
:103830001C68002C09D00122030000910648524266
:1038400003A9A047012004B010BD00F01BF920001F
:10385000F9E7C046D0160020813200100FB407B53A
:1038600004A901C90191FFF7E1FF03B008BC04B04E
:10387000184700BEFDE70000084A03001168002950
:1038800001D10749116010680649C3188B4201D85D
:103890001360704701204042FBE7C046CC16002071
:1038A0002CDB01200000042010B5FFF7E2FF000030
:1038B00013B50C001900074B002A01D1064B1A0062
:1038C00001920093020023000448FFF7C7FF012084
:1038D000FFF7CFFF10CB0010FAC900101DCB00106E
:1038E00010B5FDF775FF044C044B9C4200D310BD8E
:1038F00008CC9847F8E7C046ACC90010B0C9001022
:10390000030010B5080011001B68984710BD0000A7
:10391000F8B50C000021437D0500160008008B421D
:103920001ED1110020002B689847F8BD002927D030
:10393000631E5B5C0D3B5A425341DBB2625C4F1C21
:103940000A2A0CD1002B0AD1814203DD091A2B6807
:10395000201898470D4802212B68984738003900F5
:103960008E42E3DC86420DDD311A2B682018984721
:10397000A419013C23780D3B5A4253412B75D4E7DF
:103980002B7DDBE7002ED0DDF2E7C0464CCB0010EC
:1039900010B5FDF7F5FD0023054A12184B41002B29
:1039A00002DA0122034B5242034808F0C1FF10BD66
:1039B00040420F00FFFFFF7FC012002010B50248F9
:1039C00008F07EFF10BDC046C0120020F0B585B0E3
:1039D00006000C001D000092FFF7DAFF0190631C47
:1039E00003D1300004F008FD0400144F002D00D175
:1039F000134F144B1D68002D07D1019B002B01D0E4
:103A0000FFF7DCFF200005B0F0BD2B68002B13D0C2
:103A10000D4B1B68002B01D0AB420DD122003100B1
:103A20002800B847009B002B06D002ABD91D0A2303
:103A3000012228000B70B8472D69DCE7113900100E
:103A400001390010C0160020C8160020054B10B523
:103A50001C68002C00D110BD6368002B00D0984773
:103A60002469F6E7C01600200020704713B56B46A6
:103A70000400D81D0123002219000470FFF7A6FFDF
:103A8000200016BD70B5050004F0B6FC012304004B
:103A900001001A002800FFF799FFFFF7D7FF200069
:103AA00070BD0000F0B50400022787B00620039126
:103AB000FDF7F2FD636880253B400493231D0593C9
:103AC000214B0290E3181F60039B6D005802D90D33
:103AD00002000B00002B07D1029EB24204D802372D
:103AE00012184B41AF42F5D1FF2680237E435B0085
:103AF0000193019D31006B1E02980193FDF774FF45
:103B0000039B984219D9FF22276121686B1E1B0273
:103B10004B401202134080225201A41880229201CD
:103B2000944629002360059B049A634479430298D4
:103B30001A60FDF759FF07B0F0BD019BF61B012B82
:103B4000D7D11D00DFE7C04604300000164B70B52A
:103B5000C218531E9A41012310329340134A0400A5
:103B60001360134A134813601D0002689543FBD18C
:103B70002000FFF797FF02220F4B6168E3181A60DD
:103B80000723256811406B40CF252B4080256D0110
:103B900065192B60094BE318196009496418032162
:103BA00021601A6070BDC0460040FCBF00E00040CC
:103BB00000F0004008C00040043000000420000075
:103BC0002420000007B5044B0100009300220B23C2
:103BD0000248FCF76DFF0EBD4ECB001022190020ED
:103BE000024BD8688007C00F7047C04600C0054030
:103BF000092010B5FDF750FD8023074A1B02136012
:103C0000064A074913601C000A689443FBD1054B20
:103C10000138186010BDC04600E0004000F00040D0
:103C200008C0004000C005408023028870B55B01D9
:103C3000040000209A423BD2A378013B0B2B37D8DB
:103C4000E378013B1E2B33D82379062B30D86379D8
:103C5000172B2DD8A3793B2B2AD8E2793B2A27D8DA
:103C6000144DE860FFF7BCFF0028FBD10022A35EE3
:103C70000222A2561B03120213430322A25613432D
:103C80006B6005220423A256E35612041B0613435D
:103C90000722A25613430622A25612021343AB6018
:103CA0001023EB600F3BEB60FFF79AFF0028FBD07F
:103CB00070BDC04600C0054070B50400FFF790FF1E
:103CC000002817D00C4A3F26D36992695901490F41
:103CD00021711F211D0C0D4065711D0A3340E371D8
:103CE00013021B0D2380130535401B0F0A40A571DD
:103CF000A370E27070BDC04600C0054010B5FEF76D
:103D0000B3FD10BD10B5FEF7C3FD10BD030080B2BA
:103D10007F2B13D980220020520293420ED2B6226A
:103D2000FF3291420AD1064A1188994204D00130EB
:103D300080B202328028F7D18030C0B27047C046CE
:103D40001ACE00108023F0B55B020400984221D205
:103D500080221E4983B25201904200D31C49FF26A3
:103D60000A880800002A14D0934212D345880431EF
:103D7000280A3540AF18BC4223DA082809D808F0D1
:103D8000CFFD050B11131517191B1D00A21A5200A8
:103D9000535A1C002000F0BD01209A1A02409B1AC1
:103DA0009BB2F6E7103BFBE7203BF9E7303BF7E738
:103DB0001A3BF5E70833F3E7503BF1E7054A9B1858
:103DC000EEE70028CCD16D004919C9E76CCB001093
:103DD0005ECD0010A0E3FFFF4278017883781202E5
:103DE000C07811431B040B430006184370470300BF
:103DF00010B542780178120280781143DA78000415
:103E00000843120610435A7919799C7912020A4321
:103E1000D979240422430906114310BD0B0A01700D
:103E200043700B0C090E8370C1707047110A027049
:103E30004170110C120EC2701A0A037142711A0CF1
:103E40001B0E81708271C37170470000F0B50024B1
:103E5000036802001C571878591C002C2DDA1F210A
:103E600004008C43C02C2AD1012508403F265D194F
:103E70005C78991C2700B743802F30D180013440F3
:103E8000013320439D42F3D10300164C803BA342F3
:103E900025D88024144B2401C318A3421FD38023A8
:103EA0005B02984209D3114B114CC3189B0180054A
:103EB000800D234003430F4818431160F0BD0F21CC
:103EC00004008C43E02C02D102250840CEE70721F4
:103ED00004008C43F02C02D103250840C6E70120E2
:103EE0004042EBE77FFF10000028FFFF0000FFFFCC
:103EF0000000FF0300DC00D8F0B504000020154AE4
:103F00000300944601271568002D16D02668B54297
:103F100014D15568A668B54210D19568266BB54294
:103F20000CD11020002914D11B016344D86801383A
:103F3000FF384342584100010BE038000133103292
:103F4000102BE0D1002801D0002002E0022900D08F
:103F50001220F0BD7C140020F0B51E4C002322007E
:103F600006682568B54207D165688768BD4203D1F8
:103F7000A568076BBD4221D001331034102BF0D15E
:103F800000242301D55823000134002D12D11C0137
:103F900016518668006B14196660A060E5600129FF
:103FA00014D019015118C968013118011218D160D3
:103FB000581CF0BD102CE4D10020FAE70129F0D103
:103FC000002019015118C9688142F2D180214900AD
:103FD000EBE7C0467C140020431E10B502200F2BD7
:103FE00012D80A4C1B01E118CA68FE30824204D183
:103FF0000022CA600020E05006E0002AFAD0013A10
:104000000020CA60002AF5D010BDC0467C140020F4
:104010000023190010B5054A1468844200D11160CC
:1040200001331032102BF7D110BDC0467C14002094
:10403000C36A8A1E023B10B500210400002093428F
:1040400008D9002360891900FEF7A0FB226D636D7B
:104050008018594110BD70B50500C16D500A0C1D86
:10406000D9050843590A2B685A890023FDF7FAFC41
:1040700003002068002806D0834202D31B1A0834AC
:10408000F7E76068181870BD93B21B0A8A76CB7682
:104090000378032B03D1120C0A75120A4A75704774
:1040A0000100030000200B314208C00110431A78C0
:1040B00001338018C0B28B42F6D1704770B505004D
:1040C00041780020020001314901022A09D0AC5C8C
:1040D0004608C0032018801980B201329142F4D8FA
:1040E00070BD0322F9E700000368010010B5002B42
:1040F0000BD01A00107801321F2810D93A28F9D1B4
:1041000018783038C4B2092C02D90120404205E0A9
:1041100002339A42F9D10128F7DC0A6010BD014B45
:104120001878FBE7241900200123F0B508241D00AE
:10413000074E1A000A40571EBA41424050082A4210
:1041400000D070405B00013CDBB2002CF1D1F0BD2F
:104150002083B8ED70B504000D00002804D10923B8
:10416000002218002A6070BD0368002BF7D01A786F
:10417000002AF4D08188DA889142F0D1587803F08F
:10418000B7F90122030013401042E8D12268E8E7A2
:1041900070B504000026FF250234A31E18880028ED
:1041A00001D1300070BDFFF7CDFDF303760882B278
:1041B0009B1928401B189BB2DE03120A5B089B1850
:1041C000F618B6B2E8E7F0B50379040087B0002B23
:1041D00003D10025280007B0F0BD0700226E636EF2
:1041E0000126683740783900009603F0B9F9051EBA
:1041F00022D1226E636E04920593236B2071029389
:104200000390226C636C04980599801A99410A0006
:104210009542DED1029A8242DBD9E378022BD8D1D3
:1042200002980399049A059B009612184B41390095
:10423000607803F095F9CDE73500CBE7F7B51E00C0
:10424000036E04001500934203D1436E0020B34275
:1042500015D02000FFF7B7FF002810D1012721005B
:104260002A00330060780097683103F062F9002873
:1042700003D001256D4238002E0025666666FEBD1E
:104280000021F8B50400017101204042C1172066E9
:1042900061662000FFF7D2FF0423002864D12700C5
:1042A000324A324BA2185578E35C314E2D021D4341
:1042B0006837B54207D10B2238002E4908F010FBB1
:1042C0000123002850D03B78EB2B03D01833DBB20E
:1042D000012B44D8B54207D1200008222649BA3024
:1042E00008F0FEFA031E3FD0220073321178537893
:1042F00080221B0292000B43934230D1230075337E
:104300001B78002B2BD05A1E134228D12200763264
:10431000537811781B020B4321D0230078331B788C
:10432000013B012B1BD81379D1781B0203320B43BD
:1043300015D0D37891781B020B437F2B07D8200030
:104340008830FFF749FD80235B02984207D37E3413
:104350006278237812021A4300239A4204D1074B51
:10436000ED186B1E9D41AB1C1800F8BD66020000E5
:1043700055AA00001ACF001026CF0010AB55FFFF42
:10438000F0B50027023985B00E0B0393836DC46D21
:10439000F61867410B05DB0D009307230124194034
:1043A0008C4005000192E4B20120002132003B0064
:1043B00036184F412800FFF741FF002825D1802300
:1043C0009B009C462100009BEB1868331A780293EF
:1043D00011404B1E9941039B994219D0029B6240A8
:1043E0001A7001232B71019B013B0193002B0DD00F
:1043F0006200D4B2002CE5D1009BD2B2013301346B
:1044000000926345D0D00093DCE7012005B0F0BDF9
:104410000220FBE7F7B5012203000D0091421AD9F3
:104420000468E16AA94216D920780138032812D815
:1044300008F076FA0232485E0023206C616C6F0847
:104440007F197A0A12184B412000FFF7F7FE002867
:1044500003D0012252421000FEBDFB05DB0DE31824
:1044600068337E1C1F780300206C616C720A12187E
:104470004B412000FFF7E2FE0028EAD1F605F60DD9
:10448000A4196834227812023A43EB0701D51209C5
:10449000E1E71205120DDEE70023206C616C2A0AA9
:1044A00012184B412000FFF7C9FE0028D1D1FF218F
:1044B0006D0049000D40641968346278207812025A
:1044C0000243C8E70023206C616CEA0912184B41D3
:1044D0002000FFF7B3FE0028BBD12000FE24AD0072
:1044E0006400683025404019FFF776FC0201CEE7F2
:1044F0001E695F693200D9793A4302D09A68002A6E
:1045000002D101220029A6D19A68AA1A0192022991
:1045100014D101225242D31792197B41D905500A76
:1045200008436289590A0023FDF79CFA019B012286
:10453000834200D98FE722D06A1C8CE7032903D17C
:104540009A6901998A42F7D8D969002917D10B00D5
:10455000206C616CEA0912184B412000FFF76EFED7
:10456000002800D075E72000FE24AD00640068300C
:1045700025404019FFF730FC420052086BE7014A22
:1045800069E7C046FFFFFF7FF7B50668050033788F
:104590000C008022042B04D09203A24203D80220F4
:1045A000FEBD5205F9E7E206F9D1AF682C63002F92
:1045B00021D1022B1AD8328963099342EFD2B26C0F
:1045C000F36CAA63EB63AA6BEB6B11006F63194387
:1045D000E5D00021600A12184B41E4056836E40D6D
:1045E00034190800AA63EB632C64D9E7B36CEF714C
:1045F000002BE0D01F0073895B020193019B3900FF
:104600009C4205D23000FFF713FDA863E963DAE7A7
:104610002800FFF7FFFE0700431C07D00128BED982
:10462000F36A8342BBD9019BE41AE7E70120B7E7AD
:10463000F0B506000F001400022585B001290AD943
:10464000C36A8B4207D903780093AB4200D17AE06A
:1046500004D8012B29D0280005B0F0BD009B02250D
:10466000033B012BF7D80023CA09416C006C1218D8
:104670004B413000FFF7E2FD051EECD1FE21BF00EB
:1046800049000F40310033786831CF19042B07D02F
:104690003800FFF7A1FB2401000F240900070443A1
:1046A00021003800FFF7BAFB43E04B085B18019389
:1046B000002301994A0A416C006C12184B413000EA
:1046C000FFF7BCFD051EC6D1330068330293019B82
:1046D000029A01330393019B0099DB05DB0DD3188C
:1046E000009A3A400192E2B20F4208D00F21FF2017
:1046F0001A7800010A40210101400A43D2B21A701F
:1047000001233371002303994A0A306C716C12182B
:104710004B413000FFF792FD051E9CD1039BD9054C
:10472000029BC90D5918019B002B05D02409E4B246
:104730000C70012333718EE70F220B78240A934308
:1047400014401C43F4E700230A0A416C006C121861
:104750004B413000FFF772FD051E00D07BE7FF21C3
:1047600033007F00490068330F40DF193C70A4B26A
:10477000240A7C70DDE7F8B504000D001600E3693B
:10478000002B01D11800F8BDEF1A32002068791C07
:10479000012B00D0BA1CFFF74BFF0028F3D1E369CF
:1047A000013BE361EBE7F7B506000C001700056875
:1047B000012901D80220FEBDEB6A8B42FAD9002AFA
:1047C0000FD10094210030000194FFF723FE041E56
:1047D00016D12B78042B02D1002F43D1F771002082
:1047E000E9E72B78042B02D1C379022BE9D001220F
:1047F000390028005242FFF71BFF0028E1D0DAE71A
:104800000128D7D0431C01D10120D4E72B78042BF9
:1048100019D1EA6AAB69023A93421CD3019A013278
:10482000A2420CD02B78042B08D1009B2800D21A6E
:1048300000990023FFF7A4FD0028BCD10094EB6A87
:10484000A342BFD8C5E7002228000199FFF7F0FE78
:104850000028DED0AFE701220133AB616B7913434F
:104860006B71DBE7F379002B11D1B468BC4202D144
:104870000223F371B3E721003000FFF7CBFD0128DD
:1048800098D9431CC0D001348442EFD0A7E7032B52
:10489000A5D1B368BB42A2D8B2699B18BB429ED3D4
:1048A000E6E770B5C37904000020032B06D1A168A8
:1048B000A369CD18A94202D10020E07170BD4E1C41
:1048C00032002068FFF7B4FE0028F7D13100F1E78D
:1048D000F0B589B005000F00FFF775FC0600012058
:1048E000002E47D139002800FFF7A2FB0290039168
:1048F000029B039C2B666C662B0080226833180099
:10490000310092000593FDF7CFFF80236C891B02D5
:1049100064029C4200D31C008027BF00BC4240D9E7
:104920002000FFF7EBF9061E06D022000021670ADF
:10493000FDF7BAFF002412E06408EFE700230298B5
:10494000039906940793069A079B009712184B4108
:104950003100687802F004FE002803D1E4196B8965
:104960009C42EBD33000FFF7CDF96889001B431E52
:104970009841C0B209B0F0BD01346B899C42F4D2B9
:104980000123687800930599029A039B02F0E8FDE1
:10499000029A039B92197B41029203930028EBD069
:1049A000E3E7002401260027E7E70000F7B504004D
:1049B000FFF709FC051E49D12378032B3ED1677907
:1049C000012F3BD126008022683601009200300082
:1049D000FDF76AFF55221E4B4121E2541D4B9218F0
:1049E000E254220052236932337013702300612293
:1049F0006A3393201A70597072238000235416482A
:104A00002354164BE154164BE2540133E018A169CC
:104A1000FFF704FA95239B00E0186169FFF7FEF9A0
:104A2000A06BE16B0122002312184B41009731006B
:104A300022666366607802F093FD657100226078FB
:104A4000110002F0A4FD431E9841C0B2FEBDC04655
:104A500066020000670200004D0200004E020000E6
:104A60004F0200000023F0B50B6093B00E0017005A
:104A7000FFF73AFB0B25002819DBBA4B8000C4581E
:104A80000135002C13D03D00346001262378B54356
:104A9000002B0FD0607802F02BFD30420AD1002DA0
:104AA00005D0042305001D40184200D00A25280027
:104AB00013B0F0BD00236078237002F026FDC30719
:104AC00000D5A1E2002D01D04307EFD4002200233E
:104AD0002000FFF7D5FB022800D03BE1A24BE35CAE
:104AE000EE2B00D014E1012200232000FFF7A6FBEB
:104AF000002800D030E1230068330C2218009B49C5
:104B0000009307F0EDFE051E37D120007430FFF74B
:104B100063F90200D2235C3A07005B009A422CD86A
:104B2000012676422B00103B0021032B01D9009B6C
:104B3000595D3000FFF7F8FA01350600AF42F1D1B8
:104B400020007830FFF748F9F643864215D120005F
:104B5000BC30FFF741F980280FD12000B830FFF7B3
:104B60003BF90700802808D82000B030FFF73FF954
:104B7000002602900391BE4201D10D2597E7F50171
:104B80006B0A04930023029803990593049A059BEA
:104B900012184B412000FFF751FB002800D0DBE04A
:104BA000C0235B001D40009B10227149581907F07B
:104BB00097FE002801D00136DDE72800009B203059
:104BC0001818FFF714F902000B002000FFF758FB3C
:104BD0000128F0D8226E636E009201932300733394
:104BE000012800D012E12200A8321D78002DC4D186
:104BF00001339342F9D12200D032117853788022C8
:104C00001B0252000B439342B7D12300D4331B78CD
:104C1000092BB2D12000B030FFF7E9F80290200054
:104C2000BC300391FFF7D8F823002063D6331B78FC
:104C3000E370012BA1D12200D53212789340069364
:104C40006B461B8B6381002B97D02000C430FFF78D
:104C5000C3F8484B049098428FD8030020000233D9
:104C6000E362C030009A019BA263E363FFF7B4F8EC
:104C7000009A019B06002F002000B6185F41B83053
:104C800026656765FFF7A8F82B00020000980199D8
:104C900012184B41226463646B46049A1B8B2900F3
:104CA0005A431000029A039B36184F41009801990D
:104CB00012184B419F4200D95FE702D1964200D9BA
:104CC0005BE720000025C830FFF786F82E00A064BF
:104CD000E564002D13D16389B34200D84DE720006D
:104CE000A16CFFF7A5F908960995089A099B121877
:104CF0004B412000FFF7A2FA00282DD1013663199D
:104D000068331B78812B3BD02035ED05ED0DE0E7B6
:104D1000194B0EAEE518194BE7182800FFF75CF8A1
:104D2000103501C6BD42F8D100250326AB000EAAFE
:104D3000D2583000002A06D000232000FFF7A0FA46
:104D4000012800D846E70135042DEFD1042800D012
:104D500013E701E0042801D10125A8E6012800D8C5
:104D600038E70AE7741400202A0200003FCF001041
:104D7000EBCF0010FDFFFF7F2E0200006E0200004F
:104D800028002600143068363018FFF725F8050093
:104D9000012800D8F1E6E36A834200D8EDE6608995
:104DA000A91E414300230A00206D616D12184B417A
:104DB0007F27A265E365206C616CEB090A930023F1
:104DC0000B930A9A0B9B12184B412000FFF736FAFF
:104DD0000028C1D12800384080003018FEF7FCFFC1
:104DE000431C03D00135A842E5D0C6E60426A061E5
:104DF00060610025884A20001388267001339BB229
:104E0000E380E5611380FFF703F950E6802219780B
:104E10005B7892001B020B43934200D0ADE6230067
:104E20007E3358781A7800021043029004D1200093
:104E30008C30FEF7D1FF0290029B2363230078336E
:104E40001E78731EE670012B00D996E62300753399
:104E50001D78ABB26381002B00D18EE66B1E1D4224
:104E600000D08AE6230079331A785B781B0213435B
:104E7000049323811B0700D07FE623007B335878FF
:104E80001A780002104303D120008830FEF7A4FFF7
:104E9000230076335F781A783F02174300D16CE61F
:104EA000029B73430D93049B0D9A1B09DB199B18FE
:104EB0000893984200D260E6C61A29003000FCF739
:104EC00093FDAE4200D258E6544B984200D954E6C6
:104ED000534B984200D899E00326009A019BA263A5
:104EE000E363002306970793851C009A019B0698AD
:104EF000079912184B41009801990A920B9322646A
:104F000063640023089AE56212184B4122656365C9
:104F1000032E62D122009232537811781B02049A38
:104F20000B4313431FB2002B00D026E62000943021
:104F3000FEF752FFAD00A064E7643A4BED18029B08
:104F40006D0A9D4200D918E601235B42A3616361AB
:104F500081336371032E00D04BE7220098325378DF
:104F600011781B020B43012B00D042E700980199F6
:104F7000012200238018594102000B002000FFF796
:104F80005DF9002800D034E7274B6071E25CE3183C
:104F90005B781B021343254A934200D029E7200087
:104FA0006830FEF719FF224B984200D021E7932387
:104FB0009B00E018FEF710FF1E4B984200D018E748
:104FC00094239B00E018FEF707FF95239B00A06148
:104FD000E018FEF701FF60610BE7049B002B00D196
:104FE000CBE50A980B990D9A079B12184B41A264C6
:104FF000E364022E01D16D009FE7032301206B4380
:1050000005405B085D1998E7032550E50A4E864286
:10501000B6417642013660E720190020F5FFFF0F08
:10502000F5FF0000FF0100006602000055AA000025
:105030005252614172724161F50F0000F0B587B0C4
:10504000060005680091002907D16F69002F02D082
:10505000EB6ABB4212D8012710E00099FFF7DAF99A
:105060000400012803D80124200007B0F0BD431C30
:1050700000D1DDE0EB6A009F8342F5D8AB69002BDD
:1050800001D10024F0E72A78EB6A042A00D088E0F6
:10509000BA1E023B9A429B411A4014000192230B14
:1050A00002930023A86DE96D0393029A039B1218E3
:1050B0004B412800FFF7C2F8002800D0B8E00723D2
:1050C0000121234099408020CBB2E96A8000023957
:1050D0000591844621002205D20DA8186830007879
:1050E00001341840049005985B00DBB2844203D37E
:1050F000002380221C0092000498002816D18C1CEA
:105100000131CB1CB0D8012321001A002800FFF781
:1051100037F90228A7D0012800D189E0009B002B95
:105120000FD10233F37100289DD12DE00199A142E6
:10513000A7D0002B03D101326245B0D20123210058
:10514000CBE7F379022B07D17B1CA342EBD0B368EA
:10515000FF1A0323B761F371009AF3690132A24287
:1051600005D10222002B00D05A1CF261DBE7002B94
:1051700001D10133F361220030000099FFF7FBFAFF
:10518000002852D10123F361EA6AAB69023A6C61EB
:10519000934201D8013BAB6101236A7913436B71E0
:1051A00062E7009A974215D17C1CA34200D80224E2
:1051B00021003000FFF72EF9012800D153E7431CEE
:1051C00036D000281DD06B69012B03D9EA6A9342BF
:1051D00000D21F003C00EB6A0134A34203D8012F28
:1051E00000D84EE7022421003000FFF713F9002811
:1051F00009D0012800D136E7431C19D0BC42EAD1BE
:105200003FE7002CE6D00122210028005242FFF7A0
:105210000FFA002809D1009B002BB5D022001900FD
:105220002800FFF705FA0028AED0012800D01AE7C1
:105230000124644218E7F0B5036B056885B020339C
:1052400001932B7804000391042B29D080239B0326
:10525000019A934203D800220023A263E363A66B62
:10526000E76B330004203B4318D0019BDB05DA0DCC
:105270000292002B4CD10122002392197B41616BD9
:10528000A263E36300290ED1019B2A895B09934243
:105290003ED3002200230420A263E36305B0F0BDE7
:1052A00080235B05D4E76B89019A013B520A1A42BD
:1052B0002ED12000FFF7AEF80600012801D8022009
:1052C000ECE7431C01D10120E8E7EB6A834218D8E0
:1052D000039B002BDDD02000616BFFF7AFFE0600C3
:1052E0000720002EDAD0012EE9D0731CEBD031005C
:1052F0002800FFF7EDFA0028E5D10423E2791343F3
:10530000E371310028006663FEF792FEA063E1635B
:10531000019B68352363029B0020ED182564BDE7DF
:10532000F8B50E00002104000768FFF72DF90028EA
:1053300016D10500A26BE36B3800FEF77FFF002853
:105340000ED1236C3A781B78042A0DD15BB2002B66
:105350000EDA050001212000FFF76DFF0028E9D0DB
:10536000042808D1033006E0E52B01D0002BF0D152
:105370000135B542EED1F8BDF7B505000068AA6B5E
:10538000EB6B0669FEF75AFF041E04D1296C0B78FB
:10539000852B02D002242000FEBD20223000FDF724
:1053A00089FA737801335B011A0001938023603A14
:1053B0009B009A42EED821002800FFF73CFF040032
:1053C0000428E7D00028E6D1AA6BEB6B2868FEF72B
:1053D00035FF041EDFD1296C0B78C02BDAD12022D7
:1053E000B018FDF767FA331DD87F0F212C30FCF77A
:1053F000FBFA019B40019842CCD8402700212800AD
:10540000FFF719FF04000428C4D00028C3D1AA6BF9
:10541000EB6B2868FEF712FF041EBCD1296C0B78D9
:10542000C12BB7D1A033FF339F4203D22022F01902
:10543000FDF740FA019B2037BB42DFD898239B0041
:105440009F42A8D83000FEF739FEF378B2781B02ED
:10545000134383429FD09DE7FF220B6810B5036082
:105460000B6A040083604B6AC3719343036100239A
:10547000896A4361C3610165FFF786F8002802D19C
:105480002000FFF779FF10BDF8B5036806001F691B
:105490003800FEF713FEB870000AF870316D300066
:1054A0007D78FFF771F80400002C05D0251C022C34
:1054B00000D90225E8B2F8BD3068B26BF36BFEF795
:1054C000BDFE041EF2D120223900306CFDF7F2F946
:1054D000012233681A71002DECD021003000FFF753
:1054E000AAFE20370400013DDEE70000F7B503689F
:1054F00005000093FF2304241E000193AA6BEB6BAD
:105500001100194303D1002C00D186E071E000980E
:10551000FEF794FE041E00D06BE0286C0378002B8D
:1055200000D180E0009A1278042A10D1852B59D13D
:105530002B6B28002B65FFF71FFF041E59D13F225C
:10554000009B1B691B791340AB712000FEBD3F21FE
:10555000C27A0A40AA71E52B52D02E2B50D01700E8
:105560001F398F43082F4BD00F2A4FD131321342AE
:1055700044D09343417B1E002B6B01912B65437BF1
:10558000019A93423CD1C37E817E1B020B4337D1EB
:1055900040210124009AD268944602788A43013A55
:1055A00033394A432149595C475C4118497809021B
:1055B0003943002C26D0FF2A22D867465400E153F5
:1055C0000C00013201330D2BECD103785B0607D5BB
:1055D000002C05D0FF2A13D80023614652005352F5
:1055E000013EF6B200212800FFF725FE041E00D17F
:1055F00084E700220023AA63EB63A6E7B342BED090
:10560000FF26EFE70A4FB942DCD0F9E7002E06D1BA
:10561000FEF746FD019B984201D1002495E7012346
:105620005B422B6591E70424E3E7C046FBCF001003
:10563000FFFF0000F0B5002189B004000768FEF705
:10564000A3FF019000280CD13B78042B3BD1F868D4
:10565000FEF79EFD03902000FFF748FF051E03D0D4
:105660000190019809B0F0BD3B695A1DD17F9A1D88
:10567000D27F12020A4303999142ECD140260433AF
:10568000DB7F0293029B9D4205D1FB686D00EB5AC4
:10569000002BE0D1E5E71F231E4200D102363B6913
:1056A0009A5D9B19587800021043FEF74BFBFA688D
:1056B0006B000090985AFEF745FB009B8342CAD1CD
:1056C00002360135DEE701235B4223650133FF33F8
:1056D0001E0004933800A26BE36BFEF7AFFD0028B9
:1056E00070D1256C2B780093002B00D18EE03F23E6
:1056F000EA7A00991340A371E52903D0120705D572
:105700000F2B05D001235B42236560E00F2B65D191
:1057100023004F331A7840231A424DD1009A1A427F
:1057200052D06A7B0492009A9A43236B00922365BD
:105730006B7B049AFF2693423ED1EB7EAA7E1B022E
:10574000134339D13F21FA68F23E05922A78029339
:105750000A40013A5643012202992E4BCB5CE95C88
:10576000EB185B781B020B430393002A31D0FF2E0A
:105770002DD81800FEF7E6FA731C0793059B7600F8
:105780000690F05AFEF7DEFA069B83421FD1039A79
:10579000079E029B013302930D2BDDD12B785B0614
:1057A00007D5002A05D0059A73009B5AFF26002BC7
:1057B00002D1009E013EF6B200212000FFF73BFD22
:1057C000002887D001904CE7009B9E42B0D0FF2676
:1057D000F2E7114B03999942DBD0F8E7002E06D18E
:1057E0002800FEF75DFC049B984200D139E72300B6
:1057F0004F331B78DB0785D421000B22280044316E
:1058000007F06EF8002800D07CE72AE70423019314
:1058100027E7C046FBCF0010FFFF00000100F0B5F6
:105820004F310B789DB001935F230400019806254A
:10583000984300D09BE027680090FA68009B5B00CB
:10584000D35A002B52D13B780293042B00D093E023
:1058500000980F210E30FCF7C7F8811C06002000CD
:10586000FFF75EFD051E00D081E0236B0136760157
:105870009E1B029AE379266513423BD09343200096
:10588000E371FFF70EF800282ED101222000616B92
:105890005242FEF770FF002826D1A368002B29D0C2
:1058A000210006A8FFF7D8FD00281DD10300798943
:1058B0004A022069616912184B41386922616361AB
:1058C0003830FEF7B3FA2269636938692830FEF789
:1058D000ADFA01223B69E17902330A43DA7706A87F
:1058E000FFF7D2FD002805D0050040E0009B013302
:1058F0000093A3E73C69402200212000FE68FCF7EA
:10590000D3FF8523C02223700420631CDA77002391
:1059100001214027001B00930190E019C127077067
:1059200000274770002905D05900895B002901D064
:105930000133DBB21F220F0AC770019F81703F182D
:1059400002301742EED1009A501C5A00925BC0B24E
:10595000002A0FD1009A211D0232CB7730006270ED
:10596000FEF716FC631DD8770634000AE07728009E
:105970001DB0F0BD0090D0E7230006AA443361CBF0
:1059800061C20126019B334200D1C4E040230B7069
:10599000220006AB4432F96821CB21C210001A88DC
:1059A00002809B7883703300052E49D80F2207218F
:1059B000944662461A401000303002931B09392881
:1059C00001D93732100004AD4A1E4855012902D0D2
:1059D00002990F2938D87E23250004A98B5400236F
:1059E00043359A4203D0591C685C20282ED12000F0
:1059F000202543302900072A02D804A9895C0132F6
:105A00000133C154072BF5D92000FFF713FE051E03
:105A100000D079E00136642EBAD10735A7E710200F
:105A2000023101251540AC4680255B0063446D02C0
:105A300052082B4201D0504D6B4001380028F0D164
:105A40000A88002AEBD1B1E71100B2E70B00C8E7E2
:105A5000009B20005901236B591AFEF795FD051E86
:105A600000D084E720004430FEF71AFB0390380092
:105A7000A26BE36BFEF7E2FB051E00D077E7FB6845
:105A8000226C02936B461B78FF210193039B3B4DD5
:105A900053730F23D372009BAC460B40013BF2398A
:105AA0004B43010010739076D076604503D0029D81
:105AB0005800405B0133324D4D5D55192E00287062
:105AC000050A7570002800D12C4801310D29ECD150
:105AD000604504D002995B005B5A002B03D1402340
