:020000041000EA
:1000000000B5324B212058609868022188439860DF
:10001000D860186158612E4B002199600221596106
:100020000121F02299502B49196001219960352056
:1000300000F044F80222904214D00621196600F024
:1000400034F8196E01211966002018661A6600F04E
:100050002CF8196E196E196E052000F02FF8012189
:100060000842F9D1002199601B49196000215960AB
:100070001A491B48016001219960EB211966A021F2
:10008000196600F012F800219960164914480160C1
:100090000121996001BC002800D000471248134993
:1000A000086003C880F30888084703B5996A0420EC
:1000B0000142FBD001200142F8D103BD02B5186610
:1000C0001866FFF7F2FF186E186E02BD00000240BE
:1000D000000000180000070000035F00212200005C
:1000E000F4000018222000A00001001008ED00E03C
:1000F00000000000000000000000000074B24E7A12
:1001000000200420F7010010CB010010CD010010E9
:10011000C9010010C9010010C9010010C901001077
:10012000C9010010C9010010C9010010CF01001061
:10013000C9010010C9010010D1010010D301001045
:10014000C1010010C1010010C1010010C101001067
:10015000C1010010C1010010C1010010C101001057
:10016000C1010010C1010010C1010010C101001047
:10017000C1010010C1010010C1010010C101001037
:10018000C1010010C1010010C1010010C101001027
:10019000C1010010C1010010C1010010C101001017
:1001A000C1010010C1010010C1010010C101001007
:1001B000C1010010C1010010C1010010C1010010F7
:1001C000EFF30580103800BE00BE00BE00BE00BECA
:1001D00000BE00BEF2EB8871309E01104C9E0110F3
:1001E0003802001090A31AE71E481F49086006C88D
:1001F00081F3088810471D480068002801D019487D
:10020000F3E70DA40ECC002902D000F012F8F9E7B4
:100210001749184A002000E001C19142FCD116495B
:100220008847164988471649884700BEFDE701C937
:1002300001C29A42FBD370474C9E0110D0000020AF
:10024000A82B002024C90110000004200000042075
:1002500024C9011000100420001004200000000038
:10026000704700000000000008ED00E0000000D032
:10027000A82B0020083E0020956D0010910A001068
:10028000396D0010F8B5C04610B5064C2378002B28
:1002900007D1054B002B02D0044800E000BF01232A
:1002A000237010BD382D0020000000005474011090
:1002B000044B10B5002B03D00349044800E000BFF5
:1002C00010BDC046000000003C2D002054740110F9
:1002D00080B582B000AF7860D0231B067A685A617F
:1002E000C046BD4602B080BD80B582B000AF786028
:1002F000D0231B067A689A61C046BD4602B080BD15
:1003000080B584B000AF78600A00FB1C1A7001222F
:100310007B689A401300FB60FB1C1B78002B04D009
:10032000FB681800FFF7D4FF03E0FB681800FFF735
:10033000DBFFC046BD4604B080BD000080B58CB078
:1003400004AFF860B9607A601A00BB1C1A80BB1C4D
:100350001B881B0A9AB21723FB181A701623FB1866
:10036000BA1C12881A707A68B968F868EF23029389
:10037000EF23019300230093002300F081FE7B68AC
:1003800001211800FFF7BCFFBB6800211800FFF730
:10039000B7FF0023FB6111E0FB690122134003D08A
:1003A0001623FB181B7802E01723FB181B78124951
:1003B000FA698A181370FB690133FB61FA69F0234B
:1003C0005B009A42E8DB0023BB6109E0F0235A009E
:1003D0000949FB68180016F0CBFFBB690133BB610C
:1003E000BB69EF2BF2DDBB6801211800FFF788FF26
:1003F000C046BD4608B080BDF039002080B582B04F
:1004000000AF0200BB1D1A8001210520FFF778FF15
:10041000BB1D1B88074810221421FFF78FFFBB1D4F
:100420001B88054811221521FFF788FFC046BD46ED
:1004300002B080BD00C0034000000440F0B5C24CD3
:10044000A54404AF78607A68C04B1100180006F02C
:10045000DBFF01210520FFF753FF01211420FFF7E7
:100460004FFF01211520FFF74BFFB94ABE187968ED
:10047000C6239B00FB180122180011F0F5FC0300B5
:100480003370B34ABB181B78002B08D0BB181A78FE
:10049000B04B1100180006F0B7FF0023D2E2AC4BBE
:1004A000FE18B7229200BB18B82189007918C6201F
:1004B00080003818362212F093F803003370A44BF2
:1004C000FB181B78002B05D1B7229200BB181B68C4
:1004D000352B0BD8A04B180006F050FFC6239B000D
:1004E000FB18180012F07DFB0023ABE29B4BB722F8
:1004F000D2009B18DB191B78422B05D1974B9B1818
:10050000DB195B784D2B0BD0954B180006F036FFAE
:10051000C6239B00FB18180012F063FB002391E236
:100520008E4BB720C0001B18DB199B7F1A008B4B2A
:100530001B18DB19DB7F1B021A43884B1B18DB19C6
:1005400020215B5C1B041A43844B1B18DB192121FF
:100550005B5C1B061343834AB9180B60BB181B680E
:10056000002B0BD0804B180006F008FFC6239B0021
:10057000FB18180012F035FB002363E2774BB7211C
:10058000C9005B18DB199B7A1A00744B5B18DB19E6
:10059000DB7A1B021A43714B5B18DB191B7B1B04B4
:1005A0001A436E4B5B18DB195B7B1B061343B422AB
:1005B000D200BA181360694B5B18DB199B7C1A00D8
:1005C000664B5B18DB19DB7C1B021A43634B5B1821
:1005D000DB191B7D1B041A43604B5B18DB195B7D29
:1005E0001B06134361483A1813605C4B5B18DB1918
:1005F0009B7D1A00594B5B18DB19DB7D1B021A43EC
:10060000564B5B18DB191B7E1B041A43534B5B18BC
:10061000DB195B7E1B061343554ABE1833604F4BF4
:100620005B18DB191B7F1AB24C4B5B18DB195B7F25
:100630001B021BB213431AB24E4EBB191A80BB19D0
:100640001B884B4ABA181268391809684A4806F0DC
:10065000DBFEBB191B88182B0BD0484B180006F08B
:100660008DFEC6239B00FB18180012F0BAFA002377
:10067000E8E143483B183E497A181268D20F1A70D5
:100680003B181B78002B04D07B181B685B427A1840
:100690001360364BFB181B68F02B00DDF023394A42
:1006A000BA181360324BFB181B68F02B00DDF023E7
:1006B000B222D200BA1813602C4BFB181B685A1CCC
:1006C00013005B009B18032293432F4ABA18136050
:1006D0002C4BFB181B68F022D31A00D501335B109A
:1006E000B122D200BA181360B223DB00FB181B68DA
:1006F000F022D31A00D501335B10244AB9180B60DD
:10070000B121C90079180E68B221C90079180A68A8
:100710001C49791809681E481C4BFB181B6800937C
:10072000330006F071FE0023B622D200BA1813601F
:1007300072E1134BFB181B78002B2BD0B623DB0088
:10074000FB181B682FE0C04634FAFFFF58740110F5
:10075000AB050000647401107474011028FDFFFFE4
:1007600080740110A4050000887401109C0500002D
:10077000B40500009A05000094740110A8740110DB
:1007800099050000940500008C0500008405000018
:10079000B4740110AE4BFB181B685A1EB623DB0065
:1007A000FB181B68D31AB026F600BA191360012192
:1007B0000520FFF7A5FD01211420FFF7A1FD012170
:1007C0001520FFF79DFDBB191B68A24EBA191268D0
:1007D0005A43B423DB00FB181B68D3181C0000230A
:1007E0001D00C6239B00F91822002B00080012F000
:1007F0002CFABA19126898497E18B7239B00FB1887
:100800000C203918C6208000381811F0E9FE0300CA
:10081000337091497B181B78002B00D007E1B72378
:100820009B00FB181B681A008A4EBB191B68934279
:1008300000D0FCE00023894ABA1813605EE08748C4
:100840003B181A6813005B009A18854BFB18854902
:10085000B726F6008919C9198A5C1A703A18126805
:1008600013005B009B185A1C7F497B187D4989192E
:10087000C9198A5C1A703A18126813005B009B1839
:100880009A1C7A4BFB1877498E19F1198A5C1A70F9
:10089000764ABB181B781B021BB2DB0ADB021AB2BA
:1008A00071497B181B78DB0019B2FC23DB000B407D
:1008B0001BB213431AB26A4BFB181B78DB08DBB27E
:1008C0001BB213431AB26A4EBB191A80BB191B889C
:1008D0001B0A9AB23B181B685B00D1B2654AD1541F
:1008E0003B181B685B000133BA191288D1B2614A08
:1008F000D1543B181B6801333A181360574BFB184F
:100900001A685D4BF9180B689A4298DB01210520A3
:10091000FFF7F6FCB122D200B918096857483E1813
:100920003268B620C0003E183368D3181E00B122CA
:10093000D200BA181268504BFB181B68D318013B41
:100940009C464E4BFA18126838180368D3184C4866
:1009500002936246019200960B001022142100F0CF
:100960008FFBB122D200B9180968444EBE19326813
:10097000B620C0003E183368D31850331E00B12291
:10098000D200BA1812683C4BFB181B68D318013B05
:100990009C463A4ABA1812683B181B68D318503361
:1009A000384802936246019200960B0011221521ED
:1009B00000F066FB01211020FFF7A2FC01211120AD
:1009C000FFF79EFC00211420FFF79AFC0021152060
:1009D000FFF796FC284EBB191B685B001A00254BDD
:1009E0002748190016F0C4FCBB191B685B001A00ED
:1009F000204B2448190016F0BBFC01211420FFF7FE
:100A00007FFC01211520FFF77BFCB620C0003B18BE
:100A10001B6801333A181360B623DB00FB181A6811
:100A2000B223DB00FB181B689A4200DA81E6C6237A
:100A30009B00FB18180012F0D4F8134B180006F0B6
:100A40009DFC01231800BD46104B9D44F0BDC046DF
:100A5000B40500008C050000AB050000AC050000EB
:100A60007F05000054FAFFFF7E0500007D050000B1
:100A70007A050000F039002094050000840500008C
:100A800000C0034000000440D0740110BC05000009
:100A900090B583B000AF06F058FCFA23DB001800D5
:100AA00002F095FD384B180006F068FC00F077F96D
:100AB000364B180006F062FC00F082F900F082FA72
:100AC000334B180006F05AFCFC23DB001800FFF73C
:100AD00095FC304B180006F051FCFA235B0018001F
:100AE00002F075FD15F082FB002000F029FB0300E9
:100AF0007B607B68002B09D1274B180006F03EFC79
:100B0000FA239B00180002F062FDF9E77B68383396
:100B100018007B681B68FC1C0122190011F052F9B7
:100B200003002370FB1C1B78002B0CD0FB1C1A78D5
:100B30001A4B1100180006F067FCFA239B001800FE
:100B400002F045FDF9E7164B180006F017FC154BAF
:100B50001800FFF773FC03001A0001235340DBB2B7
:100B6000002B06D0104B180006F008FC1F20FFF7E2
:100B700045FC0E4B180006F001FCFA239B00180000
:100B800002F025FDF9E7C046DC740110F87401108D
:100B900000750110087501101475011024750110FD
:100BA00038750110407501104C7501105875011011
:100BB00080B582B000AF78607B68054A9446634494
:100BC0005A425341DBB21800BD4602B080BDC04658
:100BD0000000FCBF80B582B000AF78607B68180071
:100BE000FFF7E6FF7B681800BD4602B080BD80B508
:100BF0008EB000AFF860B9601900FB1D1A70BB1D04
:100C00000A1C1A70FB681800FFF7E4FF03005B681A
:100C1000022213407B63FB681800FFF7DBFF030031
:100C200004337B6102233B617B69C02292019446BD
:100C300063443A691A60C046FB681800FFF7CAFFB0
:100C400003001900BB685A1EFB1D1B789B011A4349
:100C5000BB1D1B78DB011343B9627B62CF233B6270
:100C6000BB6A1A687B6A53403A6A1340BA6AFA61EF
:100C7000BB61FB698022520194466344BA691A60E1
:100C8000C046C046FB681800FFF7A4FF030004330A
:100C90003B637B6BFB623B6B802292019446634417
:100CA000FA6A1A60C046C046BD460EB080BD80B527
:100CB00082B000AF78607B6800220121180000F04C
:100CC00021FBC046BD4602B080BD80B582B000AFFA
:100CD0007860D0231B067A685A61C046BD4602B0D0
:100CE00080BD80B582B000AF7860D0231B067A68E3
:100CF0009A61C046BD4602B080BD80B584B000AFE9
:100D000078600A00FB1C1A7001227B689A4013006D
:100D1000FB60FB1C1B78002B04D0FB681800FFF75E
:100D2000D4FF03E0FB681800FFF7DBFFC046BD46B9
:100D300004B080BD80B582B000AF7860D0231B06C0
:100D40007A685A62C046BD4602B080BD80B582B0A6
:100D500000AF7860D0231B067A689A62C046BD4611
:100D600002B080BD80B584B000AF78600A00FB1C83
:100D70001A7001227B689A401300FB60FB1C1B78F1
:100D8000002B04D0FB681800FFF7D4FF03E0FB68DA
:100D90001800FFF7DBFFC046BD4604B080BD80B53C
:100DA00000AF162000F01CFB01211620FFF7DAFF30
:100DB00001211620FFF7A1FFC046BD4680BD0000FF
:100DC00080B582B002AF494A494B110018000CF0BF
:100DD0004DF9474801230093002300220821FFF723
:100DE00006FF0121062000F055FA0121072000F03E
:100DF00051FA0121042000F04DFA0420FFF757FFBB
:100E00003C4A3D4B110018000CF030F93A480123E0
:100E10000093002300220821FFF7E9FE01210A20A8
:100E200000F038FA01210B2000F034FA142000F011
:100E3000D7FA01211420FFF795FF01211420FFF7B5
:100E40005CFF102000F0CCFA01211020FFF78AFF90
:100E5000122000F0C5FA01211220FFF783FF0121C3
:100E60001220FFF74AFF152000F0BAFA01211520E1
:100E7000FFF778FF01211520FFF73FFF112000F059
:100E8000AFFA01211120FFF76DFF132000F0A8FA3F
:100E900001211320FFF766FF01211320FFF72DFF2B
:100EA000052000F09DFA01210520FFF75BFF0121DD
:100EB0000520FFF722FF114B0D4A1A600F4B142239
:100EC0005A600E4B10229A600C4B1222DA600C4BC7
:100ED000094A1A600A4B15225A60094B11229A607E
:100EE000074B1322DA60C046BD4680BD00093D00B5
:100EF00000C00340002D310100000440A83900204B
:100F0000E039002090B587B000AF78600A00FB1C84
:100F10001A707B681B687B617B685B683B617B68E0
:100F20009B68FB607B68DB68BB60BB6800211800C6
:100F3000FFF7E3FE0F2002F04AFBBB680121180017
:100F4000FFF7DBFE782002F042FBFB683A69786924
:100F5000112100F04FF8782002F039FBFB683A6964
:100F600078693A2100F046F8FB683A6978695521BA
:100F700000F063F8FB683A697869362100F03AF8C6
:100F8000FC683A69FB1C19787869230000F055F871
:100F9000FB683A697869212100F02CF8FB683A690E
:100FA0007869132100F026F8FB683A6978692921ED
:100FB00000F020F8322002F00AFBC046BD4607B020
:100FC00090BD000080B500AF01210520FFF795FE20
:100FD000064B40211800FFF795FF054B80211800B4
:100FE000FFF790FFC046BD4680BDC046A83900202F
:100FF000E039002090B585B000AFF8607A603B60C2
:101000000B243B190A1C1A703B6800211800FFF7DB
:1010100074FE7B6800211800FFF76FFE3919FB682A
:101020000122180016F0A4F97B6801211800FFF7CF
:1010300064FEC046BD4605B090BD90B585B000AF1A
:10104000F8607A603B600B243B190A1C1A703B68FD
:1010500001211800FFF751FE7B6800211800FFF7FF
:101060004CFE3919FB680122180016F081F97B68E3
:1010700001211800FFF741FEC046BD4605B090BDF6
:1010800080B584B000AFF860B9607A603B607B687F
:10109000BA68F8682A21FFF7ADFF3B681B0AD9B28E
:1010A0007B68BA68F868FFF7C8FF3B68D9B27B680D
:1010B000BA68F868FFF7C1FFFB691B0AD9B27B6801
:1010C000BA68F868FFF7B9FFFB69D9B27B68BA68FC
:1010D000F868FFF7B2FF7B68BA68F8682B21FFF762
:1010E00089FFBB691B0AD9B27B68BA68F868FFF749
:1010F000A4FFBB69D9B27B68BA68F868FFF79DFFA7
:101100003B6A1B0AD9B27B68BA68F868FFF795FF9B
:101110003B6AD9B27B68BA68F868FFF78EFF7B68D4
:10112000BA68F8682C21FFF765FFC046BD4604B0D9
:1011300080BD80B500AF01231800BD4680BD000012
:1011400080B582B000AF7860FFF7F3FF02007B68E4
:10115000934206D27B68AE2292005A43034BD318C7
:1011600000E000231800BD4602B080BDD01F002063
:1011700080B500AF01231800BD4680BD80B582B0A8
:1011800000AF7860FFF7F4FF02007B68934207D25C
:101190007A6813001B019B189B00044A9B1800E00F
:1011A00000231800BD4602B080BDC046881F002045
:1011B00080B582B000AF7860C046BD4602B080BD49
:1011C00080B582B000AF7860D0231B067A685A6180
:1011D000C046BD4602B080BD80B582B000AF786029
:1011E000D0231B067A689A61C046BD4602B080BD16
:1011F00080B584B000AF78600A00FB1C1A70012231
:101200007B689A401300FB60FB1C1B78002B04D00A
:10121000FB681800FFF7D4FF03E0FB681800FFF736
:10122000DBFFC046BD4604B080BD80B582B000AFD4
:101230007860D0231B067A685A62C046BD4602B069
:1012400080BD80B582B000AF7860D0231B067A687D
:101250009A62C046BD4602B080BD80B584B000AF82
:1012600078600A00FB1C1A7001227B689A40130008
:10127000FB60FB1C1B78002B04D0FB681800FFF7F9
:10128000D4FF03E0FB681800FFF7DBFFC046BD4654
:1012900004B080BD80B588B000AF78600A00FB1C48
:1012A0001A707B681800FFF783FF7B689B00134A66
:1012B00094466344FB614023BB61C0237B61FB69AF
:1012C0001A68BB6953407A691340FA693A61FB6056
:1012D0003B698022520194466344FA681A60C04612
:1012E000C0460749FB1C1A787B68DB00CB18043327
:1012F0001A60C046BD4608B080BDC04604C001406B
:101300000040014080B588B000AF7860080011004F
:10131000FB1C021C1A70BB1C0A1C1A707B6818008C
:10132000FFF746FF7B689B00154A9918FB1C1B784A
:10133000002B01D0082200E00022BB1C1B78002BF0
:1013400001D0042300E000231343F961BB610C23A7
:101350007B61FB691A68BB6953407A691340FA697B
:101360003A61FB603B698022520194466344FA680B
:101370001A60C046C046C046BD4608B080BDC046E3
:1013800004C0014080B588B000AF78600A00FB1C43
:101390001A707B681800FFF70BFF7B689B000F4AF1
:1013A0009A18FB1C1B781B01FA61BB6130237B611F
:1013B000FB691A68BB6953407A691340FA693A615C
:1013C000FB603B698022520194466344FA681A60CC
:1013D000C046C046C046BD4608B080BD04C00140FE
:1013E00080B582B000AF78607B6800211800FFF7FD
:1013F00034FF7B6800211800FFF7FAFE7B680521A7
:101400001800FFF747FFC046BD4602B080BD000090
:1014100080B584B000AF8023DB051B68FB60FB68F0
:101420001B051B0DBB60FB681B0B1B041B0C7B60AF
:10143000BB680D4A934205D00C4B0D4A0D48132151
:1014400005F082FC7B68022B05D00B4B084A09484B
:10145000142105F079FCFB681B0F3B603B68DBB295
:101460001800BD4604B080BD270900006875011052
:10147000E07501108C750110CC7501100FB480B5AA
:1014800082B000AF0B4B180005F078FF3B69002BD2
:101490000CD01423FB187B607A683B69110018009C
:1014A00005F084FF044B180005F068FF012005F0EB
:1014B000C5FBC046047601101476011080B586B0D5
:1014C00000AF0B237B607B680F4A944663449B000C
:1014D0007B61EFF3108372B63B613B69FB607B6914
:1014E000BB6000E0C046BB681B685A425341DBB298
:1014F000002BF7D1BFF35F8FC046C046C046FB68E4
:101500001800BD4606B080BD4000003480B588B0EC
:1015100000AF78600B23FB60FB680E4A944663447F
:101520009B00FB617B68BB61FB697B61BFF35F8FE5
:10153000C046C0467B6900221A60C046BB693B6159
:101540003B6983F31088C046C046C046BD4608B01C
:1015500080BDC0464000003480B582B000AF7860E6
:1015600039603B68DB087A68D3181B7819003B6840
:101570000722134001229A4013000B405A1E934148
:10158000DBB21800BD4602B080BD80B586B000AFAA
:10159000F860B9607A60FFF791FF03007B61BA6879
:1015A000FB6811001800FFF7D7FF031E05D0BA68CB
:1015B0007B6811001800FFF761FFBB68DB08FA6861
:1015C000D3181978BB680722134001229A401300F0
:1015D000DAB2BB68DB08F868C3180A43D2B21A70E3
:1015E0007B691800FFF792FFC046BD4606B080BD7C
:1015F00080B588B000AFF8607A603B600B23FB18C1
:101600000A1C1A70FFF75AFF03007B6101235B423B
:10161000FB617B68BB6125E0BA69FB6811001800BB
:10162000FFF79AFF03001A0001235340DBB2002B9F
:1016300015D0BB69DB08FA68D3181978BB69072293
:10164000134001229A401300DAB2BB69DB08F86844
:10165000C3180A43D2B21A70BB69FB6106E0BB69CA
:101660000133BB61BA693B689A42D5D97B691800DE
:10167000FFF74CFFFB69002B08DA0B23FB181B78E4
:10168000002B03D0BB6A1800FFF7F8FEFB691800B7
:10169000BD4608B080BD000080B582B000AF094BE8
:1016A0001B785A1CD1B2074A11707B60054B1B781E
:1016B000172B02D9034B10221A707B681800BD4605
:1016C00002B080BD8822002080B584B002AF020045
:1016D000FB1D1A70FB1D19780548064B00931F234C
:1016E0001822FFF785FF03001800BD4602B080BD39
:1016F0003C3500203876011080B584B000AF00235F
:10170000FB6012E0FB687B607B680C4A9446634494
:101710009B00BB60BFF35F8FC046C046BB68002222
:101720001A60C046FB680133FB60FB681F2BE9D9D8
:10173000C046C046BD4604B080BDC046400000342F
:1017400080B582B000AF7860C046BD4602B080BDB3
:1017500080B500AF014B1800BD4680BD053E00209E
:1017600080B500AF024B9B681800BD4680BDC046E7
:1017700000ED00E080B582B000AF78607B680122A8
:1017800013431800BD4602B080BD80B582B000AFE3
:1017900078607B68012293431800BD4602B080BD8B
:1017A00080B582B000AF78600A00FB1C1A707B68BD
:1017B0001800FFF7C5FF7B6858097B681F2213409C
:1017C00001229A401100FB1C1B781A0000F03AF825
:1017D000C046BD4602B080BD80B582B000AF786023
:1017E0007B681800FFF7ACFF01227B689A40054B2D
:1017F0001B6813405A1E9341DBB21800BD4602B06D
:1018000080BDC04600E100E080B584B000AFF86064
:10181000B960FB1D1A70FB1D1B78002B08D008490E
:10182000C0235B00BA68CA50054BBA681A6003E06F
:1018300003498022BB688B50C046BD4604B080BDC2
:1018400000E100E080B584B000AFF860B960FB1D36
:101850001A70FB1D1A78B968FB681800FFF7D4FFEF
:10186000C046BD4604B080BD80B582B000AF786090
:101870007B681800FFF764FF044B01217A689140F0
:101880000A001A60C046BD4602B080BD00E200E01A
:1018900080B582B000AF78607A68054BD21A2F21EC
:1018A000002391425B41DBB21800BD4602B080BD0F
:1018B0008C22002080B584B000AF78607B6818006F
:1018C000FFF73EFF7B68180000F040F80300FB6064
:1018D000FB681800FFF7DCFF03001800BD4604B0EA
:1018E00080BD000080B58AB000AFF860B9607A6052
:1018F000FFF736FF0200FB6810339B00D318BA686D
:101900001A60BFF35F8FC04609237B617B690E4A73
:10191000944663449B007B627B683B627B6AFB610D
:10192000BFF35F8FC046C046FB6900221A60C04605
:101930003B6ABB61BB6983F31088C046C046C046A2
:10194000BD460AB080BDC0464000003480B582B0BC
:1019500000AF78607B681800FFF7F2FEFFF700FF2A
:1019600002007B6810339B00D3181B681800BD462B
:1019700002B080BD80B58AB000AF786039607B6806
:101980001800FFF7DDFE0923BB60BB681E4A9446C2
:1019900063449B007B627B6ABB61EFF3108372B68A
:1019A0007B617B693B61BB69FB6000E0C046FB6813
:1019B0001B685A425341DBB2002BF7D1BFF35F8F54
:1019C000C046C046C0463B693B627B681800FFF7D3
:1019D000BDFF0300FB61FA690C4B9A4209D0FA691A
:1019E0003B689A4205D00A4B0A4A0B48ED2105F0A4
:1019F000ABF93A6A39687B681800FFF773FFC04695
:101A0000BD460AB080BDC04640000034C101001090
:101A100054760110A47801108C76011080B586B040
:101A200000AF786039607B687B613B683B613A69F5
:101A30007B69D31A043BFB60FB68104A934207DBC7
:101A4000FB680F4A934203DCFB680122134006D077
:101A50000C4B0D4A872149000C4805F075F9FB68CD
:101A60005B101BB25B055B0D1BB2094A13431BB233
:101A70009BB21800BD4606B080BDC04600F8FFFF0F
:101A8000FE070000C8760110C07801108C760110A6
:101A900000E0FFFF80B584B000AF78607B681B88F2
:101AA000DB0A9BB21C2B06D00D4B0E4A8E2149003F
:101AB0000D4805F049F97B681B885B05FB60FB68F6
:101AC000002B02DA094A944663445B15FB60FB680D
:101AD00002335B007A68D3181800BD4604B080BD9D
:101AE00008770110E47801108C760110FFFF1F00C9
:101AF00080B584B000AF78603960084BFB6039680E
:101B0000FA687B685B1A5B415A43120DFA607B608E
:101B1000FB685BB21800BD4604B080BDAAAA0000F5
:101B200080B582B000AF7860054A7B68110018006C
:101B3000FFF7DEFF03001800BD4602B080BDC046BF
:101B40008C22002090B59BB000AFF860B960FB1DFF
:101B50001A70FB681800FFF7F3FD09237B637B6BAA
:101B6000A44A944663449B00BB65BB6D7B64EFF362
:101B7000108372B63B643B6CFB637B6CBB6300E021
:101B8000C046BB6B1B685A425341DBB2002BF7D1F6
:101B9000BFF35F8FC046C046C046FB6B7B65964B6C
:101BA0001B785BB2002B06DA944B954ABE214900A4
:101BB000944805F0C9F8904B1B785BB21A001300EB
:101BC0005B009B189B00904A9B183B654F23FB18BA
:101BD000894A12781A703B6D06229A56864B1A7003
:101BE000FFF7BEFD0200FB6810339B00D3181B6893
:101BF0007B667B6E1800FFF74BFE03001A00012383
:101C00005340DBB2002B32D07A6E804B9A4206D022
:101C10007F4B7B4A8421FF317A4805F095F82824D0
:101C20003B197C4A1A803B6D02337B4A1100180035
:101C3000FFF7F4FE03001A003B195A80774A21008F
:101C40007B189A807B18FF229A717B18FA1D1278F4
:101C5000DA717B18BA689A603B6D7A1813CA13C39D
:101C60003B6D1800FFF786FD03007B66B7E07B6ED7
:101C70001800FFF78AFD03001A00634BD31A0C21EA
:101C8000180002F009FC0B1E06D0654B5C4ACA2105
:101C900049005C4805F058F800233B667B6E18004D
:101CA000FFF773FD0300BB64BB6CFB6511E0FB6DCC
:101CB0003B66FB6D9B795BB2002B11DBFB6D9B7967
:101CC0005BB21A0013005B009B189B004E4A9B18E6
:101CD000FB65FB6DDB79FA1D12789A42E7D300E0D1
:101CE000C0463B6E002B40D01C217B184D4A1A8009
:101CF0007B188F22D2015A803B6E9B795BB2002BFE
:101D00000EDB3B6D1C1D3B6E04331800FFF7C2FE5B
:101D1000030019002000FFF781FE03001A0000E015
:101D20003E4A1C243B199A803B6E06229A563B1968
:101D30009A713B19FA1D1278DA713B19BA689A60E8
:101D40003B6E04333A6D11001800FFF767FE030085
:101D50001A003B6E9A803B6E4F22BA1812789A7125
:101D60003B6D3A1913CA13C339E010243B19294AB1
:101D70001A803B6D0233284A11001800FFF74EFE0F
:101D800003001A003B195A803B6D0433BA6C1100F2
:101D90001800FFF743FE03001A003B199A80BB6C42
:101DA0001800FFF7BDFE03001A003B199A713B199A
:101DB000FA1D1278DA713B19BA689A603B6D3A19CC
:101DC00013CA13C3BB6C174A1A80BB6C8F22D20193
:101DD0005A803B6D1800FFF7CDFC03007B667A6DDF
:101DE000796EFB681800FFF77DFDC046BD461BB04D
:101DF00090BDC04640000034013E00202077011015
:101E0000CC7801108C7601108C220020C1010010CA
:101E10004877011000A1FFFFBC22002001BD000097
:101E2000707701100148000080B500AF014B180029
:101E3000BD4680BD00E400E090B595B000AF78608D
:101E40007B681800FFF796FC03007B647B6C18002E
:101E5000FFF71EFD031E05D15A4B5B4A5B495C48E8
:101E600004F072FFEFF305833B633B6B3B643B6C19
:101E7000002B05D1574B544A5749554804F064FF8D
:101E80000923FB61FB69554A944663449B00FB634D
:101E9000FB6BFB62EFF3108372B6BB62BB6A7B62C3
:101EA000FB6A3B6200E0C0463B6A1B685A425341F2
:101EB000DBB2002BF7D1BFF35F8FC046C046C046F0
:101EC0007B6ABB633723FC187B681800FFF728FE8A
:101ED00003002370FFF744FC02003B6C9B00D31807
:101EE0001B687A6C9A4208D1FFF73AFC02003B6CFF
:101EF0009B00D3183A4A1A6041E04F23FB18002296
:101F00001A700023BB642CE03649BA6C13005B00E6
:101F10009B189B00CB1806331B785BB23722BA188C
:101F2000127852B29A4219D12E49BA6C13005B0052
:101F30009B189B00CB180633FF221A702A482949A8
:101F4000BA6C13005B009B189B00CB180433021C77
:101F50001A804F23FB1801221A7005E0BB6C013375
:101F6000BB64BB6C032BCFD94F23FB181B78002B12
:101F700005D11E4B144A1E49154804F0E5FE1D4BC1
:101F800000229A567B689A711A4B3722BA18127837
:101F90001A70FB6BBB61BB6B7B61BB693B61BFF3C1
:101FA0005F8FC046C0463B6900221A60C0467B690D
:101FB000FB60FB6883F31088C046C046C046BD4640
:101FC00015B090BD30780110F47801107F02000048
:101FD0008C76011058780110820200004000003415
:101FE000C10100108C22002001BD000064780110A6
:101FF00093020000013E002080B584B000AF0C4B7E
:102000007B60FFF711FF0300FB600023BB6007E06C
:10201000FB681A1DFA607A681A60BB680133BB60FE
:10202000BB68072BF4D9C046C046BD4604B080BD8E
:102030008080808080B586B002AF0200FB1D1A70E0
:10204000FFF786FBFB1D1978094B0093052300223F
:10205000FFF7CEFA0300FB60FB68002B03DBFB6895
:102060001F22D31AFB60FB681800BD4604B080BD78
:102070008878011080B582B000AF386079603A6826
:102080007B6810001900BD4602B080BD80B584B0E9
:1020900000AFF8603A607B60F9683A687B680A6074
:1020A0004B60C046BD4604B080BD80B582B000AF75
:1020B00001F0FEFB02000B0039000800FFF7E6FF0D
:1020C0003A687B6810001900BD4602B080BD000070
:1020D000B0B58AB000AFB860F9607A60BA68FB68E2
:1020E00010001900FFF7C6FF02000B00BA61FB6188
:1020F0007B681C0000231D00FA22920000232000B0
:10210000290003F031F802000B0010001900BA6931
:10211000FB6912184B413A627B623A6A7B6A002B78
:1021200004DA01225242084B3A627B623A6A7B6AC5
:10213000102179180800FFF7A9FF3A697B691000A0
:102140001900BD460AB0B0BDFFFFFF7F80B582B069
:1021500000AF7860FFF7A9FF7B681A00FFF7B8FFB0
:1021600002000B0010001900BD4602B080BD90B502
:1021700083B000AF786008001100BB1C021C1A80FD
:102180003B000A1C1A807C68FFF786FA03001900DE
:10219000200000F011F87B68BA1C12889A807B68D6
:1021A0003A001288DA80BFF35F8FC046C046C0464F
:1021B000BD4603B090BD000080B584B000AF78602C
:1021C00039603B68FB60FB68054A944663449B00AA
:1021D0001A007B681A60C046BD4604B080BDC04688
:1021E0004000003480B582B000AF386079603A6852
:1021F0007B6810001900BD4602B080BD80B584B078
:1022000000AFF8603A607B60F9683A687B680A6002
:102210004B60C046BD4604B080BD80B582B000AF03
:1022200001F046FB02000B0039000800FFF7E6FF53
:102230003A687B6810001900BD4602B080BD0000FE
:10224000B0B58AB000AFB860F9607A60BA68FB6870
:1022500010001900FFF7C6FF02000B00BA61FB6116
:102260007B681C0000231D00FA229200002320003E
:10227000290002F079FF02000B0010001900BA6972
:10228000FB6912184B413A627B623A6A7B6A002B07
:1022900004DA01225242084B3A627B623A6A7B6A54
:1022A000102179180800FFF7A9FF3A697B6910002F
:1022B0001900BD460AB0B0BDFFFFFF7F80B582B0F8
:1022C00000AF7860FFF7A9FF7B681A00FFF7B8FF3F
:1022D00002000B0010001900BD4602B080BD0000D6
:1022E00080B584B000AF164BFB6020E0FB681B6834
:1022F000002B13D0FB681B68012B05D0114B124A31
:1023000012481A2104F020FDFB687B607B681800EE
:1023100000F037F87B680833FB6008E0FB68BB60BF
:10232000BB68180000F016F8BB680833FB60FA6859
:10233000074B9A42DAD3C046C046BD4604B080BDC2
:10234000902B0020807901102C7A0110A0790110C7
:10235000A82B002090B583B000AF78607C68FFF7B1
:102360009BF9030019002000FFF726FF7B68FF227E
:102370001A71BFF35F8FC046C046C046BD4603B06A
:1023800090BD90B583B000AF78607C68FFF784F9AA
:10239000030019002000FFF70FFF7B68FF221A716E
:1023A0007B6800225A71BFF35F8FC046C046C046AB
:1023B000BD4603B090BD80B582B000AF786001200B
:1023C000FFF782F903001A007B681100180000F083
:1023D00005F8C046BD4602B080BD000080B584B09F
:1023E00000AF786039603B68FB60FB68074A944641
:1023F00063449B001A007B681A60BFF35F8FC0467E
:10240000C046C046BD4604B080BDC0464000003452
:1024100080B582B000AF386079603A687B681000A0
:102420001900BD4602B080BD80B584B000AFF86031
:102430003A607B60F9683A687B680A604B60C04626
:10244000BD4604B080BD80B582B000AF7860C046A4
:10245000BD4602B080BD80B582B000AF78607B68B9
:102460009B6A1800BD4602B080BDB0B588B000AF11
:10247000F8603A607B603A687B6810001900FFF7EB
:10248000C7FF02000B00BA61FB61FB691C0000235F
:102490001D0023007B61FB685B6A3B613A697B69D5
:1024A0009A420AD3FB689A6ABB699A4203D23A6994
:1024B0007B699A4201D0012300E000231A1C01230A
:1024C0001340DBB21800BD4608B0B0BD80B582B085
:1024D00000AF386079603A687B6804490800FFF70C
:1024E000C4FF03001800BD4602B080BD0040054097
:1024F00080B582B000AF786039603B681800FFF7A4
:10250000A2FF3B681800BD4602B080BD80B582B016
:1025100000AF786000231800BD4602B080BD000007
:1025200080B582B000AF7860024B1800BD4602B0A3
:1025300080BDC0460040054080B582B000AF01F0CC
:10254000B7F902000B0039000800FFF76DFF3A6889
:102550007B6810001900BD4602B080BD80B58AB00E
:1025600000AFB860F9603A607B60BA68FB68100041
:102570001900FFF74DFF02000B00BA61FB61B8695B
:10258000F9693A687B6812184B413A627B623A6A91
:102590007B6A002B04DA01225242084B3A627B62CA
:1025A0003A6A7B6A102179180800FFF73DFF3A6903
:1025B0007B6910001900BD460AB080BDFFFFFF7F98
:1025C00080B582B000AF38607960FFF7B5FF3A6838
:1025D0007B68FFF7C3FF02000B0010001900BD4627
:1025E00002B080BDB0B584B000AFB860F9603A60A9
:1025F0007B603A687B6810001900FFF709FF040050
:102600000D00BA68FB6810001900FFF701FF020017
:102610000B00A41A9D4122002B0010001900BD469A
:1026200004B0B0BD80B588B004AFB860F9607A601E
:102630003B6000F0A7F9BA68FB681821791809789F
:102640000291396801917968009100F02BFD030037
:102650001800BD4604B080BD80B582B000AF786080
:1026600000F090F902007B681900100000F01EFED7
:1026700003001800BD4602B080BD000080B500AF69
:10268000034B1B695A1E9341DBB21800BD4680BD47
:10269000D422002080B584B000AF786039607B68B8
:1026A0003C331A0001213B6899400B00FA60BB6083
:1026B000FB688022920194466344BA681A60C0465F
:1026C000C046BD4604B080BD80B584B000AF786020
:1026D00039607B683C331A0001213B6899400B004C
:1026E000FA60BB60FB68C022920194466344BA68FA
:1026F0001A60C046C046BD4604B080BD80B582B0F9
:1027000000AF7860396001223B689A407B685A6369
:10271000C046BD4602B080BD80B586B000AF7860CF
:10272000EFF30583FB60FB68103B7B617B699B08D3
:102730001800FFF7F5FE03003B617B6903221A4096
:102740007B681A603B691800BD4606B080BD80B545
:1027500088B000AFF860B9603A607B60FB68180031
:10276000FFF779FE0300FB613A68FB69D31ABB618E
:10277000FB68BA6804329200D258FB69D31A7B61B5
:10278000BA697B699A4207D3FB681B6A0121BA6860
:1027900091400A00134005D13968FB68BA680432D9
:1027A0009200D150C046BD4608B080BDB0B58AB0D9
:1027B00000AFF860B9603A607B60FB68180000F019
:1027C000DDFF02000B003A627B62386879683A6A82
:1027D0007B6A801A994102000B00BA61FB61FB68B9
:1027E000BA6804329200D2583B6AD31A7B617B6983
:1027F0001C0000231D0001231A1CFB69AB4205DBF2
:10280000FB69AB4204D1BB69A34201D200231A1C6D
:10281000D3B21800BD460AB0B0BD80B582B000AFDB
:1028200078607B68180000F0A9FF02000B00100020
:102830001900BD4602B080BD80B588B000AFF86019
:10284000B9607A60BA68FB6811001800FFF750FEA3
:102850000300FB610122BB689A40FB681A627A6838
:10286000FB6911001800FFF785F8FB6901211800CA
:10287000FEF796FFFB6838331A000121BB689940C8
:102880000B00BA617B61BB6980229201944663446C
:102890007A691A60C046C046BD4608B080BD80B5A2
:1028A00082B000AF786039603A687B681100180028
:1028B00000F046FFC046BD4602B080BD80B582B084
:1028C00000AF78607B681800FFF720FE0300180057
:1028D000BD4602B080BD000080B500AF014B1800BE
:1028E000BD4680BD0040054080B582B000AF786035
:1028F0007B681B141BB21800BD4602B080BD80B5BA
:1029000082B000AF78607B689BB21800BD4602B011
:1029100080BD80B582B000AF78600A00BB1C1A8011
:102920007B681A04BB1C1B8813431800BD4602B009
:1029300080BD000080B582B000AFFFF79FFE0300AE
:102940001A0001235340DBB2002B0ED000F0C4FE6E
:1029500003007B607B6803211800FFF7A0FF796804
:1029600006481023032200F035FB054B0A2118000E
:10297000FFF722FCC046BD4602B080BDD422002035
:10298000D43D002080B500AFFFF778FE031E05D1CF
:10299000044B054A0548652104F0D6F9044B18009C
:1029A000BD4680BD707A0110907B0110947A0110B1
:1029B000D4220020B0B5AEB000AF3B1D1800FFF729
:1029C000ABFE03009022B9180B60BB181B681800FF
:1029D000FFF774FF03008C217A1813607A68D54BD7
:1029E0007918096889008A189200D3588822B91882
:1029F0000B60BB181B681B781A007B689A4205D0D5
:102A0000CD4BCE4ACE48922104F09EF97A689023AD
:102A1000FB181B6811001800FFF756FE7A68902516
:102A20007B191B6811001800FFF768FE86217B18D0
:102A300088203A18126812891A800A00BB180021EF
:102A40005B5E002B00DA5FE13B181B685969BB181D
:102A500000229A5E13005B009B18DB00CB188024D9
:102A60003A1913603B191B689A68DB68BA67FB6701
:102A70007B191B681800FFF7D0FE02000B00100046
:102A80001900BA6FFB6F801A994102000B00002BEE
:102A900000DA39E1FB6F002B3CDB3B191B681A693C
:102AA000A84B9A4215D13B191B685B693B673B6F8A
:102AB0001B693A6F10009847031E03D03B6F1A68DA
:102AC0005B6801E000220023B02179180A604B60A6
:102AD00026E08823FB181B6808229B5E1A008024CE
:102AE0003B191B685B889BB219001000FFF711FFB0
:102AF00003007B673B191B681A693B191B685969FE
:102B00007B6F1800904702000B00B02179180A6013
:102B10004B6005E000220023B02179180A604B6069
:102B2000B0243B191B68B4217A181268134300D1F2
:102B30009FE07B181B68002B0DDAB86FF96F3B190B
:102B40001A685B68801A994102000B00A821791865
:102B50000A604B6013E09023FB181B681800FFF716
:102B60005CFE02000B0010001900B023FB181A686D
:102B70005B6812184B41A82179180A604B608024C9
:102B80003B191968A8203B181A685B688A60CB60FB
:102B90003B191B6800229B5E002B00DAB4E08825FD
:102BA0007B191B685A693B191B6800215B5E190081
:102BB0000B005B005B18DB00D3189A68DB683918E0
:102BC00008684968801A994102000B00002B00DA5E
:102BD0009AE03B191B6800229A5E7B191B681A81D8
:102BE0007B191B680833A422BA18136010E08823ED
:102BF000FB181B685A69A4203B181B6800215B5E08
:102C000019000B005B005B18DB00D3183A18136047
:102C1000A4217B181B6800229B5E002B19DB8823F4
:102C2000FB181B685A697B181B6800215B5E190042
:102C30000B005B005B18DB00D3189A68DB68A821E7
:102C4000791808684968801A994102000B00002B26
:102C5000CDDAA4217B181B6800229A5E8023FB1822
:102C60001B681A807B181B688622BA1812881A8083
:102C70004AE08023FB181B6800229A5E88217B189B
:102C80001B681A817B181B681B697B63EFF3108339
:102C900072B63B633B6BFB627B6BBB6200E0C04682
:102CA000BB6A1B685A425341DBB2002BF7D1BFF31A
:102CB0005F8FC046C046C046FB6AFB6688217B1812
:102CC0001B6802229A5E8023FB181B681A807B18FF
:102CD0001B688622BA1812885A807B181B681B69E9
:102CE0007B64FB6E3B647B6CFB63BFF35F8FC04612
:102CF000C046FB6B00221A60C0463B6CBB63BB6BDB
:102D000083F31088C046C0468822BB181B689B8886
:102D10001BB2002B00DAAFE0BB181B681B697B619C
:102D2000EFF3108372B63B613B69FB607B69BB606C
:102D30000BE0C046C8390020CC7A0110A87B0110F6
:102D4000947A0110B5290010C046BB681B685A422E
:102D50005341DBB2002BF7D1BFF35F8FC046C046B3
:102D6000C046FB68BB66A223FB1888217A1812684C
:102D700092881A807B181B68012252429A807B1825
:102D80001B681B697B62BB6E3B627B6AFB61BFF3A6
:102D90005F8FC046C046FB6900221A60C0463B6A8E
:102DA000BB61BB6983F31088C046C0465EE08820E3
:102DB0003B181B685969A223FB1800229A5E130076
:102DC0005B009B18DB00CB187B667B6E9A68DB6828
:102DD000BA65FB653B181B6808339C22BA18136060
:102DE00010E08823FB181B685A699C203B181B685D
:102DF00000215B5E19000B005B005B18DB00D31841
:102E00003A1813609C217B181B6800229B5E002BE4
:102E100017DB8823FB181B685A697B181B68002185
:102E20005B5E19000B005B005B18DB00D3189A682F
:102E3000DB68B86DF96D801A994102000B00002B18
:102E4000CFDA56217B189C203A18126812881A8013
:102E50003B181B68A2203A1812881A803B187A6E19
:102E600012881A807B6E7A1812881A80A223FB18A7
:102E700000229B5E002B9ADA8822BB181B689B7984
:102E8000DBB2002B5ED01100BB181B6800229A71C8
:102E9000C0460A00BB181B680833982179180B60DC
:102EA0009623FB18BA18126812891A8044E0882009
:102EB0003B181B68596996243B1900229A5E13003F
:102EC0005B009B18DB00CB183B654E23FB183A6D6B
:102ED00012881A803B6D5B889BB21BB2002B21DAF3
:102EE000396D01225242D3178A60CB603B181B68B0
:102EF00008229B5E3A190021525E9A4216D03B6D21
:102F000000229A5E9823FB181B681A803B181B68E6
:102F100008229A5E3B6D1A803B181B683A1912888A
:102F20001A8103E03B6D9822BA1813609623FB18B0
:102F30004E22BA1812881A809623FB1800229B5E34
:102F40000133B4D186217B1888203A18126812897F
:102F50001A800A00BB1800215B5E002B33DB3B1894
:102F60001B685969BB1800229A5E13005B009B180E
:102F7000DB00CB18BB64BB6C9A68DB68BA67FB6785
:102F8000BB6F013302D1FB6F013307D07968BA6F91
:102F9000FB6F902038180068FFF7D9FB9023FB18CF
:102FA0001B681800FFF739FC02000B001000190025
:102FB000BA6FFB6F121A8B41002B05DC00D02DE598
:102FC000002A01D12AE5C04640BFC046C046BD46E2
:102FD0002EB0B0BD80B586B000AFF860B9607A6041
:102FE0003B60FB68BA68DA60FEF756FB03003B61A2
:102FF0003B69294A944663449B001A00FB681A61A6
:103000007B68DAB2FB681A703B689AB2FB685A8137
:10301000D0231B061B68DAB2FB685A70FB680122DA
:1030200052421A81FB6808229A5EFB689A803B68CC
:103030009BB2013B9BB21AB2FB685A8000237B61B2
:1030400010E07B699BB2013B98B2FB6859697A69D1
:1030500013005B009B18DB00CB1802B21A807B695F
:1030600001337B617A693B689A42EAD3BB681800F6
:10307000FFF724FC0200094B91007A688A1892003D
:10308000F968D150064A7968BB681800FFF7D4FB8D
:10309000C046BD4606B080BD40000034C83900209F
:1030A000B529001080B588B002AFF8603A607B6047
:1030B0002823FB181B7801225340DBB2002B11D0D0
:1030C000FFF73AFA02000B003A617B613A687B68CD
:1030D00038697969FFF786FA02000B00002B01DAE4
:1030E000002309E03A687B68F868796A0191396AD7
:1030F000009100F005F803001800BD4606B080BD41
:1031000080B59AB000AFF8603A607B60FB681B69DD
:103110003B65EFF3108372B6FB64FB6CBB643B6DE5
:103120007B6400E0C0467B6C1B685A425341DBB2B3
:10313000002BF7D1BFF35F8FC046C046C046BB6CC3
:103140003B665E203B18FA6852881A80FB68596912
:103150003B1800229A5E13005B009B18DB00CB1823
:10316000BB653B1800229B5E002B04DBBB6D00227D
:103170009A5EFB685A80FB681B693B643B6EFB638D
:103180003B6CBB63BFF35F8FC046C046BB6B002286
:103190001A60C046FB6B7B637B6B83F31088C04671
:1031A000C0465E23FB1800229B5E002B02DA01233F
:1031B0005B4276E0BB6D3A6F1A61BB6D7A6F5A6104
:1031C0003A687B6810001900FFF722F902000B0033
:1031D000B96D8A60CB60BB6D5B889BB201339AB2DC
:1031E00066217B185204520C1A807B181B88002B16
:1031F00002D17B1801221A80BB6D66217A181288D1
:103200005A805E23FB1800229A5E7B181B881900E7
:103210001000FFF77EFB03007B65FB681B693B62C8
:10322000EFF3108372B6FB61FB69BB613B6A7B61A4
:1032300000E0C0467B691B685A425341DBB2002B59
:10324000F7D1BFF35F8FC046C046C046BB693B663F
:10325000FB689B881AB2BB6D1A80FB685E22BA18A5
:1032600012889A80FB681B693B633B6EFB623B6B79
:10327000BB62BFF35F8FC046C046BB6A00221A60C4
:10328000C046FB6A7B627B6A83F31088C046C046F7
:10329000FB68DA68FB681B7819001000FFF7FAF981
:1032A0007B6D1800BD461AB080BD0000B0B590B06F
:1032B00000AF786039603C257C193B681800FFF747
:1032C00013FB030023807B1900229B5E7A685289DE
:1032D000934201DB002371E03A23FC183B6818009D
:1032E000FFF70DFB030023803F23FB1800221A7019
:1032F0007B6859693C23FB1800229A5E13005B002F
:103300009B18DB00CB187B637B681B69BB62EFF308
:10331000108372B67B627B6A3B62BB6AFB6100E032
:10332000C046FB691B685A425341DBB2002BF7D100
:10333000BFF35F8FC046C046C0463B6A3B637B6BB2
:103340005B889BB2FB623A23FB181B88FA6A9A429D
:103350000ED1FB6A9BB21B4A13439AB27B6B5A8015
:10336000C0467B6801229A713F23FB1801221A7024
:103370007B681B69BB613B6B7B61BB693B61BFF3D6
:103380005F8FC046C0463B6900221A60C0467B6919
:10339000FB60FB6883F31088C046C0463F23FB18E0
:1033A0001B78002B07D07B68DA687B681B781900D4
:1033B0001000FFF76FF93F23FB181B781800BD467C
:1033C00010B0B0BD0080FFFF80B582B000AF786064
:1033D0007B685B781800BD4602B080BD80B58CB0BC
:1033E00000AF786039601D4B1B68BB61EFF3108341
:1033F00072B67B617B693B61BB69FB6000E0C046E4
:10340000FB681B685A425341DBB2002BF7D1BFF374
:103410005F8FC046C046C0463B69FB620F4B1B68CE
:10342000BB62FB6A7B62BB6A3B62BFF35F8FC046D5
:10343000C0463B6A00221A60C0467B6AFB61FB699A
:1034400083F31088C046C04640BFC0460022002318
:1034500010001900BD460CB080BDC046D43D002010
:1034600080B594B002AF38607960EFF305833B63B9
:103470003B6B002B03D0484B1800FDF7FFFF3A6869
:103480007B6810001900FEF7C3FF02000B00BA634F
:10349000FB63BA6BFB6B06204042C11712184B410D
:1034A0003A647B647A6CFB6B9A4207D87A6CFB6B4C
:1034B0009A4207D13A6CBB6B9A4203D9002200238F
:1034C0003A647B643A6C7B6C082179180800FEF73B
:1034D000ABFFFFF731F8BA68FB68FFF783F802002B
:1034E0000B00002B02DC4CD1002A4AD0B868F968E6
:1034F0002A4A002300930023FFF794F8031E40DBC1
:1035000032E0274B1B68FB61EFF3108372B6BB619F
:10351000BB697B61FB693B6100E0C0463B691B689E
:103520005A425341DBB2002BF7D1BFF35F8FC04645
:10353000C046C0467B697B63194B1B68FB627B6B93
:10354000BB62FB6A7B62BFF35F8FC046C0467B6A8B
:1035500000221A60C046BB6A3B623B6A83F3108854
:10356000C046C04620BFC046BA68FB6810001900BC
:10357000FEF7ACFF03001A0001235340DBB2002B1F
:10358000BFD13A687B681000190000F0B1F9C0465D
:10359000BD4612B080BDC046407B0110DD33001037
:1035A000D43D002080B582B000AF386079603A68C1
:1035B0007B6810001900FFF703F802000B001000F1
:1035C0001900FFF74DFFC046BD4602B080BDB0B543
:1035D00082B000AF78607B681C0000231D00FA22D7
:1035E000920000232000290001F0BEFD02000B0024
:1035F00010001900FFF7D6FFC046BD4602B0B0BDAF
:10360000B0B586B002AF38607960EFF30583BB6078
:10361000BB68002B08D0C0463A687B6810001900D0
:10362000FEF754FF030050E0FFF7ACF90300DC683D
:10363000FFF7A8F903001B781D003A687B681000AB
:103640001900FEF7E5FE02000B0029002000FFF73D
:10365000ADF8031E09D020BFC0463A687B68100051
:103660001900FEF733FF03002FE01A4A3868796823
:10367000002300930023FEF7D5FF0300FB60FB68E7
:10368000002B08DCC0463A687B6810001900FEF782
:103690001DFF030019E03A687B6810001900FEF76F
:1036A00015FF03001A0001235340DBB2002B01D0A9
:1036B00020BFC046FB681800FEF7CEFF3A687B6863
:1036C00010001900FEF702FF03001800BD4604B009
:1036D000B0BDC046DD33001080B500AFFFF7FCF889
:1036E00003001800BD4680BD80B582B000AF3860D1
:1036F00079603A687B6810001900BD4602B080BD51
:1037000080B584B000AFF8603A607B60F9683A68D1
:103710007B680A604B60C046BD4604B080BD80B582
:1037200082B000AF7860C046BD4602B080BD80B5B3
:1037300082B000AF786000231800BD4602B080BDA3
:1037400080B582B000AF786039603B681800FFF741
:10375000E6FF7B681800FFF7EAFF0200054BD3186D
:10376000054A39681800FDF710FFC046BD4602B093
:1037700080BDC04640350020C07B0110B0B58AB086
:1037800000AF78617969496A79627969896A3962D1
:103790007969496AF961786AF969884202D0F969F8
:1037A0007962F2E7C046796AB9600021F960B968C8
:1037B0000B0000210A00396A0C0000210D001100E5
:1037C000214339602B437B603A687B681000190005
:1037D000BD460AB0B0BD80B58AB000AFF8603A60AF
:1037E0007B60FB681800FFF7C9FF02000B00BA619D
:1037F000FB61B869F9693A687B6812184B413A6213
:103800007B62FA697B6A9A4207D8FA697B6A9A42B4
:1038100008D1BA693B6A9A4204D901225242D317AD
:103820003A627B623A6A7B6A102179180800FFF7D6
:1038300067FF3A697B69F968080000F004F8C04640
:10384000BD460AB080BDB0B58AB000AFF8603A603E
:103850007B603A687B6810001900FFF745FF0200A3
:103860000B00BA61FB61FB691C0000231D002300F3
:103870007B61FB685B6A7B6203E0FB685B6A7B627F
:10388000C0467A6A7B699A42F7D303E0FB685B6AB9
:103890007B62C0467A6A7B699A4204D1FB689A6A65
:1038A000BB699A42F2D3C046BD460AB0B0BD000023
:1038B00080B500AF044B1800FFF760FF02000B005B
:1038C00010001900BD4680BD0040054080B582B0A3
:1038D00000AF386079603A687B6804490800FFF7F8
:1038E0007AFFC046BD4602B080BDC04600400540DC
:1038F00080B582B000AF386079603A687B6804496F
:103900000800FFF7A0FFC046BD4602B080BDC0461C
:103910000040054080B582B000AF78607B68033B13
:10392000FDD27B60C046BD4602B080BD80B582B08E
:1039300000AF0200FB1D1A70FB1D1B78052B03D086
:10394000FB1D1B78042B01D1012300E000231A1C6E
:1039500001231340DBB21800BD4602B080BD000059
:1039600080B596B000AFB9607A603B600F217B18DC
:10397000021C1A707B181A7813005B009B189B00BE
:10398000584A944663447B657B6D5B683A6E9A4205
:1039900002D97B6D3A6E5A600F23FB181B78180012
:1039A000FFF7C4FF031E16D0BB68012B13D17B6D3C
:1039B000FB640323BB64FB6CC02292019446634406
:1039C000BA6C1A60C04600E0C0467B6D9B6801225D
:1039D0001340F9D028E07B6D7B6480231B013B649E
:1039E0007B6CC0229201944663443A6C1A60C046D4
:1039F0000F217B181A783C4B9200D358002B13D020
:103A0000394B58697B181A78374B9200D3581900F4
:103A100000F042FD030001333B653A6D13005B008B
:103A20009B181800FFF776FF7A6D7B685B01FA63DD
:103A3000BB63E0237B63FB6B1A68BB6B53407A6B01
:103A40001340FA6B3A63FB623B6B8022520194464F
:103A50006344FA6A1A60C046C0460F23FB181B78FD
:103A60001800FFF763FF031E21D07B6DBB62BB68AC
:103A70007B6203233B62BB6A1A687B6A53403A6AE3
:103A80001340BA6AFA61BB61FB6980225201944615
:103A90006344BA691A60C046C04600E0C0467B6D08
:103AA0009B680121BA6891400A001340F6D07B6DF3
:103AB0007B6180231B013B617B69802292019446DC
:103AC00063443A691A60C0467B6D3A6E5A600F23B0
:103AD000FB181A78044B92003968D150C046BD4695
:103AE00016B080BD0080004044350020F0B587B09E
:103AF00002AFB9607A603B600F26BB19021C1A70D6
:103B0000B96A386800F0C8FC03001D00BB6A1B02DC
:103B10007C68B968BA19107800932B002200FFF76F
:103B20001FFFC046BD4605B0F0BDB0B586B002AFC0
:103B3000B9607A603B600F257B19021C1A703C68E3
:103B40007A68B9687B19187880235B00009323009A
:103B5000FFF706FFC046BD4604B0B0BD80B582B0D9
:103B600000AF0200FB1D1A70FB1D1A78034B920078
:103B7000D3581800BD4602B080BDC0464435002071
:103B800080B582B000AF02003960FB1D1A70FB1DCA
:103B90001A78044B92003968D150C046BD4602B035
:103BA00080BDC0464435002080B58CB000AF786041
:103BB00001227B689A401300184ABA617B61BB6995
:103BC0003B617B69FB603B698022920194466344C0
:103BD000FA681A60C046C04601227B689A4013000A
:103BE0000E4AFA620E4ABA627B62FB6A3B627B6AE9
:103BF000FB613B6AC022920194466344FA691A60F1
:103C0000C04600E0C046BB6A1B68DB437A6A1340CB
:103C1000F8D1C046C046BD460CB080BD00C00040D3
:103C200008C0004080B58CB000AFF860B9607A6021
:103C30003B60B9684E4800F02FFC0300FB627B68D4
:103C40004C4A934203D97B684B4A934205D94B4B6C
:103C50004B4A4C48112103F077F8F96A786800F074
:103C60001BFC0300BB62BB6A0F2B04D9BA6AA023FA
:103C70005B009A4205D9444B414A4248192103F05E
:103C800063F83B68002B08D03B68072B05D8BB6B5B
:103C9000002B02D0BB6B072B05D93C4B384A394867
:103CA0001C2103F051F87B681B09FA6A9A4205D976
:103CB000374B334A3348232103F046F83B681A0454
:103CC000BB6B1B0313437B62FB681B68002B15DA7D
:103CD000FB681B683F221340BA689A420ED1FB680A
:103CE0009B681B051B0DBA6A9A4207D1FB68DA680C
:103CF000EE23DB0213407A6A9A4234D0FB68254AED
:103D0000934201D10D2300E00C231800FFF74CFF74
:103D1000FB68BA681A60FB68BA6A9A6021233B6242
:103D2000FB680433FB613B6ABB61FB69C022920103
:103D300094466344BA691A60C04600E0C046FB6816
:103D40001B68002BFADAFB687A6ADA60FB680433D6
:103D50007B6108233B617B69C022920194466344E6
:103D60003A691A6000E0C046BD460CB080BDC0464E
:103D7000001BB7007F17B42C00105E5F587C011049
:103D8000687D0110A87C0110E47C0110007D011009
:103D90004C7D011000C0024080B500AF034A044BC7
:103DA0001B685360C046BD4680BDC04600800540CC
:103DB000B839002080B590B000AF78600A00FB1CD5
:103DC0001A70374B3B638023DB05FB623B6BC022E1
:103DD000920194466344FA6A1A60C046314BBB6351
:103DE000314B7B63BB6B80229201944663447A6BB8
:103DF0001A60C046E023DB04FB63FB1C1B78002B2E
:103E00000BD0274BBB62FB6B7B62BB6A80229201AB
:103E1000944663447A6A1A600BE0214B3B62FB6B69
:103E2000FB613B6AC022920194466344FA691A60BE
:103E3000C0467B68002B0CD1194BBB6180231B064D
:103E40007B61BB6980229201944663447A691A605F
:103E500021E07A6813005B019B1A9B009B181B01F1
:103E60001A00124B1A60114B1A6880235B049A42A5
:103E700002D30E4B0E4A1A60FFF78EFF084B3B61D0
:103E80008023DB05FB603B698022920194466344FA
:103E9000FA681A60C046C046BD4610B080BDC04634
:103EA0000080054008000140FCFF0100B8390020F7
:103EB000FFFFFF0080B586B000AFF860B9607A60A0
:103EC000174B7B618023DB053B617B69C02292013C
:103ED000944663443A691A60C046FB68002B12D0CE
:103EE000FB6801221343FB600D4B0E4ADA610C4B59
:103EF000FA680D494A401A62094BBA685A62084B7F
:103F0000FA689A6202E0064B0022DA617B680021BF
:103F10001800FFF74FFFC046BD4606B080BDC04643
:103F200000800540D3C007B02D3FF84F80B582B068
:103F300000AF02003960FB1D1A70054B3A68802102
:103F400089000A43DA62C046BD4602B080BDC04661
:103F50000080054080B586B000AF78607B687B61EB
:103F600018231B883B6114231B88FB607969FA685E
:103F70003B691000984703001800BD4606B080BD9D
:103F800080B586B000AF78607B687B6118231B88A2
:103F90003B6116231B88FB607969FA683B69100056
:103FA000984703001800BD4606B080BD80B584B0B8
:103FB00000AF786039600F23FB1801221A700023CC
:103FC000BB601CE0BB689B007A68D3181B681800B4
:103FD000FFF7C0FF0100BB689B007A68D3180A0096
:103FE0001A60BB689B007A68D3181B68002B03D14A
:103FF0000F23FB1800221A70BB680133BB60BA683C
:104000003B689A42DED30F23FB181B781800BD468D
:1040100004B080BD80B586B000AFF860B960FB1D0C
:104020001A70094B1800FFF795FF03007B61FB68CE
:10403000002B04DB0122FB689A40130000E0002300
:10404000B9687A69180090475542000080B582B07F
:1040500000AF0F4BAA2212011A600D4B8D225200A5
:10406000DA600B4B7B600B4B3B607B6880229201DC
:10407000944663443A681A60C04600E0C046044B68
:104080005B68002BFADAC046C046BD4602B080BD70
:104090000040024000B0FA0080B584B000AF786004
:1040A0007B68FB6007E0FB681B68BB60BB689847E8
:1040B000FB680433FB60FA68034B9A42F3D3C046B3
:1040C000C046BD4604B080BD4C74011080B500AF41
:1040D000034B1800FFF7E0FFC046BD4680BDC04659
:1040E0001074011080B500AFC046BD4680BD000011
:1040F00080B58CB000AF1B4B7B611B4B3B617B6978
:10410000FB603B69BB60FB687B60BB6880229201FF
:10411000944663447A681A60C046C046C046134B52
:10412000FB62114BBB62124B7B62FB6A3B62BB6A58
:10413000FB613B6ABB61FB69C02292019446634408
:10414000BA691A60C04600E0C0467B6A1B68DB4360
:104150003A6A1340F8D1C046C046C046BD460CB0CE
:1041600080BDC046BFCDFBFE00C00040FE7F3C00CE
:1041700008C0004080B582B000AF0A4BDB6C002B5A
:104180000CD1094B7B608023DB023B607B68802283
:104190009201944663443A681A60C046C046BD46E0
:1041A00002B080BD000011504C00115080B586B0A7
:1041B00000AF114B7B61114B3B61114BFB607B6985
:1041C000BB603B697B60BB683B607B68C02292013F
:1041D000944663443A681A60C04600E0C046FB68F3
:1041E0001B68DB43BA681340F8D1C046C046C046DE
:1041F000BD4606B080BDC046FFFFFF0100C00040C5
:1042000008C0004080B582B000AF074B7B60402300
:104210007A6893677A6853677A6813677A68D366AF
:10422000C046BD4602B080BD00F0014080B500AF81
:10423000FDF762FAC046BD4680BD000080B582B081
:1042400000AF134A134BD31A9B103B603B68302BD3
:1042500000D930239B0010490E4A080011001A00B3
:1042600001F0B2F83B687B6007E00C490A4B7A68C2
:104270009200D1507B6801337B607B682F2BF4D98F
:10428000074B054A9A60C046BD4602B080BDC04695
:10429000C00100100001001000000020C10100104A
:1042A00000ED00E080B500AF00231800BD4680BDE2
:1042B00080B582B000AF0420FFF750FC03000D4929
:1042C000180000F0E9F803003B6000237B6009E080
:1042D0007B68DBB23A6811001800FFF727FE7B68A5
:1042E00001337B607B68002BF2DDC046C046BD46D3
:1042F00002B080BD40420F0080B588B002AFFFF72A
:10430000D1FF031E1AD000237B6109E07B69DBB279
:104310003E4A11001800FFF733FC7B6901337B61D3
:104320007B69092BF2D93A4B19000420FFF728FCCE
:10433000384B19000920FFF723FC60E0364B0022C0
:104340009A67FFF783FE354B3B610123FB603B69B6
:10435000C022920194466344FA681A60C04600E0A5
:10436000C0462D4B5B6C012BFAD12D4BBB60032358
:104370007B60BB68C0229201944663447A681A60ED
:10438000C04600E0C046244B9B6B012BFAD1254A66
:1043900025480223009306230121FFF743FC234A0B
:1043A00023480523009305230121FFF73BFC184B0D
:1043B000002202210420FFF7B8FB1E4B002201213E
:1043C0000520FFF7B2FB114B002200210720FFF769
:1043D000ACFB0E4B002200210820FFF7A6FB0B4A86
:1043E0008023DB0000931300002200210920FFF747
:1043F0007DFB104B002200210620FFF796FBFFF704
:1044000057FFC046BD4606B080BDC046006CDC020A
:10441000001BB7001BB70000008000403C8000403C
:1044200030800040002F685900800240008C864791
:1044300000C002404059730701480421014B18474E
:10444000F0220020AD3F0010124A936F9B0815D256
:104450009066D166002905D0FFE7FFE7FFE7516FBF
:10446000106F704704B580210906C217514000281B
:1044700000D0C84312F064FF002104BDF0B5146EF3
:10448000556E576F166FFFF7E3FF14665566576753
:104490001667F0BD000000D0114A936F9B0813D23D
:1044A00010665166002905D0FFE7FFE7FFE7516F6F
:1044B000106F704704B5002801D00020C04312F0EF
:1044C0003FFF002104BDC046F0B5146E556E576F16
:1044D000166FFFF7E5FF1466556657671667F0BD60
:1044E000000000D094464A4A926F9208624601D278
:1044F00028E0C046F0B5464E346E756E776F366F65
:1045000000F020F89446424A1466556657671667CD
:104510006246F0BD94463E4A926F9208624601D2CE
:1045200054E0C046F0B53A4E346E756E776F366F14
:1045300000F04CF89446364A14665566576716677D
:104540006246F0BD002B24DB11D000293EDA00B515
:10455000C943404200D1013100F038F8C94340421C
:1045600000D10131DB43524200D1013300BD002AAA
:10457000EBD1002801D1002905D00020C90FC907BF
:1045800001D1C043410800B512F0C2FE0022002351
:1045900000BD00B500290ADBDB43524200D10133E4
:1045A00000F014F8C943404200D1013100BDC943B5
:1045B000404200D10131DB43524200D1013300F0CF
:1045C00005F8DB43524200D1013300BD002923D15D
:1045D000002B18D1002A0CD0BC460D4F38667A66E5
:1045E00000210023FFE7FFE7FFE77A6F386F674698
:1045F0007047002801D00748010000B512F088FE7E
:104600000022002300BD02000B00002000217047A3
:10461000000000D0FFFFFFFF002B00D0BFE0130C15
:1046200028D1002AE7D080B4114F39667A66FFE7B7
:10463000FFE730B4040C7B6F396F1B0423433B66E8
:104640007A66FFE7FFE7FFE7C04684B27B6F3D6F06
:104650001B0423433B667A66FFE7FFE7C04600235F
:104660002C042D0C7A6F386F00196941B0BC70476B
:10467000000000D0F0B594460025140E01D11202BE
:104680000835140F01D112010435940F01D19200A5
:104690000235D40F01D152000135D40B0134254F1E
:1046A0007C66254C3C660E0C93B2FFE7FFE7FFE704
:1046B0003C6F6643360C7703BE467343DF0B5B04E7
:1046C000C01AB941130C7343DB18C91ACE086643EC
:1046D000360CB64493B273431F0F1B01C01AB94185
:1046E000130C73431F0B1B05C01AB941860D8F02B3
:1046F0003E436643360C092D24DB520A7243801A6E
:104700007703460A6643360C16235B1BDE40DF4008
:10471000BF1964466643821B7046043506330100A8
:10472000D940A840C01900D30131A24206D20023CB
:10473000F0BD0000000000D0FFFFFFFF121B0130A2
:10474000F3D3F1E709277F1BFE406446A2B2724310
:10475000801A00D20139220C7243130C1204821AFF
:1047600099410B007046043513370100F940A84009
:10477000801900D30131002B02D1A2420AD2F0BD30
:10478000013000D30131121BFAD2013BF8D1A24211
:1047900000D2F0BD013000D30131121BF7E7F0B5B4
:1047A0001C0C00D080E00CB400251C0A04D11B02B4
:1047B000160E3343120208351C0B04D11B01160FD1
:1047C0003343120104359C0B04D19B00960F3343F5
:1047D00092000235DC0B02D192185B4101351C00BE
:1047E000971864410134464F7C66464C3C660E0C7B
:1047F000FFE7FFE7FFE7C0463C6F6643360C7703F1
:10480000BE4697B27743C01B00D20139C01B00D20D
:1048100001399FB27743C91BC91B170C77437E042C
:10482000FF0B801BB941CE086643360C0C2D33DBE1
:10483000B644120B1F053A431B0B97B27743C01BBC
:1048400000D201399FB27743C91B170C77433E044E
:104850003F0C801BB941860D8F023E4366432927DA
:104860007F1BFE400C3D7746AF40BF1930BCA2B263
:10487000ABB272437343801A9941220C7243130CFA
:104880001204801A994102000B000137001BA94154
:10489000F9D2781E0021F0BD0C277F1BFE40774621
:1048A0007F0BAF40FF19E0E700245D1C07D0144FD9
:1048B0007D663966FFE7FFE7FFE7FFE73C6F95B2EC
:1048C0009EB265436643401BB141150C1E0C654307
:1048D000664336042F0C3E432D04401BB1419942E0
:1048E00004D202000B0020000021F0BD01D1904253
:1048F000F7D3801A994101349942F2D3F6E70000C8
:10490000000000D0FFFFFFFF48404140484018B47E
:104910001B4B5B68FC46019308BD04DF3B4C001059
:1049200018B4174B1B68FC46019308BD00DF454CCB
:1049300000109446134A926F920809D2624618B446
:104940000F4BDB68FC46019308BD0CDFFD4E0010E9
:104950000C4AF0B5146E556E576F166F6246FFF72E
:10496000EEFF084A1466556657671667F0BD18B41F
:10497000034B9B68FC46019308BD08DFA14D001066
:10498000D03B0020000000D0FFB5504042405040D6
:1049900059404B40594000E0FFB5154F4C00640DA5
:1049A00003D0BC4204D10C0314D80020090D090522
:1049B0005C00640D03D0BC4204D11C030AD8002261
:1049C0001B0D1B0501264B4009D44B4003D58B42E0
:1049D00000D18242FFBD9942FCD19042FFBD0B4302
:1049E000DB1803431343F5D0C9434918FFBD00004A
:1049F000FF07000000B5FFF7CFFF804100BDC046B4
:104A000000B5FFF7C1FF01D9002000BD012000BDA6
:104A100000B5FFF7B9FF804100BD012040054A0005
:104A2000121804D85A00121801D80020704701202B
:104A3000704700000021002805D17047C117484089
:104A4000401AFAD0C90713B5064B1B6898470CBC2F
:104A5000441CA2401005120B0349091B0905194308
:104A6000114310BDD03C00201F04000010B54C00C5
:104A7000620D8023D218DB00D21A5B057E2A10DD7E
:104A80009E3A13DACC170903490819435242D14020
:104A9000640001341532202A05DAD040084360430F
:104AA00010BD002010BD0846604310BDC80FC018DF
:104AB000013810BD18B4044B5B6AFC46019308BD75
:104AC00024DFAD5000100000D03B002080B500AFC7
:104AD00013231B781800BD4680BD80B582B000AF9F
:104AE0000200FB1D1A70BB1D0A1C1A70FB1D1A78F0
:104AF000BB1D1B781B0213431800BD4602B080BDCE
:104B000080B584B000AFFFF7E1FF0300BB60BB6876
:104B1000012B0DD10023FB6007E02D492D4BFA68D6
:104B20009200D150FB680133FB60FB681F2BF4D966
:104B3000BB68012B3BDD44215320FFF7CEFF030070
:104B40001800FFF71DFA03007B6046215320FFF792
:104B5000C4FF03001800FFF713FA03003B603B6833
:104B6000023B1B789B007F2B05DC1B4B1B4A1C4820
:104B7000332102F0E9F87968164B8022180000F022
:104B800023FCBB68022B12D1164B1A88B5231B02DB
:104B90009A4209D1144B1B88144A934204D1144BF6
:104BA0001B88144A934202D00020FCF767FCBB68C4
:104BB000022B02DC064A074B9A640F4B1800FFF7E2
:104BC000C9F902000D4B1A60C046BD4604B080BD55
:104BD000014C0010D03B0020747D0110087E0110B4
:104BE000B87D011054380000D83800004946000054
:104BF0009C380000594600004C330000D03C002097
:104C000007B56046002800D100BE01880A0A0230BC
:104C1000DF2AFAD1C9B2820804D30288408800048E
:104C2000104300E00068024A5050039007BD0000A6
:104C3000D03B00200FB403BC0CBCF0B50124E4074A
:104C4000634000E0F0B50C0DCF0F661E3605891BE2
:104C5000640503D3C943404200D30131640D03D03E
:104C6000661CF60A07D0E41B00207F00791C890728
:104C70008912803C24031D0DDF0F6E1E36059B1B21
:104C80006D0503D3DB43524200D301336D0D03D0D6
:104C90006E1CF60A07D0ED1B00227F007B1C9B07D1
:104CA0009B12803D2D032F1B661B58D4A446202E3B
:104CB00046DA20371400BC401D00BD40F2403341AD
:104CC0002A4380185941CB0F05D0C943C043002265
:104CD00064425041514162464D0D28D10D0D07D11E
:104CE00000281FD0241940414941013A0D0DF9D047
:104CF000640006D3013000D30131002C01D14008FB
:104D00004000013A0BD4941CE40A04D1120511446A
:104D1000DB071944F0BDD907204B194300E0D90740
:104D20000020F0BD0029DDD1002CDBD1F0BD013227
:104D3000C6074008CD0728434908002EE1D0D9E72F
:104D40003C2E29DA203E40371400BC4000D001241C
:104D5000F24014431A00BB401C43D317ACE7AC46E7
:104D6000202F08DA20360400B4400D00B540F8408A
:104D700039412843A5E73C2F0CDA203F4036040098
:104D8000B44000D00124F84004430800B1400C4373
:104D9000C117EAE710001900002494E70000F07F33
:104DA000F0B50C0D661E3605891BE60A6405640D18
:104DB00002D0651CED0A04D0002001210905803CC9
:104DC0002403A4461C0D671E3F05DB1BE70A640590
:104DD000640D02D0651CED0A04D0002201231B05DE
:104DE000803C24037740644497B484B296B2744301
:104DF000070C7E43150C6F4380B26843361802D30C
:104E0000012000043F183004350C00197D41844610
:104E100088B29AB250430C0C62431F0C7C438EB292
:104E20007E43921902D301263604A4191604170CE6
:104E30003618674101BC81B29AB25143040C6243F7
:104E40001B0C5C4380B25843121802D301200004AB
:104E500024181004130C401863412D185E410020E3
:104E6000474106BC88B293B258430C0C6343120C02
:104E7000544389B251435B1802D3012109046418D9
:104E800019041A0C091862416D1856410020474157
:104E900018BCF902720D1143F0026A0D1043ED02C5
:104EA0000A0D03D16D1940414941013B124E9B1B34
:104EB0007600B3420ED26D0007D301300026714157
:104EC0006646354301D1400840001B05C918E40778
:104ED0002144F0BD0BDA013306D1013004D1013198
:104EE0004F0D01D04908F2E7E1070020F0BD01367F
:104EF00031050020EBE70000FF030000F0B51C0DBA
:104F0000671E3F05DB1BE70A6405640D02D0661CC3
:104F1000F60A04D0002201231B05803C2403D0257F
:104F20002D060026F6432E661E096E66CE0FF61974
:104F3000B44649004F0D02D07E1CF60A03D0002073
:104F40000021403F3F033E1BB600B444013F7F05B4
:104F5000C91B49082E6F013676089C02950D254322
:104F60007543ED137543AD1301356D10F603761BD4
:104F70000CB4CC02450D2C43A2B2B3B25A43270C59
:104F80007B43350C6F43A4B26C431B1902D301243D
:104F900024043F191C041D0CA4187D4124196D41E3
:104FA000009A91B2ACB26143170C7C432B0C5F4367
:104FB00092B25A43A41802D301221204BF18220449
:104FC000230C52187B41019C6C431B19520ED901D2
:104FD0000A434401A01A81B2B2B2514303145A43A6
:104FE000360C734387B27743D617D21900277E4118
:104FF00036049B191704160C7F185E417316ED18C2
:10500000F301002680337541A90F06D16400690AB7
:10501000E8055B0A184309D22FE004229444803348
:105020007541A90AA8059B0A184326D34041494166
:105030002404009A019B0D005543641B4343E41A6A
:1050400095B286B27543170C7E43030C5F4392B250
:105050005A43B61802D301221204BF183204330C8B
:1050600052197B4152429C41002C02D40022013053
:1050700051414008CA071043490802B06246D707A9
:105080009210084BD218084B9A4203D21205891885
:10509000C919F0BD0020002A01DC3900F0BD013340
:1050A0001905F5E7FD030000FE070000002200B52A
:1050B000203200F004F8080000BD000000220B15AB
:1050C0000AD410B5944600F031F81414013400DA13
:1050D0000021CB17144C2047002000217047624468
:1050E000343A0CD40C2A07DA040091409040524222
:1050F0002032D440214310BDD843D94310BD2032C3
:1051000007D40C469440524220321141D0402043F3
:1051100010BD0800C917203203D45242203210417A
:1051200010BD1800190010BDDF5000100A0DCC0F83
:10513000531E1B05C91A520503D3C943404200D36D
:105140000131520D03D0531CDB0A07D0121B002083
:105150006400611C89078912803A1203014BD21A3C
:1051600070470000FF03000051434343C9188C46B9
:10517000110C83B24B4310B4040C614392B280B261
:10518000504362431C041B0C001910BC594113040A
:10519000120CC01851416144704780B500AF132311
:1051A0001B781800BD4680BD80B582B000AF0200FC
:1051B000FB1D1A70BB1D0A1C1A70FB1D1A78BB1D43
:1051C0001B781B0213431800BD4602B080BD0000CF
:1051D00080B584B000AFFFF7E0FF0300BB6046215D
:1051E0005320FFF7E1FF03001800FEF7C9FE03009C
:1051F0007B60BB68012B3ED179682F4B542218008D
:1052000000F0E2F82D4B1B882D4A93421AD1A723B8
:105210009B011B882B4A934214D12B4B1B882B4A92
:1052200093420FD12A4B1A8894239B019A4209D1A9
:10523000284B1B88284A934204D1284B1B68284AD4
:10524000934203D0274B1800FCF718F91523FB6095
:1052500007E02549184BFA689200D150FB680133EA
:10526000FB60FB681F2BF4D91F4A134B1A62124BC9
:105270001A6A114BDA61BB68012B11DD7B68023BB6
:105280001B789B007F2B05DC184B194A19484221DB
:1052900001F05AFD7968084B8022180000F094F85C
:1052A000154B1800FEF756FE0200144B1A60C0465C
:1052B000BD4604B080BDC046D43C0020EE290000AD
:1052C000C40F0000C20D0000962B0000C0B5000006
:1052D000182B0000CC2A000010B50000FC2C0000A8
:1052E00051ED87641C7E011001530010207E0110D7
:1052F000A07E0110547E01104C330000D03C0020F1
:1053000007B56046002800D100BE01880A0A0230B5
:10531000DF2AFAD1C9B2820804D302884088000487
:10532000104300E00068024A5050039007BD00009F
:10533000D43C002080B582B000AF786039607B68D3
:10534000002B05D07A683B68D218054B9A4203D9E6
:10535000044B1800FCF792F8C046BD4602B080BD71
:1053600000000420B47E011080B584B000AF7860E6
:105370007B68180011F01EFB0300FB607A68FB6875
:1053800011001800FFF7D6FFFB681800BD4604B0F7
:1053900080BD80B582B000AF78607B68180011F0E6
:1053A00013FBC046BD4602B080BD00000148042189
:1053B000014B184700230020AD3F0010014B1B6834
:1053C0001847000000230020014B5B6818470000CD
:1053D0000023002080B584B000AFB9607A603B60E4
:1053E0000F217B18021C1A707A683B689A4205D21A
:1053F000BA687B68D3187A1812781A70C046BD460E
:1054000004B080BD80B584B000AFB9607A603B6005
:105410000F23FB18021C1A70C046BD4604B080BDA5
:1054200080B584B000AFB9607A603B600F217B1813
:10543000021C1A7008007B181B78002B07D0BB6871
:105440001A68BB6859683B181B7818009047C0461B
:10545000BD4604B080BD80B584B000AF78603960CF
:105460007B68FB6002E0FB680133FB60FB681B7834
:10547000002B04D03B685A1E3A60002BF3D1FA6827
:105480007B68D31A1800BD4604B080BD80B582B0D9
:1054900000AF0200FB1D1A70FB1D1B782F2B05D9D6
:1054A000FB1D1B78392B01D8012300E000231A1CB7
:1054B00001231340DBB21800BD4602B080BD80B5A9
:1054C00084B000AF78600023FB600EE0FA68130040
:1054D0009B009B185B0018007B681B68591C7A684E
:1054E00011601B78C318303BFB607B681B681B781E
:1054F0001800FFF7CBFF031EE8D1FB681800BD467C
:1055000004B080BD90B587B000AFF860B9607A6034
:105510003B607B683B617B6B0222134024D17B6B39
:105520000122134020D1FB6A7B610AE07A68531C98
:105530007B603B68B968FC682020A0477B69013329
:105540007B617A693B6B9A42F0D30DE0FB6A013BC9
:10555000FB62BA6AFB6AD31818787A68531C7B60BE
:105560003B68B968FC68A047FB6A002BEED17B6BF7
:10557000022213400ED007E07A68531C7B603B6820
:10558000B968FC682020A0477A683B69D31A3A6B57
:105590009A42F1D87B681800BD4607B090BD90B51F
:1055A00089B004AFF860B9607A603B60BB6B0222DF
:1055B000134034D17B6B002B17D0BB6B01221340FF
:1055C00013D02823FB181B78002B03D1BB6B0C22B4
:1055D00013400AD07B6B013B7B6306E07B6A5A1C5D
:1055E0007A623A6AD31830221A707A6A3B6B9A420E
:1055F0000AD27B6A1F2BF1D906E07B6A5A1C7A62B9
:105600003A6AD31830221A70BB6B0122134006D0BD
:105610007A6A7B6B9A4202D27B6A1F2BEDD9BB6BF5
:105620001022134056D0BA6B8023DB00134016D1F2
:105630007B6A002B13D07A6A3B6B9A4203D07A6A5A
:105640007B6B9A420BD17B6A013B7B627B6A002BAE
:1056500005D0FB6A102B02D17B6A013B7B62FB6A9F
:10566000102B0ED1BB6B202213400AD17B6A1F2B5B
:1056700007D87B6A5A1C7A623A6AD31878221A7061
:105680001EE0FB6A102B0ED1BB6B202213400AD008
:105690007B6A1F2B07D87B6A5A1C7A623A6AD31836
:1056A00058221A700CE0FB6A022B09D17B6A1F2B6F
:1056B00006D87B6A5A1C7A623A6AD31862221A7038
:1056C0007B6A1F2B06D87B6A5A1C7A623A6AD31807
:1056D00030221A707B6A1F2B23D82823FB181B78D3
:1056E000002B07D07B6A5A1C7A623A6AD3182D22A3
:1056F0001A7016E0BB6B0422134007D07B6A5A1C59
:105700007A623A6AD3182B221A700AE0BB6B08221D
:10571000134006D07B6A5A1C7A623A6AD318202258
:105720001A703C687A68B968F868BB6B03937B6B46
:1057300002937B6A01933B6A00932300FFF7E2FE2A
:1057400003001800BD4605B090BD90B597B008AFF6
:10575000F860B9607A603B6000237B63BB6C002B10
:1057600003D1FB6D10229343FB65FA6D8023DB00B0
:10577000134002D0BB6C002B33D0BB6C396D1800CA
:10578000FEF78AFE0B001A0033217B181A700A00FC
:10579000BB181B78092B04D8BB181B783033DAB23E
:1057A0000DE0FB6D2022134001D0412300E0612376
:1057B0003322BA1812789B18DBB20A3BDAB27B6B41
:1057C000591C796310217918CA54396DB86CFEF7E9
:1057D00063FE0300BB64BB6C002B02D07B6B1F2BF2
:1057E000CBD93C687A68B968F868FB6D0693BB6DE5
:1057F00005937B6D04933B6D03934C23FB181B783F
:1058000002937B6B01931023FB1800932300FFF797
:10581000C6FE03001800BD460FB090BDB0B596B0EF
:1058200008AFF860B9607A603B6000237B63BB6CB3
:10583000FA6C134303D1BB6E10229343BB66BA6E5E
:105840008023DB00134003D0BB6CFA6C13433AD0C7
:10585000B86CF96CBA6DFB6DFEF75CFE10001900B8
:1058600033243B19021C1A702200BB181B78092B29
:1058700004D8BB181B783033DAB20DE0BB6E20229F
:10588000134001D0412300E061233322BA1812787B
:105890009B18DBB20A3BDAB27B6B591C796310218F
:1058A0007918CA54BA6DFB6DB86CF96CFEF732FE0C
:1058B00002000B00BA64FB64BB6CFA6C134302D0A9
:1058C0007B6B1F2BC4D9BB6D3D687C68B968F868D9
:1058D000BA6E06927A6E05923A6E04920393502342
:1058E000FB181B7802937B6B01931023FB1800932A
:1058F0002B002200FFF753FE03001800BD460EB038
:10590000B0BD0000F0B59DB006AFF860B9607A6038
:105910003B6000237B6500220023BA63FB633A6F80
:105920007B6F386F796FFFF778F8031E12D03C68F1
:105930007A68B968F8688023FB181B680393FB6FCB
:10594000029303230193C54B00932300FFF7DAFD75
:1059500003001DE201225242C14B386F796FFFF7FD
:1059600049F8031E12D03C687A68B968F868802349
:10597000FB181B680393FB6F029304230193B94B3D
:1059800000932300FFF7BEFD030001E20122524213
:10599000B54B386F796FFFF73BF8031E24D0802397
:1059A000FB181B680422134001D0B04B00E0B04B41
:1059B0008022BA18126804210A4001D0042200E0B3
:1059C00003223E687D68BC68F86880217918096800
:1059D0000391F96F02910192009333002A00210094
:1059E000FFF790FD0300D3E10022A24B386F796FDF
:1059F000FFF70EF8031E07D100229F4B386F796F17
:105A0000FEF7F8FF031E15D03D687C68B968F8689A
:105A10008023FB181B680493FB6F0393BB6F0293F7
:105A20003A6F7B6F009201932B00220000F0B4F9D3
:105A30000300ADE153243B1900221A700022002319
:105A4000386F796FFEF7D6FF031E0CD03B19012289
:105A50001A703A6F7B6F00200021FEF758FF02009A
:105A60000B003A677B678023FB181A688023DB00F2
:105A700013400CD10623BB6709E07B6D5A1C7A6585
:105A80001022BA183021D154BB6F013BBB677B6D2C
:105A90001F2B02D8BB6F092BEFD8386F796FFEF739
:105AA000E5FF0300FB64F86CFEF7C8FF02000B0083
:105AB000386F796FFEF72BFF02000B001000190002
:105AC0006E4ABB6FDB00D3181A685B68FEF74FFFA6
:105AD00002000B003A637B63386B796BFEF7EAFFD9
