:020000041000EA
:1000000000B5324B212058609868022188439860DF
:10001000D860186158612E4B002199600221596106
:100020000121F02299502B49196001219960352056
:1000300000F044F80222904214D00621196600F024
:1000400034F8196E01211966002018661A6600F04E
:100050002CF8196E196E196E052000F02FF8012189
:100060000842F9D1002199601B49196000215960AB
:100070001A491B48016001219960EB211966A021F2
:10008000196600F012F800219960164914480160C1
:100090000121996001BC002800D000471248134993
:1000A000086003C880F30888084703B5996A0420EC
:1000B0000142FBD001200142F8D103BD02B5186610
:1000C0001866FFF7F2FF186E186E02BD00000240BE
:1000D000000000180000070000035F00212200005C
:1000E000F4000018222000A00001001008ED00E03C
:1000F00000000000000000000000000074B24E7A12
:1001000000200420F7010010CB010010CD010010E9
:10011000C9010010C9010010C9010010C901001077
:10012000C9010010C9010010C9010010CF01001061
:10013000C9010010C9010010D1010010D301001045
:10014000C1010010C1010010C1010010C101001067
:10015000C1010010C1010010C1010010C101001057
:10016000C1010010C1010010C1010010C101001047
:10017000C1010010C1010010C1010010C101001037
:10018000C1010010C1010010C1010010C101001027
:10019000C1010010C1010010C1010010C101001017
:1001A000C1010010C1010010C1010010C101001007
:1001B000C1010010C1010010C1010010C1010010F7
:1001C000EFF30580103800BE00BE00BE00BE00BECA
:1001D00000BE00BEF2EB88712C700A1048700A1045
:1001E0003802001090A31AE71E481F49086006C88D
:1001F00081F3088810471D480068002801D019487D
:10020000F3E70DA40ECC002902D000F012F8F9E7B4
:100210001749184A002000E001C19142FCD116495B
:100220008847164988471649884700BEFDE701C937
:1002300001C29A42FBD3704748700A10C0000020E8
:10024000B013002038830A100000042000000420AE
:1002500038830A1000100420001004200000000061
:10026000704700000000000008ED00E0000000D032
:10027000B013002018E501206D390010D5030010DF
:1002800067390010F8B5C04610B5064C2378002B2E
:1002900007D1054B002B02D0044800E000BF01232A
:1002A000237010BD3815002000000000346A0010D3
:1002B000044B10B5002B03D00349044800E000BFF5
:1002C00010BDC046000000003C150020346A00103C
:1002D000E1210023034A09020133108002328B42DC
:1002E000FAD17047F8220020F7B5304803F086FCB9
:1002F0002F4CF02723680025986805F049FFEF236D
:100300000022009311002B4800F083FBD0238022B1
:100310001B0652025A61802252039A617F00390003
:10032000F0226943244E254889195200013506F010
:100330001FFBF02DF3D1D02580232D065B036B61CD
:100340001F4803F05BFC2368F027986805F020FF46
:100350001C4803F053FC23687F00986805F018FFE1
:10036000EF23002200931100174800F052FB802376
:100370009B026B6180239B03AB6100253900F02257
:100380006943124889195200013506F0F1FAF02D3F
:10039000F4D1D02380221B0692035A610C4803F04B
:1003A0002DFC2368986805F0F3FEF7BD386A00104D
:1003B000680B0020541F0020F822002000C00340DA
:1003C000456A0010546A00108C1F00200000044091
:1003D000626A0010F0B585B003F000FC9E4801F0A1
:1003E0001FF99E4803F00AFC9D4C2368986805F0AD
:1003F000CFFE192000F084FBD02380221B0692043C
:100400005A62984803F0FAFB2368986805F0C0FE2A
:1004100000F046F9944803F0F1FB2368986805F072
:10042000B7FE924803F0EAFB2368986805F0B0FE37
:1004300000F042F98E4803F0E1FB2368986805F06C
:10044000A7FE8C4803F0DAFB2368986805F0A0FE4D
:1004500000F0BCFA884803F0D1FB2368986805F0E7
:1004600097FE864803F0CAFB2368986805F090FE63
:10047000F8200002FFF72CFFFFF736FFFA20C0003C
:1004800001F0CEF87E4803F0B9FB2368986805F0C8
:100490007FFEFC20C000FFF71BFFFFF725FFFA20BF
:1004A000C00001F0BDF8774803F0A8FB2368986806
:1004B00005F06EFE1F20FFF70BFFFFF715FFFA2078
:1004C000C00001F0ADF8704803F098FB236898680D
:1004D00005F05EFE6D48FFF7FBFEFFF705FFFA2013
:1004E000C00001F09DF86A4803F088FB2368986813
:1004F00005F04EFE01F01EF900292DD0FA2200234E
:10050000920001F0F9FB0023FA2704000093BF00DA
:1005100014260025009B5F485E435F4BF15803F0B3
:100520009FFB4F4B1B68986805F032FE02965A4EAF
:10053000029BF3185B68AB4213DC60036040440C21
:100540004440600144400521200001F097FB009BDE
:100550008B42FCD00091DBE7FA21890001F08EFB91
:10056000D1E701F0E7F8002969D0FA2200239200D0
:1005700001F0C2FB029BAA00F61833694349D35825
:10058000464A9C46E1235B01634401900393604625
:10059000634600781B7840B2C017084010804020A6
:1005A0001840461EB041404208405080202018406C
:1005B000461EB04140420840908010201840461E20
:1005C000B04140420840D0801807C0170840108151
:1005D00058070126C017084050819807C0170840E7
:1005E0009081100033405B420B40D381039BB444A5
:1005F0001030634527D1FFF777FE2B00D0228021F2
:1006000033405B421206890433421ED0516101F02F
:1006100091F800291BD0FA220023920001F06CFB14
:10062000029A1D4B9B18DB68019A821A934204D9E7
:10063000019A9B18181A00F0F3FF013577E739008B
:1006400001F01CFB96E70200A1E79161DFE73900AA
:1006500001F014FBE4E7C046B80B0000726A00101A
:10066000680B0020776A0010846A0010916A0010FD
:100670009D6A0010AB6A0010BB6A0010CD6A0010C2
:10068000D66A0010E16A0010EB6A0010DEFF00007D
:10069000F76A0010026B0010906A0A10F82200201E
:1006A00010B5162000F02CFAD02380221B06D203AE
:1006B0005A625A6110BD0000F8B5414D4149280009
:1006C00005F054FCC023022607278024CF203E4A91
:1006D0009B01D31869681E602B6864017B4003404E
:1006E00028198024A40112193140384C036011608C
:1006F0000620012100F0ECF93800012100F0E8F9B2
:100700002000304905F032FCC023CF20304A9B0145
:10071000D31861681E60236831407B40034080200D
:1007200040012018036080239B01D21811600A2029
:10073000012100F0CDF901210B2000F0C9F91420AE
:1007400000F0DEF9D026802336065B0373621020AA
:10075000736100F0D5F980235B027362122000F010
:10076000CFF98023DB0273621520736100F0C8F9B2
:1007700080239B0373621120736100F0C1F9802311
:100780009B027362132000F0BBF9802314221B0329
:10079000736273610F4B15215A60043A9A600232FA
:1007A000DA6000221D601A615A610B4B59600439EE
:1007B000996002311C60D9601A615A61F8BDC04667
:1007C00000C0034040787D0104C0034000000440A5
:1007D00004000440541F00208C1F002037B5150072
:1007E0006A460C00D11D01220C7014009C402300AD
:1007F000D0242406A3611300AB401D00A36106F0C2
:10080000B7F8656137BDF7B501241F000192099B58
:10081000089A0500FFF7E2FF2300099AD0269340CB
:1008200036067361089B3A009C402800B461019928
:1008300006F09EF87461F7BD0122C368F0B5D026BA
:100840009A4099B036060468476885680391029219
:100850000F20B26100F0E4FE029B7820736100F08B
:10086000DFFE2B003A0011212000FFF7B7FF7820B0
:1008700000F0D6FE5523052604AA13702000543B31
:100880003A2101950097FFF7BEFF32004E490EA8AE
:1008900002F064F8330020000EAAB22101950097FF
:1008A000FFF7B1FF352305AA13702000B72101958A
:1008B0000097343BFFF7A7FF192306AA1370200007
:1008C000BB2101950097183BFFF79DFF2C2307AA3A
:1008D00013702000C021019500972B3BFFF793FF79
:1008E000012308AA13702000C22101950097FFF789
:1008F0008AFF122309AA13702000C32101950097D3
:10090000113BFFF780FF20230AAA13702000C421A7
:10091000019500971F3BFFF776FF0F230BAA13707B
:100920002000C621019500970E3BFFF76CFF264B78
:100930000DA89919033E320002F010F83300200090
:100940000DAAD02101950097FFF75DFF1E4B0C36D5
:100950003200D91D10A802F001F83300200010AABF
:10096000E02101950097FFF74EFF1749320015313E
:1009700014A801F0F3FF3300200014AAE12101952F
:100980000097FFF740FF039B0CAA13702000012380
:10099000362101950097FFF736FF2B003A00200023
:1009A0002121FFF71BFF2B003A0020001321FFF746
:1009B00015FF2B003A0029212000FFF70FFF3220FE
:1009C00000F02EFE19B0F0BD606C0A1010B5A02129
:1009D0000348FFF731FFE0210248FFF72DFF10BD6C
:1009E000541F00208C1F002037B515006A460C00EC
:1009F000D11D01220C7014009C402300D024240639
:100A000063611300AB401D00A36105F0B1FF656198
:100A100037BDF0B5076985B07F1801694568CB1807
:100A2000416901938B1802930A9B86680468CB186E
:100A30002A00200003932A213300FFF7CFFE390A52
:100A400033002A002000C9B2FFF7CEFF33002A008E
:100A50002000F9B2FFF7C8FF019B2A00190A200005
:100A60003300C9B2FFF7C0FF6B462A002000197996
:100A70003300FFF7B9FF33002A0020002B21FFF7D6
:100A8000ADFE029B2A00190A20003300C9B2FFF70D
:100A9000ABFF6B462A002000197A3300FFF7A4FF52
:100AA000039B2A00190A20003300C9B2FFF79CFFFC
:100AB0006B462A002000197B3300FFF795FF3300B7
:100AC0002A002C212000FFF789FE05B0F0BD0000B0
:100AD000084B8200D31810B51C6840236340C02423
:100AE0002340054CC00012191360044BC01841602C
:100AF00010BDC04604C0014004D001400040014088
:100B00000123D022834010B5120693620521936120
:100B1000FFF7DEFF10BD8023DB051868000F70476C
:100B20000FB407B5084803F069F8049B002B07D001
:100B300005A91800019102F0BBFE044803F05EF81D
:100B4000012002F0CDFEC046836C0A10916C0A10A1
:100B5000EFF3108072B6034A1368002BFCD0BFF38A
:100B60005F8F70472C0100D0BFF35F8F0022024BD4
:100B70001A6080F3108870472C0100D00722CB0840
:100B8000C35C0120114088401840431E9841C0B208
:100B90007047F8B505000C001700FFF7D9FF2100DA
:100BA00006002800FFF7EAFF002803D021003800E4
:100BB000FFF7B6FF07210123E2080C40A340A95C20
:100BC00030000B43AB54FFF7CFFFF8BDF7B505007E
:100BD00014001F000191FFF7BBFF0600BC4202D9C1
:100BE000012464420DE021002800FFF7C7FF002820
:100BF00012D10722012322409340E1086A5C13438B
:100C00006B543000FFF7B0FF002C07DA019B002B7C
:100C100004D00898FFF784FF0134DFE72000FEBD11
:100C2000044A1078431CDBB2172B01D813707047AD
:100C30001023FBE7A00A002007B5044B0100009336
:100C400018221F230248FFF7C1FF0EBD936C0A1044
:100C5000101B00200021044B044ABFF35F8F02C326
:100C60009342FAD17047C046000100D0800100D005
:100C7000074B10309B688000C150BFF35F8FBFF3FC
:100C80005F8F0021034B196082F310887047C046C4
:100C900000ED00E0240100D0054B064A1360064A2F
:100CA000136053609360D360136153619361704725
:100CB0008080808000E400E004E400E01F2318400E
:100CC0001E3B8340002905D0C021044A49005350EF
:100CD00013607047024AD367FBE7C04600E100E0BB
:100CE00004E100E001228240034B1B6813405A1EBE
:100CF0009341D8B27047C04600E100E00123834031
:100D0000014A13607047C04600E200E0024B103019
:100D10009B688000C058704700ED00E010B5FFF7F9
:100D2000F5FF044B2F22C31A00209A424041C0B263
:100D300010BDC046A40A002070B504000D00EFF3FA
:100D4000108672B60A4A1368002BFCD0BFF35F8F7F
:100D50002000FFF7DBFF074B984203D0A84201D0E9
:100D600000F07AFE320029002000FFF781FF70BDFD
:100D7000240100D0C1010010F0B587B004900391A8
:100D80000192EFF3108372B6574A05931368002B54
:100D9000FCD0BFF35F8F554F3B787F2B01D900F01C
:100DA0005BFE0C2300251C007D57514E6C439C4676
:100DB000A31902939B793B704E4B9A68049B1033A6
:100DC0009B0099588B1B2F2B1FD94B4B994201D05D
:100DD00000F042FE0C235D43484B02347353484BF2
:100DE0007519043B36199E1B464B474CAB80FF23BD
:100DF000AB71019B3605760DEB71039B26436E802C
:100E0000AB600121029B194333E0012308009843A2
:100E1000030000220090DF79019887422FD8002A32
:100E20003AD00627D757131D9C463748002F31DB91
:100E300093882F4E5B051B150434A41963441C1BB7
:100E40002405640D0443A4B26646029B9571043BDD
:100E50009B1B1B055B0D034393800C235D43244BBD
:100E6000ED182A4BAC802B60019BAF71EB71039B9B
:100E7000AB60059A0498FFF7FBFE07B0F0BD0627AC
:100E8000DF57002F04DB624657431A00F319C2E70D
:100E90001A00C6E71E4CD7E7154A1E49009B9B1A4D
:100EA0005B415943090D0C235D43144BA61CAB5207
:100EB000134BB618043B9B1B1B05134E5B0D5519BA
:100EC00033436B800434009BA4181C1B019B043C1F
:100ED000EB71039B2405AB60009A0C4B640D34430B
:100EE000AC80A97113608CE7240100D0F8E40120E4
:100EF000A40A002000ED00E0C101001000A1FFFFE6
:100F0000D40A002001BDFFFF00E0FFFF0148804739
:100F100001BD0000AAAA000001230343F0B51E0092
:100F2000EFF30581EFF3108772B61C4B1B68002BA3
:100F3000FBD0BFF35F8F1A4A04001A4BA41A644116
:100F400063431B0D5BB29C46174B89009B681400E2
:100F50005B581D000023B54214D1134B134A9B6804
:100F60005A50134B1A78827162461A70BFF35F8F22
:100F700000230A4A136087F31088F0BD01330C3454
:100F8000042BEED0062161566145F7D10C214B436D
:100F9000D218FF239371074B9380E2E7240100D01E
:100FA000A40A0020AAAA000000ED00E0C101001080
:100FB000F8E4012001BDFFFF07B5064B01000093D7
:100FC000002205230448FFF701FE002801DB1F2350
:100FD000181A0EBDAE6C0A1015E50120024BC91897
:100FE000890001607047C0464000003410B504001D
:100FF000FFF716FE01002000FFF7F0FFFF2323712B
:10100000BFF35F8F10BD10B50400FFF709FE0100AC
:101010002000FFF7E3FFFF23A380BFF35F8F10BD26
:1010200010B50848084B984200D310BD040003686F
:101030000834002B03D0FFF7E6FF2000F2E7FFF7AC
:10104000D5FFFAE7A8130020B0130020034BC918FE
:1010500089000160BFF35F8F7047C04640000034D5
:1010600010B504000120FFF7E7FD01002000FFF7A5
:10107000EDFF10BD0A4B1868EFF3108272B60168DD
:101080000029FCD0BFF35F8F1B68BFF35F8F002187
:10109000196082F3108840BF002000217047C046CD
:1010A000A8210020F0B58BB0EFF3058203231A408E
:1010B0009F4B07929200D4580123079A93400893BC
:1010C000089A9C4B1A609C4B089A5A630822A35EAC
:1010D0000493002B65DB18255D43636996485D1911
:1010E000AA68EB680092019300F0F8FA009A019B5D
:1010F000801A9941002954DB019B002B00DA7CE027
:101100002B698E4A6E69934200D064E030003369E7
:101110009847002800D170E07768366833003B4379
:1011200000D16AE0002F00DB5FE0009A019B921B78
:10113000BB4102920393029A039BAA60EB600023D7
:10114000EA5E0092002A2CDB029E039F182263694C
:101150000993009B5A43099B99188868C968361AF5
:101160008F41002F1DDB009B238108239C46A44454
:10117000182202980399009B5A43099B9F18BA684A
:10118000FB68801A9941002906DB3B0000229A5E29
:10119000BC460092002AEBDA009B049A2B8063463F
:1011A0001A80A3881BB2002B3EDAA379002B0AD049
:1011B0000023A3710822A35E182220009446083061
:1011C0005A1C00D072E00823E25E002A00DB87E0B0
:1011D00040BF0BB0F0BD0821605E6A88000431009A
:1011E0001043984706000F0098E7534800F076FA3E
:1011F00080197941029003919DE72B882169238111
:10120000EFF3108372B60A68002AFCD0BFF35F8F39
:1012100062882A80049A62802269BFF35F8F00216E
:10122000116083F31088BCE72169EFF3108272B676
:101230000B68002BFCD0BFF35F8F0121A3884942CC
:10124000A1801BB22169BFF35F8F0020086082F389
:101250001088220008320992002B00DAA5E76269A3
:10126000944618225A4362449068D16804900591CC
:10127000099900910821655E002D0CDB18266E434C
:101280003100049E059F614402918868C968361A3E
:101290008F41002F05DA00990B800021535E1580E5
:1012A000DAE70299009100254D5FE5E76146594371
:1012B00065696A186D5E518809B200290EDA082640
:1012C000A15F01267642F7179660D7608B4203D064
:1012D00005802189118023812B0071E71000FBE735
:1012E000182353436269D3189E68DF68731C01D1C9
:1012F0007B1C0ED0079B104D9B005B19A96A1A69D5
:10130000701A521A904203D32A6A0899114200D1E6
:101310001E61094800F0E2F9361A8F41002F00DD06
:1013200056E700D0CFE6002E00D1CCE650E7C0460D
:101330007C1F00203C70054000400540A5100010B7
:10134000F8B5C160040016001F000D00FFF768FC2F
:10135000D022267012061268154B62700122C01846
:101360005242BBB2638122819B18A28019326380F2
:101370009446002380002061BB4212D101270D4B0F
:10138000B200D4503C00B44030002C620A49FFF750
:10139000D3FC39003000FFF791FC084BED182C60AE
:1013A000F8BD614659436269581E88520133E3E72C
:1013B000400000347C1F0020A510001038200000E1
:1013C00010B5094C2369002B09D10321074800F00F
:1013D0007BF91023032220000449FFF7B1FF0A2103
:1013E0000348FFF7FBFD10BDEC0A0020004005405C
:1013F000A821002010B5074C0300626A002091422A
:1014000006D8A46A01309C4202D2881A431E984131
:1014100010BDC0460040054000487047EC0A00205F
:10142000F0B501000569EFF3108072B62C68002C4E
:10143000FCD0BFF35F8F02240D5F18246C434E690C
:101440003419002D01DB26884E800E69BFF35F8FB3
:101450000027376080F31088BD422CDBE36063888F
:101460000598013320615B0406985B0CA260606103
:101470001A1CBB4200D1012290B22B046280184397
:101480000E69EFF3108372B63268002AFCD0BFF306
:101490005F8F8A8822808D800A69BFF35F8F002466
:1014A000146083F3108801220B789A40CB680349BB
:1014B0005B181A60F0BD01204042FBE73C200000B1
:1014C000F7B51F000AAB1C7805001600002C09D0E8
:1014D000099B32000193089B280000933B00FFF713
:1014E0009FFFFEBD00F026F932003B00121A8B412F
:1014F000002BEDDA2000F4E7030070B55A890814D8
:10150000824201DC002070BD1822424358691C69E8
:101510008218EFF3108572B620680028FCD0BFF364
:101520005F8F568889B20020B4B28E4205D18021E7
:1015300009020C435480013098711A69BFF35F8F20
:101540000021116085F310888842DBD001221978D0
:10155000DB688A4001495B181A60D4E73C20000030
:1015600040787047F0B506000F0006246442E51786
:10157000A4197D4185B08D4202D803D1844201D99E
:101580000024002500F0D6F822002B00121A8B410F
:10159000002B08DC01D1002A05D13000390000F011
:1015A000DBF805B0F0BD002302930193104B22003D
:1015B000009310482B00FFF783FF0028EDDB20008D
:1015C0002900FFF717FF0028E7D10B4B1868EFF34E
:1015D000108272B601680029FCD0BFF35F8F1B68D0
:1015E000BFF35F8F0021196082F3108820BFE6E708
:1015F00075100010EC0A0020A821002070B504002E
:101600000D0000F097F800196941002902DA012065
:1016100002494042FFF7A6FF70BDC046FFFFFF7FB3
:10162000FA2210B500239200002101F02BF9FFF7F8
:10163000E5FF10BDF0B504000D0087B0EFF30583A2
:101640000493002B02D0200029002AE01C4FFB68E5
:101650003E781800059300F041F802000B000436B4
:101660000599B600715820008E1A2900801A9941F8
:101670000B0004990200994204DC01D1964201D882
:1016800020BFE0E70023029301930E4B220000935A
:1016900038002B00FFF714FF290006002000002E61
:1016A00003DCFFF7A7FE07B0F0BDFFF7A3FE00289D
:1016B00000D120BF31003800FFF71EFFC3E7C0464E
:1016C000EC0A00207510001010B5024A0248FFF71E
:1016D00060FA10BDD86C0A10F72200200300416A9E
:1016E0000A00986A596A8A42FAD17047416A994257
:1016F000FCD3994202D1816A914200D37047416A7A
:10170000F7E770B514001D000600FFF7E7FF0200C1
:101710000B00A4185D41A94202D804D1A04202D90D
:1017200001246442E5172B0030002200FFF7DEFFA2
:1017300070BD000010B50248FFF7D0FF10BDC046D5
:101740000040054010B502000B000248FFF7D9FF2A
:1017500010BDC0460040054010B502000B00024815
:10176000FFF7C4FF10BDC04600400540F7B50C248C
:1017700044430193264B0092E4186368089A0500DD
:101780000E00934200D26260C0232F1F9B01FFB264
:10179000E318012F1FD8012E1DD103221A60A36860
:1017A0003342FCD0009A236852015A40E0231A4089
:1017B00080235B01E1180A60012F1DD9802380225C
:1017C0009B01E31812011A60089B019A6360114B98
:1017D000AD00EA50F7BD802212011A600D4BAA003D
:1017E000D1580029DED0586900F048FA431C032084
:1017F00058430338FDD2D5E70322236873401340D2
:101800000B600123B340A2681342FCD0D6E7C04668
:1018100000800040141B0020F7B505000E001800E2
:101820000899170000F02AFA089A03001402310000
:101830003A0028000094FFF799FFF7BD13B5802404
:1018400064000094FFF792FF13BD0000014B80007D
:10185000C0587047141B0020F8B504001F4817003B
:101860001E000D0000F00AFA0100380000F006FA30
:10187000069A3304120313432268002A0FDA3F2129
:1018800022680A40AA420AD1A2681205120D8242B9
:1018900005D1EE21E268C9020A409A421CD0104AE2
:1018A000104EA1184A42514101220C318A400E4982
:1018B0000A600E490A60170031688F43391EFAD159
:1018C0000B4A2131A2182560A0601160216800290F
:1018D000FCDAE36008231360F8BDC046001BB700C4
:1018E0000040FDBF08C0004000E0004000F00040A4
:1018F00004300000024B1A68024B5A607047C04621
:101900006C1F00200080054003008020124AC005A3
:1019100010B5124C106012480460E020114CC00455
:10192000002906D02060002B05D180231B062360F0
:1019300010BD1060F7E7FA208022C000584352041F
:10194000094B904205D21860FFF7D4FF8023DB05D6
:10195000EDE7064A1A60F7E700B00540FCFF01001A
:101960000820014000A005406C1F0020FFFFFF0081
:1019700070B50400100080220A4BD2051A600A4B91
:10198000002C0CD00125094A2C43DA61084A624038
:101990001A6259629C620021FFF7B6FF70BDDC61DC
:1019A000F9E7C04600B0054000800540D3C007B04D
:1019B0002D3FF84F8023024A9B000B43D3627047B0
:1019C00000800540142310B50100188804331B88DB
:1019D000984710BD162310B50100188802331B88E4
:1019E000984710BDF8B50E00040000270125B74246
:1019F00001D12800F8BD2068FFF7E4FF01C4431EB1
:101A00009841404205400137F1E7000070B50400FD
:101A100005480D00FFF7D6FF03000020844201DBDC
:101A20000130A0402900984755420000AA22064BE9
:101A300012011A608D225200DA600449044A1160D2
:101A40005A68002AFCDA70470040024000B0FA00F1
:101A5000006002407047000010B50148FFF760F8D1
:101A6000FA6C0A1010B5044C044B9C4200D310BD14
:101A700008CC9847F8E7C046F06900102C6A0010BF
:101A8000054B064A06491A60064B074A13601800C0
:101A90000A689043FBD1704700E00040BFCDFBFED9
:101AA00008C00040FE7F3C0000F00040044BDB6CAF
:101AB000002B03D18022034BD2021A607047C0462C
:101AC000000011504C201150044A054B1A60054A81
:101AD0001368DB018033FBD17047C046FFFFFF0175
:101AE00000F0004008C000404022034B9A675A674C
:101AF0001A67DA667047C04600F0014010B5FFF77C
:101B0000A9F810BD70B50B490B4C0C4D641AA4100C
:101B10002200302C00D930222800920000F01EFF55
:101B2000074B2F2C02D9074B9D6070BDA200AB5014
:101B30000134F6E700010010C00100100000002091
:101B4000C101001000ED00E0002373B5284DAB6724
:101B5000FFF76CFF0122274B1A606B6C012BFCD145
:101B60000322254B1A60AC6B012CFCD10226052503
:101B7000210000960623214A2148FFF76DFE2B0025
:101B8000210000951F4A2048FFF766FE3100002221
:101B900004201E4BFFF752FE2800210000221C4BA0
:101BA000FFF74CFE0022072011001A4BFFF746FEFC
:101BB000002208201100174BFFF740FE802300226F
:101BC000DB00110000930920124BFFF725FE0022D5
:101BD0000F4B11000620FFF731FE0420FFF736FE01
:101BE0000D4900F04BF801000020FFF7E3FE73BD44
:101BF000008000403CB0004030B00040002F6859E9
:101C000000800240008C864700C00240001BB700E5
:101C100040597307006CDC0240420F000148042168
:101C2000014B1847100B0020E5190010124A936F62
:101C30009B0815D29066D166002905D0FFE7FFE723
:101C4000FFE7516F106F704704B580210906C21776
:101C50005140002800D0C84304F072FE002104BDAA
:101C6000F0B5146E556E576F166FFFF7E3FF1466ED
:101C7000556657671667F0BD000000D0114A936F94
:101C80009B0813D210665166002905D0FFE7FFE7D5
:101C9000FFE7516F106F704704B5002801D0002096
:101CA000C04304F04DFE002104BDC046F0B5146EE3
:101CB000556E576F166FFFF7E5FF14665566576749
:101CC0001667F0BD000000D094464A4A926F920811
:101CD000624601D228E0C046F0B5464E346E756EBD
:101CE000776F366F00F020F89446424A14665566C6
:101CF000576716676246F0BD94463E4A926F920857
:101D0000624601D254E0C046F0B53A4E346E756E6C
:101D1000776F366F00F04CF89446364A1466556675
:101D2000576716676246F0BD002B24DB11D00029EF
:101D30003EDA00B5C943404200D1013100F038F825
:101D4000C943404200D10131DB43524200D101334B
:101D500000BD002AEBD1002801D1002905D00020C8
:101D6000C90FC90701D1C043410800B504F0C8FD3F
:101D70000022002300BD00B500290ADBDB435242EC
:101D800000D1013300F014F8C943404200D10131C1
:101D900000BDC943404200D10131DB43524200D172
:101DA000013300F005F8DB43524200D1013300BD9E
:101DB000002923D1002B18D1002A0CD0BC460D4F8E
:101DC00038667A6600210023FFE7FFE7FFE77A6FB6
:101DD000386F67467047002801D00748010000B5FA
:101DE00004F08EFD0022002300BD02000B00002045
:101DF00000217047000000D0FFFFFFFF002B00D044
:101E0000BFE0130C28D1002AE7D080B4114F396607
:101E10007A66FFE7FFE730B4040C7B6F396F1B0471
:101E200023433B667A66FFE7FFE7FFE7C04684B2DD
:101E30007B6F3D6F1B0423433B667A66FFE7FFE73A
:101E4000C04600232C042D0C7A6F386F00196941AD
:101E5000B0BC7047000000D0F0B594460025140EC9
:101E600001D112020835140F01D112010435940F6B
:101E700001D192000235D40F01D152000135D40BAB
:101E80000134254F7C66254C3C660E0C93B2FFE76F
:101E9000FFE7FFE73C6F6643360C7703BE467343AC
:101EA000DF0B5B04C01AB941130C7343DB18C91A6A
:101EB000CE086643360CB64493B273431F0F1B0122
:101EC000C01AB941130C73431F0B1B05C01AB9414B
:101ED000860D8F023E436643360C092D24DB520AE1
:101EE0007243801A7703460A6643360C16235B1B3F
:101EF000DE40DF40BF1964466643821B70460435EE
:101F000006330100D940A840C01900D30131A242D4
:101F100006D20023F0BD0000000000D0FFFFFFFF4D
:101F2000121B0130F3D3F1E709277F1BFE40644603
:101F3000A2B27243801A00D20139220C7243130CF0
:101F40001204821A99410B007046043513370100C0
:101F5000F940A840801900D30131002B02D1A242E0
:101F60000AD2F0BD013000D30131121BFAD2013B7D
:101F7000F8D1A24200D2F0BD013000D30131121BD2
:101F8000F7E7F0B51C0C00D080E00CB400251C0A6B
:101F900004D11B02160E3343120208351C0B04D168
:101FA0001B01160F3343120104359C0B04D19B0017
:101FB000960F334392000235DC0B02D192185B413D
:101FC00001351C00971864410134464F7C66464C2D
:101FD0003C660E0CFFE7FFE7FFE7C0463C6F664339
:101FE000360C7703BE4697B27743C01B00D2013947
:101FF000C01B00D201399FB27743C91BC91B170C04
:1020000077437E04FF0B801BB941CE086643360C34
:102010000C2D33DBB644120B1F053A431B0B97B252
:102020007743C01B00D201399FB27743C91B170CFD
:1020300077433E043F0C801BB941860D8F023E431F
:10204000664329277F1BFE400C3D7746AF40BF19F2
:1020500030BCA2B2ABB272437343801A9941220CD6
:102060007243130C1204801A994102000B000137CD
:10207000001BA941F9D2781E0021F0BD0C277F1B5F
:10208000FE4077467F0BAF40FF19E0E700245D1C60
:1020900007D0144F7D663966FFE7FFE7FFE7FFE7EC
:1020A0003C6F95B29EB265436643401BB141150C2F
:1020B0001E0C6543664336042F0C3E432D04401B23
:1020C000B141994204D202000B0020000021F0BD72
:1020D00001D19042F7D3801A994101349942F2D349
:1020E000F6E70000000000D0FFFFFFFF484041403E
:1020F000484018B41B4B5B68FC46019308BD04DFE5
:102100005723001018B4174B1B68FC46019308BDF9
:1021100000DF612300109446134A926F920809D29F
:10212000624618B40F4BDB68FC46019308BD0CDF18
:10213000192600100C4AF0B5146E556E576F166FC5
:102140006246FFF7EEFF084A146655665767166742
:10215000F0BD18B4034B9B68FC46019308BD08DF33
:10216000BD240010A41F0020000000D0FFB5504087
:102170004240504059404B40594000E0FFB5154F98
:102180004C00640D03D0BC4204D10C0314D80020D1
:10219000090D09055C00640D03D0BC4204D11C0389
:1021A0000AD800221B0D1B0501264B4009D44B40C9
:1021B00003D58B4200D18242FFBD9942FCD19042AF
:1021C000FFBD0B43DB1803431343F5D0C943491844
:1021D000FFBD0000FF07000000B5FFF7CFFF804103
:1021E00000BDC04600B5FFF7C9FF01D9002000BD02
:1021F000012000BD00B5FFF7B9FF01D9002000BDE7
:10220000012000BD00B5FFF7B1FF804100BD0120F6
:1022100040054A00121804D85A00121801D80020AC
:1022200070470120704700000021002805D1704749
:10223000C1174840401AFAD0C90713B5064B1B68AE
:1022400098470CBC441CA2401005120B0349091B03
:1022500009051943114310BDA42000201F040000EC
:1022600010B54C00620D8023D218DB00D21A5B053A
:102270007E2A10DD9E3A13DACC1709034908194368
:102280005242D140640001341532202A05DAD04090
:102290000843604310BD002010BD0846604310BDD8
:1022A000C80FC018013810BD18B4044B5B6AFC4657
:1022B000019308BD24DFC92700100000A41F0020DF
:1022C000132370B51C78114D012C0ED10023104939
:1022D0009A000133A950202BFAD10D4BAB640D4865
:1022E000FFF770FB0C4B186070BD012CF5DD0B483F
:1022F000FFF770FB06000A48FFF76CFB80223100F5
:10230000280000F02BFB022CE9D1E6E7A41F0020F7
:10231000252300104C330000A4200020534400006B
:102320005346000007B5604601880A0A0230DF2ADA
:10233000FAD1C9B2820804D302884088000410434D
:1023400000E00068014A5050039007BDA41F002020
:102350000FB403BC0CBCF0B50124E407634000E0FB
:10236000F0B50C0DCF0F661E3605891B640503D32F
:10237000C943404200D30131640D03D0661CF60A04
:1023800007D0E41B00207F00791C89078912803C5C
:1023900024031D0DDF0F6E1E36059B1B6D0503D339
:1023A000DB43524200D301336D0D03D06E1CF60A9D
:1023B00007D0ED1B00227F007B1C9B079B12803DFA
:1023C0002D032F1B661B58D4A446202E46DA203737
:1023D0001400BC401D00BD40F24033412A43801828
:1023E0005941CB0F05D0C943C0430022644250413C
:1023F000514162464D0D28D10D0D07D100281FD047
:10240000241940414941013A0D0DF9D0640006D329
:10241000013000D30131002C01D140084000013AC5
:102420000BD4941CE40A04D112051144DB071944AF
:10243000F0BDD907204B194300E0D9070020F0BDBB
:102440000029DDD1002CDBD1F0BD0132C6074008E8
:10245000CD0728434908002EE1D0D9E73C2E29DAE0
:10246000203E40371400BC4000D00124F240144309
:102470001A00BB401C43D317ACE7AC46202F08DA48
:1024800020360400B4400D00B540F84039412843DF
:10249000A5E73C2F0CDA203F40360400B44000D0C2
:1024A0000124F84004430800B1400C43C117EAE797
:1024B00010001900002494E70000F07FF0B50C0D27
:1024C000661E3605891BE60A6405640D02D0651C8C
:1024D000ED0A04D0002001210905803C2403A44614
:1024E0001C0D671E3F05DB1BE70A6405640D02D067
:1024F000651CED0A04D0002201231B05803C240347
:102500007740644497B484B296B27443070C7E4318
:10251000150C6F4380B26843361802D301200004C3
:102520003F183004350C00197D41844688B29AB2B8
:1025300050430C0C62431F0C7C438EB27E439219B5
:1025400002D301263604A4191604170C3618674165
:1025500001BC81B29AB25143040C62431B0C5C4330
:1025600080B25843121802D301200004241810042A
:10257000130C401863412D185E410020474106BCF2
:1025800088B293B258430C0C6343120C544389B283
:1025900051435B1802D301210904641819041A0C71
:1025A000091862416D1856410020474118BCF902D4
:1025B000720D1143F0026A0D1043ED020A0D03D1B2
:1025C0006D1940414941013B124E9B1B7600B342BD
:1025D0000ED26D0007D301300026714166463543A7
:1025E00001D1400840001B05C918E4072144F0BD93
:1025F0000BDA013306D1013004D101314F0D01D086
:102600004908F2E7E1070020F0BD0136310500205E
:10261000EBE70000FF030000F0B51C0D671E3F054F
:10262000DB1BE70A6405640D02D0661CF60A04D0C1
:10263000002201231B05803C2403D0252D06002603
:10264000F6432E661E096E66CE0FF619B446490093
:102650004F0D02D07E1CF60A03D000200021403F1F
:102660003F033E1BB600B444013F7F05C91B490828
:102670002E6F013676089C02950D25437543ED13A8
:102680007543AD1301356D10F603761B0CB4CC0207
:10269000450D2C43A2B2B3B25A43270C7B43350CF1
:1026A0006F43A4B26C431B1902D3012424043F19C5
:1026B0001C041D0CA4187D4124196D41009A91B28F
:1026C000ACB26143170C7C432B0C5F4392B25A436C
:1026D000A41802D301221204BF182204230C52189A
:1026E0007B41019C6C431B19520ED9010A434401E2
:1026F000A01A81B2B2B2514303145A43360C734349
:1027000087B27743D617D21900277E4136049B192A
:102710001704160C7F185E417316ED18F30100269E
:1027200080337541A90F06D16400690AE8055B0A88
:10273000184309D22FE00422944480337541A90A3A
:10274000A8059B0A184326D3404149412404009A16
:10275000019B0D005543641B4343E41A95B286B2B6
:102760007543170C7E43030C5F4392B25A43B6186D
:1027700002D301221204BF183204330C52197B41D8
:1027800052429C41002C02D40022013051414008A9
:10279000CA071043490802B06246D7079210084B97
:1027A000D218084B9A4203D212058918C919F0BDF4
:1027B0000020002A01DC3900F0BD01331905F5E7DE
:1027C000FD030000FE070000002200B5203200F0EB
:1027D00004F8080000BD000000220B150AD410B553
:1027E000944600F031F81414013400DA0021CB17BC
:1027F000144C20470020002170476244343A0CD426
:102800000C2A07DA04009140904052422032D44012
:10281000214310BDD843D94310BD203207D40C4604
:102820009440524220321141D040204310BD080054
:10283000C917203203D452422032104110BD180073
:10284000190010BDFB2700100A0DCC0F531E1B05ED
:10285000C91A520503D3C943404200D30131520D76
:1028600003D0531CDB0A07D0121B00206400611C3C
:1028700089078912803A1203014BD21A704700006F
:10288000FF03000051434343C9188C46110C83B227
:102890004B4310B4040C614392B280B25043624384
:1028A0001C041B0C001910BC59411304120CC01855
:1028B0005141614470470000132310B510481C7843
:1028C000FFF788F80100012C13D10E4C5422200090
:1028D00000F044F815230C4A990001336250202B74
:1028E000FAD12262E2610948FFF76CF8084B1860E0
:1028F00010BD012CF7DD8022024800F02FF8F2E72E
:1029000053460000A8200020152900104C33000079
:10291000A420002007B5604601880A0A0230DF2A99
:10292000FAD1C9B2820804D3028840880004104357
:1029300000E00068014A5050039007BDA820002025
:1029400001480421014B1847200B0020E519001015
:10295000014B1B6818470000200B0020014B5B68EF
:1029600018470000200B00207047F7B500930B9B21
:1029700004000E0017009B0720D00192099D019AC8
:10298000099B9818421B002D1AD10B9BC51B9B0756
:1029900023D4FEBD31002020009BA0470135099BB8
:1029A000FA1A0A9B52199D42F4D3099A0A990023F4
:1029B0008A4200D88B1ADB190193DFE7099DEEE705
:1029C000089B013D585D3100009BA047D7E70200FE
:1029D00031002020009BA04701350A9B7819AB42AB
:1029E000F5D8D6E7F0B589B0070010A80678149896
:1029F000059106920E990F9A139C079383071ED494
:102A000001250540002C07D0002D05D0002E02D155
:102A10000C23184200D0013C30239C4604E0202ABD
:102A200005D063468B540132129B9342F7D8302372
:102A30009C46002D03D0A24201D21F2A19D9C306F9
:102A40003AD543051AD4002A18D0129B9A4201D0D5
:102A5000A24213D1551E012A0FD0119B023A102B0E
:102A60000FD02A00119B022B21D11F2A0ED86225DC
:102A70001BE063468B540132DBE72A00119B102BCD
:102A8000F0D183060ED478251F2A0ED90390019227
:102A900000913800079B069A05990294FFF765FF9D
:102AA00009B0F0BD58251F2AF0D88D5401321F2AD5
:102AB000ECD830258D5401321F2AE7D82D25002E61
:102AC00005D12B25430702D40307DFD520258D54DC
:102AD0000132DBE7F0B597B00A921CAA0B9308CA43
:102AE0000D001278219C09900C92002B01D110222C
:102AF0009443620501D5002B1FD06122A10600D5A9
:102B000041221E000027D2B20A3A0D9230001E99CF
:102B1000FFF7B4F80D9ACBB29A188446D2B20929BD
:102B200001D83033DAB2202006A90918CA551E9AF6
:102B30007B1C964201D3834213D1209A01930592C4
:102B40001F9A0EAB04921E9A009303920C9A2900CE
:102B500002920B9B0A9A09980694FFF743FF17B05D
:102B6000F0BD1F006646D1E7F0B59BB00D9322ABD8
:102B70001B78209D0E932B00219C249F259E0A905C
:102B80000B910C92234303D1289A10339A43289235
:102B9000289B5B0504D52A00002322439A422AD0B1
:102BA000289A6123920600D541230022DBB20A3B1A
:102BB00009920F933A00330028002100FFF79CF898
:102BC0000F9BD2B2D318DBB29C4610901191092A08
:102BD00002D83032D3B29C4620200AAA121860468E
:102BE000099B099901335054A64204D801D1AF4240
:102BF00001D8202B13D1289A01930692279A12AB61
:102C00000592269A009304920E9A0D9B02920B99BC
:102C10000C9A0A980397FFF7E5FE1BB0F0BD109DD4
:102C2000119C0993C6E70000F0B595B00E931A9B6E
:102C30000F920A931B9B0A9A0B930B9B0C900D917E
:102C400010001900FFF7E3FA002811D10122D44B3C
:102C50000A980B995242FFF7D5FA002808D10122B1
:102C6000D04B0A980B995242FFF7B6FA002813D0BE
:102C70001E9B0A9A04931D9B0D9903931C9B0C9811
:102C800002930B9B009201930F9A0E9B00F0BCF9EC
:102C90000200100015B0F0BD002200230A980B9925
:102CA000FFF79AFA002800D165E1802212069446C7
:102CB0000A9B06930B9B6344079380231E9ADB00B9
:102CC0001A4011921E9A1A4201D106231C93069DA6
:102CD000079B069E079F1D4300D151E15800B24B50
:102CE000400DC018FFF7A4FAB04AB14BFFF731FA14
:102CF000B04AB14BFFF706FA079BB04A1B031B0B08
:102D00001A4304000D0030001100AD4B0022FFF704
:102D1000F0F9AC4AAC4BFFF71CFA02000B002000A4
:102D20002900FFF7EFF9FFF79BFA0990FFF780FA08
:102D3000A64AA74B06000F00FFF70BFA0022A54B8F
:102D4000FFF7E0F9FFF78CFAA34AA44B3900109083
:102D50003000FFF7FEF9060010980F00FFF768FA41
:102D60009F4AA04BFFF7F5F902000B003000390035
:102D7000FFF7BFF902000B0004000D00FFF7E9F9AF
:102D8000220006000F002B0020002900FFF7BAF9EF
:102D9000002212901391944B30003900FFF7BBF9D9
:102DA0000022924BFFF7AEF902000B003000390011
:102DB000FFF7B1F900228E4BFFF7A4F902000B00D8
:102DC00030003900FFF7A7F90F008021060022002C
:102DD0002B000020C905FFF78CF902000B00300022
:102DE0003900FFF78FF902000B0012981399FFF7D3
:102DF00092F90022714BFFF785F97E4B109C9C469F
:102E0000644400222305FFF7A4F9069A079B0600F5
:102E10000F00FFF7F7F900280AD0099B3000013BAB
:102E2000390009930022714BFFF775F906000F0076
:102E3000099B05246333C62B00D8A2E01E9B1B050B
:102E400023D533003B4311D0069807996A4A6B4B50
:102E5000FFF7D0F9002800D197E0069807990022E3
:102E6000674BFFF7B9F9002800D18EE01C9B099A47
:102E7000934200DC87E09D1A6B1E1C938023002484
:102E80001E9ADB001A431E9209941D9B00259C424A
:102E900000D21D1B02231E9A1A4010921E9A1A423B
:102EA00003D0634263415B421D40099B002B07D066
:102EB0000698079932003B00FFF72DF9069007911D
:102EC000002200230A980B99FFF786F9002809D001
:102ED00080200006844606990A00079961440B0089
:102EE000069207931E9A474B0D99134004931C9B1F
:102EF0000C9802930395069A079B009201930F9AF0
:102F00000E9B00F081F80200002C00D1C1E61E9B50
:102F100045209B0600D420300E9B0D990C9D561C1D
:102F2000A84705230593002303930A330293099BC3
:102F3000013CDB0F0193099B0D99DA179D18554051
:102F40000E9B32000C9804940095FFF7C3FD109B74
:102F50000200002B00D19CE60F9BC41A0F9B1A198C
:102F60001D9BA34200D894E620200E9B0D990C9D3A
:102F7000A8470134F2E70A980B99069007919CE65E
:102F8000099504245AE7002377E71C9B002B00D106
:102F90007BE7119B5A1E93411C9AD31A1C9374E72A
:102FA000FFFFEF7FFFFFEFFF01FCFFFFFB799F506B
:102FB0001344D33FB3C8608B288AC63F0000F03F5C
:102FC0000000F83F61436F63A787D23F71A379097F
:102FD0004F930A400000E03F1655B5BBB16B02406D
:102FE000EF39FAFE422EE63F00002C40000024405C
:102FF00000001840FF0300002D431CEBE2361A3F8F
:1030000080842E41FFF7FFFFF0B59BB0209E219FEB
:1030100009900A910B920C9332003B00300039006A
:10302000229CFFF7F4F8002808D0249B0393239BED
:10303000029303230193B04B009324E0012230005C
:103040003900AE4B5242FFF7C7F8002807D0249B47
:103050000393239B029304230193A94BECE70122E2
:1030600030003900A74B5242FFF7CCF8002814D0AB
:103070000423249A1A420DD0A34A24990193039160
:103080002399009202910C9B0B9A0A990998FFF7D9
:103090006CFC1FE003239D4AEFE70022300039005B
:1030A0009B4BFFF7AFF8002807D100223000390012
:1030B000984BFFF791F800280ED0249B00960197BB
:1030C0000493239B0B9A03930A990C9B09980294EF
:1030D000FFF7AAFD1BB0F0BD00220023300039002D
:1030E000FFF77AF8002877D03B003200002000215B
:1030F000FEF7FFFF012306000F000D93249B5B05E5
:103100006CD52200302112AB203A08940898251A79
:10311000092807D90898197001380890013390429E
:10312000F4D1202539003000FFF79AF8089B07906A
:10313000DA00794B9B185C681B680E930F94FFF7BD
:1031400077F802000B0030003900FEF7D2FF0E9A2C
:103150000F9BFEF7FEFF10901191FFF7A5F80400FA
:10316000FFF762F802000B0010981199FEF7C1FFFB
:1031700000226A4B10901191FFF744F800282FD0DD
:1031800001342000FFF750F802000B000E980F9951
:10319000FFF728F8002803D00024079B013307938A
:1031A000089B002B2AD00A26202D47D10323249ADE
:1031B0001340012B00D08BE0239B002B00D187E034
:1031C0000D9B002B02D10C331A4202D0239B013BF2
:1031D0002393302212AB6FE00D908FE7062490E727
:1031E0000022109811994D4BFEF7F6FF0028D7D119
:1031F000002C01D0E307D3D50134D1E70798FFF7BE
:1032000017F802000B0030003900FEF772FF0022B1
:10321000424B06000F00FEF7DFFF00280CD1002212
:10322000300039003D4BFEF7EDFF002804D10123AB
:10323000079A1340D31807930A2438E0089B0CAA76
:10324000013B0893172331009B1820000135EF182C
:10325000FEF714FD3031397020003100FEF70EFD0D
:10326000092C0CD83020089B12A95B19202D9DD069
:103270006A1C9D4205D12E234B551500DCE7040046
:1032800092E748551500F1E717230CAA9B180798F9
:1032900021000135EE18FEF7C9FC30310798317076
:1032A0002100FEF7C3FC0790002800D17EE7202D07
:1032B000EAD17BE7EA5401352399A94208D9202DA8
:1032C000F8D1249B01950393239B029312ABB3E6A1
:1032D000202DF6D00D9A12AB002A03D02D225A557C
:1032E0000135EEE7249A520701D52B22F7E7249AFD
:1032F0001207E6D52022F2E7846D0A10FFFFEFFFE8
:10330000886D0A10FFFFEF7F7F6D0A107B6D0A103A
:1033100065CDCD4165CDCDC1906D0A100000E03F77
:1033200010B5002801D000F05DFC10BD10B50028DC
:1033300002D00B684968984710BD0000F0B59BB0FB
:1033400015000F938C4A8D4B209F0D900E911A60A3
:10335000002901D18A4B0D9300260BE00F9B01330E
:103360000F93252816D03200741C2B000D9E0E9949
:10337000B04726000F9B18780028EFD13200AE42EC
:1033800000D36A1E2B0000200E990D9CA047300030
:103390001BB0F0BD00230120082405E02D2A16D023
:1033A000302A0CD103430F910F9A0F9912780131F3
:1033B0002B2A0FD0F2D8202A0ED0232A0ED01000AC
:1033C000303809282CD800220A240B920EE0022261
:1033D0001343E8E70422FBE72343E4E71022F7E77F
:1033E0000B9A0F906243303A8A180B920F9A117819
:1033F000501C0A00303A092AF2D900200F9A0C908A
:1034000011782E2928D18021C9000B430F99013250
:1034100049780800303809283CD80A218C4615E044
:1034200000200B902A2AE8D104CF0B92824204DAC2
:10343000022213430B9A52420B920F91DDE7604632
:103440000C9A4243303A8A180C9222001178541C8C
:10345000080030380928F2D91078511C6C282CD07B
:1034600024D8682831D06A2837D011000C784A1C3B
:103470000F92782C04D8572C32D8452C5CD056D8D3
:10348000731C320020000B930E992B000D9CA0475B
:103490000B9E6FE72A29DFD104CF0C92D2430C99FF
:1034A000D21711400F9A0C910232D5E7742801D03F
:1034B0007A28DAD1802252000BE050786C28F9D1BA
:1034C000C02189000B43911CD0E75078682802D0B6
:1034D00080221343CAE7C021F4E780229200F8E774
:1034E000200058382028CBD803F04AFA4C00CAFFF5
:1034F000CAFFCAFFCAFFCAFFCAFFCAFFCAFFCAFF84
:103500004C00FB004C002600E8002600CAFF4C00DF
:10351000CAFFCAFFCAFFCAFFCAFF4C00B601CAFFF2
:10352000CAFF4301CAFF4C00CAFFCAFF4C00462C29
:1035300000D1C1E0472CA3D120222100914347298B
:1035400004D180221201134302229443452C01D15D
:1035500020221343072204930B9B073703930C9BF2
:10356000974302930CCF0E99009201930D982B0074
:103570003200FFF759FBB2E03D330010501F00202E
:1035800069290010782C47D0582C00D178E16F2C95
:1035900000D179E1622C00D178E110229343063A00
:1035A000692C03D0642C01D00C218B43590501D523
:1035B00001218B43802189001940692C01D0642CA2
:1035C00046D100292AD0072107378F433C0003CF7B
:1035D00008930B9B049207930C9B083406930023DB
:1035E0000593CB0F0293CB17119310934340149381
:1035F000119B4B401593149A159B10981199121A10
:103600008B41009201930E992B0032000D98FFF729
:10361000ABFA06002700ADE61022C5E73C1DD90530
:103620000DD5396805930B9B029204930C9B039371
:10363000CB0F0193CB17C9185940009124E039688A
:10364000580601D5C9B2EDE71806EBD509B2E9E78E
:1036500000290DD008930B9B072107930C9BFC1DA1
:10366000069300238C430492059302930CCCC8E785
:103670003C1DD8050FD505930B9B029204930C9B20
:10368000019103933B6800932B0032000E990D9833
:10369000FFF720FABDE73968580609D5C9B2059386
:1036A0000B9B029204930C9B039300230193C4E7AA
:1036B0001806F4D589B2F2E72022134307220493B7
:1036C0000B9B073703930C9B974302930CCF0E99E8
:1036D000009201930D982B003200FFF795FC060035
:1036E00048E602221A40129202220124134218D103
:1036F000320005E02B0020200E990D9CA0470C9A6B
:103700000B99531C0C939B1B8B42F3D300239942C0
:1037100001D00B00013BF6180B9B0224002B00D0BC
:103720005C1C01CF731C32000C930E992B000D9E74
:10373000C0B2B047129B002B19D00C9A12940AE029
:10374000531C139320202B000E990D9EB047129B03
:10375000139A013312930B9B12999942F0D30B9A4F
:103760000023A24200D3131B0C9AD3180C930C9E77
:1037700000E6390004C913920C9A1691002A01D16F
:103780000122524213990C008A182178002901D095
:10379000A24214D1139A1900A41A8022D200114017
:1037A0001791134203D00C9A944200D914000222BC
:1037B0001A4018920222134217D1320009E0013454
:1037C000E3E7531C129320202B000E990D9FB8475E
:1037D000129AA31B0B99D3189942F2D80023A14245
:1037E00000D30B1B0134F6181C1912960AE00C9337
:1037F000129B129A013319930E992B000D9FB84713
:10380000199B1293139B129A9B1B985C002807D05C
:10381000179B002BECD00C9B0C9A013B002AE6D1A5
:10382000189B002B15D0129A06E0561C2B00202066
:103830000E990D9FB8473200129B0B99E31A9B1803
:103840009942F2D80023A14200D30B1B129AD3183D
:103850001293169F129E8DE5212213430593082390
:1038600004930C9B320003931023029300230193D3
:1038700008CF0E9900930D982B00FFF72BF92EE738
:1038800020221343103A8FE608228DE602228BE6AF
:103890001FB50391012102900093044813004A428E
:1038A00002A9FFF74BFD05B000BDC0462D33001047
:1038B0001FB5094B1C68002C09D0012203000091A0
:1038C0000648524203A9A047012004B010BD00F0F1
:1038D00095F92000F9E7C046501F00202133001061
:1038E00000BEFDE7084A03001168002901D107491D
:1038F000116010680649C3188B4201D813607047E5
:1039000001204042FBE7C0464C1B002018E5012087
:1039100000000420030010B508001100002B05D1A1
:10392000044B1A685B6800F003F910BD01204042A7
:10393000FBE7C046D06C0A10013870B50D001400CA
:10394000012807D8012300222100280000F0B0F848
:10395000200070BD01246442FAE701204042704714
:1039600001204042704710B5FFF7BAFF10B5FEF7CF
:1039700079F8044C044B9C4200D310BD08CC984706
:10398000F8E7C0462C6A0010346A0010030010B536
:10399000080011001B68984710BD0000F8B50C0026
:1039A0000021437D0500160008008B421ED1110046
:1039B00020002B689847F8BD002927D0631E5B5C68
:1039C0000D3B5A425341DBB2625C4F1C0A2A0CD1B8
:1039D000002B0AD1814203DD091A2B682018984771
:1039E0000D4802212B689847380039008E42E3DCED
:1039F00086420DDD311A2B6820189847A419013C26
:103A000023780D3B5A4253412B75D4E72B7DDBE7DE
:103A1000002ED0DDF2E7C046E06D0A1070B505005B
:103A20000A4B1C68002C01D12C6070BD2368002B50
:103A30000AD0074B1B68002B01D09C4204D12900FF
:103A4000200004C9FFF7AAFF2469EBE73C1B002014
:103A5000481B00200B6870B505000C00802B02D1BC
:103A60000800FFF7DBFF21684B1C236064182571F9
:103A700070BD000010B5FDF75DFE0023054A121869
:103A80004B41002B02DA0122034B5242034802F061
:103A90008FFF10BD40420F00FFFFFF7FA8130020E3
:103AA00010B5024802F024FF10BDC046A813002044
:103AB000F0B585B006000C001D000092FFF7DAFF9C
:103AC0000190631C03D1300002F014FE0400144F77
:103AD000002D00D1134F144B1D68002D07D1019B01
:103AE000002B01D0FFF7DCFF200005B0F0BD2B68F4
:103AF000002B13D00D4B1B68002B01D0AB420DD116
:103B0000220031002800B847009B002B06D002ABF2
:103B1000D91D0A23012228000B70B8472D69DCE764
:103B20009D3900108D3900103C1B0020481B0020DF
:103B3000F7B506000F001D000192134B1C68002C06
:103B40000ED1124A536A9D4205D8926A01998A425F
:103B500017D29D4215D101200021FDF7F3FDECE7BE
:103B60000B4B1B68002B03D0A34201D02469E6E76E
:103B7000A368002BFAD03900300098470028F5DD03
:103B8000FEBD02204042FBE73C1B002000400540F8
:103B9000481B0020094A1368002B03D1002908D0D4
:103BA000106006E0834205D1002902D11869106037
:103BB000196170471A001B691032EDE73C1B0020A9
:103BC000054B10B51C68002C00D110BD6368002B9C
:103BD00000D098472469F6E73C1B002010B500F0A0
:103BE00099F910BD13B56B460400D81D01230022BE
:103BF00019000470FFF75CFF200016BD70B50500CA
:103C000002F078FD0123040001001A002800FFF7EC
:103C10004FFFFFF7D5FF200070BD000070B5A2B0C8
:103C200004000E00FFF726FF002322000193050089
:103C300033000A4801A9FFF72BFE019B0400002B6B
:103C400002D001A8FFF7EAFEFFF7BAFF002D01D06E
:103C5000FFF726FF200022B070BDC046553A001085
:103C60000FB407B504A901C90191FFF7D7FF03B04D
:103C700008BC04B0184770470022014B1A70704707
:103C8000F9E401204B790020FF2B0BD18B79834283
:103C900008D1CB79012B05D1082A03D98A78024BA8
:103CA00009301A707047C046F9E4012001207047BE
:103CB00010B5012921D112495379107909781B02D5
:103CC00003430020994219D15378012B0FD1D378A7
:103CD00091781B025A0A194390B2DB0501D40120E6
:103CE000404201231A407E331940FDF78FFE022B1C
:103CF00004D164220100FDF73BFE012010BDC04647
:103D0000F9E4012000487047046E0A1010B5040061
:103D100001200B00110083420ED153780020012BAB
:103D20000AD14B7912791B021343072B04D12000CF
:103D3000024A9F3301F0C8F810BDC046256E0A1034
:103D40000123037000487047E46D0A1048780B782F
:103D50008A7800021843120410439622CB7810B5DB
:103D60001B060343D200934205D10022012011001B
:103D70004042FDF74BFE10BD024B1860024B19602C
:103D80007047C046081B00200C1B002010B5024BDA
:103D90001878FCF7B3FF10BDFAE40120154B70B59D
:103DA000196800291FD0EFF3108272B60868002846
:103DB000FCD0BFF35F8F00210F485A6001701B6871
:103DC000BFF35F8F196082F3108800240B4E00252B
:103DD0003078FCF787FF002808D03078FCF78EFF9A
:103DE0002900200070BDFA24A400EFE7002400257C
:103DF000F6E7C046741F0020FBE40120FAE401202E
:103E000070B5FDF797FC00230E4A12184B41002BAA
:103E100002DA01220C4B52420C4C200002F0C8FD89
:103E200000280DD001256D422800002100F032FD50
:103E3000002001F04FF90028F6D1200002F058FDD3
:103E400070BDC04640420F00FFFFFF7FAC21002045
:103E500030B5294D85B00021280002F079FD0028F9
:103E600016D001200021404200F014FD002001F096
:103E70000BF90400280002F03BFD002C06D01F4B7C
:103E80001B68002B02D01E4A1068984705B030BD51
:103E90001C4A1368002BF9D0EFF3108172B6186832
:103EA0000028FCD0BFF35F8F0124174851600378CE
:103EB0001268DBB20470BFF35F8F0020106081F3E3
:103EC00010888342E2D1FDF7A7FA0400FDF732FC27
:103ED000FA220023920012184B41002B02DA012231
:103EE0000A4B524201210291002101910849200010
:103EF0000091FDF7E5FAC9E7AC210020081B00207E
:103F00000C1B0020741F0020FBE40120FFFFFF7F3B
:103F10009D3D00101FB5D0231B061C68FDF77CFAE1
:103F2000FDF71EFBA04202D0002004B010BD00210E
:103F3000274B08001B7801F0F9FB26480368002B8B
:103F400001D1FDF753F80120FDF736F8224C234943
:103F50002070C0B2FCF7F0FE01212078FCF7AEFE25
:103F60000520FCF7DBFE1E4C011E11D00120FCF7E2
:103F700063FE01002000FDF769F8002205201949C1
:103F8000FCF7FAFE18480121FFF704FE0120CCE7F8
:103F900008222000FEF7DCFCFDF73EFA0400FDF7E6
:103FA000C9FBFA220023920012184B41002B02DABF
:103FB00001220E4B524201210291002101910C4934
:103FC00020000091FDF77CFA0028ADDBDAE7C0465F
:103FD00044700A10AC210020FAE40120513E001088
:103FE000741F00208D3D0010300B0020FFFFFF7F6D
:103FF0009D3D001010B5002001F030F810BD00000C
:1040000070B505000C00FFF7F5FF002803D103246D
:104010006442200070BD002001F036F80028F6D080
:10402000FDF788FB0023154A12184B41002B02DADA
:104030000122134B5242134E300002F0B9FC00280B
:10404000E5D0FFF7D7FF002810D0002001F01CF8C2
:1040500000280BD022002900002001F021F8041EC6
:1040600000D1033C300002F043FCD2E701200324DE
:104070000021404200F00EFC6442F3E740420F0092
:10408000FFFFFF7FAC210020F7B501900091FDF705
:1040900051FB00232F4A12184B41002B02DA012258
:1040A0002D4B52422D4802F083FC00284FD0FFF7E1
:1040B000A1FF00284CD100200021294B1860596035
:1040C00042E0009B00205F1B01F060F80400B84252
:1040D00000DD3C00002C18D0019B22005919002063
:1040E00001F034F8040001200021404200F0D2FB2E
:1040F000002000F0EFFFFDF71DFB194B2D19186094
:104100005960009BAB42DCDC1EE0012021004042F4
:1041100000F0C0FB200000F0DDFFFFF76BFF002880
:1041200012D0200001F032F80028EAD10027FDF774
:1041300001FB0C4E0A4B1A685B6892197B4199424D
:1041400002D8DED19042DCD9044802F0D1FBF7BDA1
:104150000025D6E740420F00FFFFFF7FAC21002083
:104160003015002020A1070000487047606F0A103A
:10417000004870470C6F0A1010B50400144803780B
:10418000002B02D1112100F033F8002C0CD1114B7F
:10419000114A5A800123C0220133DBB20D485B0073
:1041A00092001343038010BD0020052CFBD80200B1
:1041B0000A4BA400E4580749A05CD3B20028EAD017
:1041C000013248800231132AF6D11300E3E7C046DA
:1041D00004E50120B421002009040000746F0A10D6
:1041E00010B5024800F026F810BDC046FCE40120DE
:1041F000F0B5002301250F260139994201D9102B72
:1042000002D10022C254F0BD1F00094C2F405A08B1
:10421000A25C3C0067426741BF003A413240D4B2E1
:1042200027003737092A00DC073FC7540133E4E78A
:10423000FCE4012070B50024092688B00500320096
:10424000210001A80094FEF783FB3200210005A89D
:104250000494FEF77DFB4B236A466846137004A95D
:104260000D2202F03DFB1521082228006944FEF7CB
:1042700075FB08B070BD00007F230340F0B5C40992
:104280005F00194D3E197601AE19B0700120A043B0
:1042900070700020F2769A01F0703183A818D9006E
:1042A000012C10D1114E8919816200203F197F0124
:1042B000EF19B9680860834209D164012D196B6058
:1042C0000B4BEB60F0BD0B4E89198160EDE7013BB4
:1042D000DB00AD18012C03D1074A9B186B62F1E794
:1042E000064A9B186B60EDE7501B002080001050C1
:1042F0000001105084001050080010500C001050A5
:104300003F22038B10B53F339343C27E022A00D174
:104310005B0005490A68D318C260044A0B609342E7
:1043200001D9FDF799FB10BD701F0020FF0F105041
:1043300070B500F0D1F80C234025124CFF22A36782
:1043400005201149FCF718FD2A0000210F48FEF74F
:10435000FFFA002229001000FFF78EFF290000223B
:104360008020FFF789FF02F0DBFA80230120802202
:104370009B052064E364064B90342360054B520296
:10438000DA6470BD00001150E1030020501B0020D2
:1043900010D001000020115010B501210520FCF7BC
:1043A0008DFC10BD002210B51100024800F0B4F8D9
:1043B00010BDC046701B0020044B1970002903D0AB
:1043C0008022034B92021A607047C046DE21002013
:1043D000902011500B785B0605D14B78052B02D14C
:1043E0008A78014B1A60704700001150CA78F8B5FE
:1043F00092070027920F012A22D07F258E78087914
:10440000497935400902014349053000490DFFF75C
:1044100033FF0137002D13D0F6096C00094BA419A6
:104420006401E4182000FFF76BFFE37EE168064AB1
:104430009B064A40134380221206134362681360AE
:104440003800F8BD501B00200000105010B502F0DD
:1044500067FA10BD10B57F200C0020404000E40931
:10446000110000191A00034B4001C01800F054F865
:10447000012010BD501B00207F22080010B5104005
:10448000CC09114203D107497D3A121B8A6680226A
:104490004000054B001940010021C018120102F034
:1044A0009FFA10BD00201150501B00207F220800F1
:1044B00010B5104011420AD00022C909400040182E
:1044C000034940010818C270024902F089FA10BD80
:1044D000501B0020FFF7FFFF80230A4A5B0410B542
:1044E0001360094A09481360190002689143FBD11F
:1044F000802207485201FEF72BFA0922054B5A6722
:1045000010BDC04600E0004000F0004008C0004080
:10451000000010500000115070B5837E04000D00A3
:104520001600002B01D002F053FA0023E38201337E
:104530002000A682A376256102F0EAF9002803D0C4
:104540008022074B92021A60200002F0C1F9002875
:1045500002D00123237770BD200002F031FAFAE780
:104560009020115070B505000C001600486900F04D
:10457000DFFC3200280001216369984770BD00000C
:1045800070B505000024154B1B785A1CA24211DAA5
:10459000134C542200212000FEF7DAF91022FF21EB
:1045A000201DFEF7D5F920002022FF211430FEF750
:1045B000CFF907E0A34206D90A4B62011B689B189A
:1045C000002B04D170BDE31A5A01074B9B18280039
:1045D000DB6801349847E4B2D5E7C046DC2100200F
:1045E000E12100208C150020E86F0A107047704709
:1045F0000020704700207047704770477047704731
:10460000024B5878431E9841C0B27047E121002008
:10461000024B18784007C00F7047C046E1210020C8
:10462000F8B5294B05001B780E000124FF2B02D1A1
:10463000002902D100242000F8BD00215422234883
:10464000FEF786F90022224C224B20001A70FCF75C
:10465000CDFC214B1C60214C20001430FCF700FDE8
:10466000200001F0EDFB1E4B1E4F1C601E4B002B6B
:1046700004D03800FFF764FB1C4B186000243B7823
:104680005A1CA2420BDA104B310028001D70FFF7B4
:104690004FFE041ECED02800FFF77EFECBE7A342DC
:1046A0000CD9124B62011B689B18002BC2D05B68AF
:1046B000002BBFD001349847E4B2E0E7E31A5A0177
:1046C0000B4B9B18F3E7C046640B0020E121002050
:1046D0002C170020F522002034170020480B002062
:1046E00038170020DC210020413D00108C150020EF
:1046F000E86F0A10702370B58A780C001A4201D056
:10470000002070BD064B20001D78064B997801F003
:1047100075F80028F4D021002800FFF767FEF0E7C5
:10472000640B0020E1210020F7B506000C001F00FB
:1047300000250192019BAB4201DC012003E063787C
:10474000052B01D00020FEBDE3789B079B0FBB42E9
:10475000F8D121003000FFF7CDFF0028F2D0A37878
:10476000DA09012A05D1099A137023780135E41872
:10477000E0E7089AF8E700007F2010B50840C90973
:104780004300343158180349034B0818196800F0E6
:10479000F1FF10BDE1210020341700207F2010B56B
:1047A0000840C9094300343158180349034B08181D
:1047B000196801F007F810BDE1210020341700202E
:1047C0007F2070B508400E4C4000CD0924186419B4
:1047D000303425790020ED0710D4012526790948C9
:1047E0002E4300782671FFF735FE002806D10422FB
:1047F0002379AB43237123799343237170BDC04662
:10480000E1210020640B002010B50B4B0C00187840
:10481000FFF732FE7F2121404B000849E409C91807
:104820000223091930310A7913430B7101230A79E4
:1048300013430B7110BDC046640B0020E121002022
:1048400010B50B4B0C001878FFF730FE7F210222C9
:1048500021404B000749E409C918091930310B7987
:1048600093430B710B79013A93430B7110BDC04612
:10487000640B0020E12100207F22CB090A4004497B
:1048800052008918C918303108798007C00F704765
:10489000E1210020F0B5B94B8BB01B78FF2B00D184
:1048A00089E2B74B1D686969EFF3108372B60A6835
:1048B000002AFCD0BFF35F8F07ACAB61210028005A
:1048C00001F0C5F96A69AB69BFF35F8F0021116020
:1048D00083F31088884200D16DE2607801380728A0
:1048E000DFD802F025F80800110091027702820259
:1048F000190043028A022078FFF742FE00F00EFB07
:104900002279A04B9A70CCE72078FFF739FE00F0AF
:1049100005FBFFF772FEC4E79B4A1378002B00D11A
:1049200049E21378013BDBB213701378D8B2002B45
:10493000B7D10126934D04212B78277833432B7070
:104940002B0034331A78B2431A701A788A431A70DB
:104950002B0035331A78B2431A701A788A431A70CA
:1049600000F0E6FA602322791340602B00D1BAE010
:10497000402B0AD1854800F0DBFA3100380008AA44
:10498000FFF7C4F900288CD1ADE0D206D20E012A7F
:1049900000D15FE1022A00D194E1002A00D0A2E018
:1049A000202B1ED1237A0F2B00D99CE0EB1819790C
:1049B000774B1B7899420BD2764B49011B685918EB
:1049C000002900D18FE008AA3800FFF7CBFDD9E716
:1049D0005A1C8A4200DA86E0C91A6F4B49015918FD
:1049E000F1E7002B7FD1607909287CD801F0A0FF86
:1049F00022011A017B0011017B000A00D8007B0014
:104A000016001C0008A800F099FA3800A179FFF7F9
:104A1000C9FC02232A7813432B7042E706AA6B785D
:104A200002321370012310E1A4796B789C4200D10B
:104A30009EE06B78002B0BD000213800FFF7BCFC08
:104A40003800FFF703FDAE783800FFF799FDAE7030
:104A50006C70002C00D189E0013CE0B2FFF788FBCC
:104A600000283DD043780393022B39D10121040063
:104A7000C2790934931152110B400A4012015B01B3
:104A800013432A782F318A4313432B70C3788278DB
:104A90001B021343C3180493049BA34202D8FFF7DD
:104AA000ABFD65E00122637801920B2B03D1E37823
:104AB00001932378E4186378042B11D10026049B1A
:104AC0001B1B9BB20593324B1D786B1C9E4207DC6F
:104AD000B54212D92F4A73011568ED18002D10D177
:104AE0000022284B5A7007AC20780021FFF7C4FC45
:104AF00080212078FFF7C0FCD3E6274B751B6D01A2
:104B00005D1921003800059A2B6998470290082802
:104B100029D9059B834226D3019B012B05D11F4B2D
:104B20002A699A4201D1039B019300221548019BF7
:104B30009A420DD133002100029A143000F08EFE0B
:104B4000029BE418124B1B7801339E42A4DDC7E799
:104B5000A378D318DBB2C3181979FF29C0D1013269
:104B60001E71D2B2E3E70136F6B2ACE7FFF745FDBE
:104B7000380008A900F096F993E6C046640B0020BF
:104B800038170020E1210020F52200200D3D001003
:104B9000DC2100208C150020E86F0A1085520010DF
:104BA000E3881A0A501EDBB20E289CD801F0F0FEF2
:104BB000081C259B9B2E1C9B9B9B9B9B9B9B1200DD
:104BC000FFF7D2FA1223021E8DD0380008A900F098
:104BD0007BF9D7E6FFF796F8021E00D183E7C3788A
:104BE00081781B020B43F0E71800022A02D1FFF77D
:104BF000BFFAF1E7FFF7FEFCEEE718002189FFF7A7
:104C0000BBFA021E00D16EE70378DEE7FFF7F0FC87
:104C1000F7E7E388012B00D065E72A7807331343D1
:104C20002B70A5E7E388012B00D05CE708222B78E6
:104C30009343F5E701212B7806AA58090840990803
:104C400002231940023201431180380008A900F004
:104C50003BF926E6237A0F2B00D944E7EB181979A4
:104C6000714B1B78994224D2704B49011B6859182B
:104C7000002900D137E7380008AAFFF773FC0028A5
:104C800000D00EE62279602315001D401A4200D0A4
:104C900029E763790A3B012B00D924E7280000F0BB
:104CA00047F963790A2B00D062E706AB9A1C1570AE
:104CB000B8E65A1C8A4200DA15E7C91A5C4B49016A
:104CC0005918D8E77022217A114200D00BE70F3231
:104CD0000A405200C809AA181218167D524A1278C2
:104CE000964216D2514A760112689619002B1DD1B0
:104CF000637902201A008243012A1BD0002B00D0C6
:104D0000F1E63800FFF7B8FD06AB9A1C10800223CD
:104D10009BE7501CB04200DA80E0B61A444A7601A4
:104D20009619002BE4D0310008AA4DE6002E00D1E0
:104D3000D9E6F8E7E288002A04D13800012B12D125
:104D4000FFF77EFD002E00D1ABE5310008AA380048
:104D5000FFF708FC3535002000F0EAF82B78DB0778
:104D600000D59EE504E7FFF74FFDEBE77F252179AE
:104D7000304B0D406800CA091B189B181A00012609
:104D800030321079B043107110790336B04310718E
:104D9000002D05D162792078A36800F0DDF880E568
:104DA000214A1B7D1278934207D2204A5B01126888
:104DB000D318002B08D10BB0F0BD501C9842FADB81
:104DC0009B1A1B4A5B01D3189D6962792078A368FE
:104DD000A84766E5174B1A78D20700D461E5187822
:104DE0000007C00FFFF70AFC5BE5124B1B78DB07DF
:104DF00000D456E5FFF703FC53E56368002B00D1B0
:104E00004FE5A06898474CE501220A4BDB78134236
:104E100000D146E56068FFF7EAFB42E50026002B7B
:104E200000D165E75FE6C046DC2100208C1500203C
:104E3000E86F0A10E121002070B5134B0600D989F4
:104E40009889421A151C92B2402A00D940251A7836
:104E5000ADB27F2A0ED9884211D00C4C2A00996835
:104E60002000FDF77BFD802122002B003000FFF7A2
:104E7000A7FC70BD884204D100210022F5E7802103
:104E8000FBE70021014AF0E718170020D8160020A0
:104E900049B2C943002310B5C90F1A00C901FFF771
:104EA0008FFC10BD70B5074E0500082230000C00C5
:104EB000FDF754FD00232800F3602178B360FFF76D
:104EC000E7FF70BD18170020F7B5134F1500060057
:104ED000082238000C000193FDF740FD0023BD605F
:104EE000FB81E379A2791B02019913431A1C8B42BF
:104EF00001D96A46928891B2BA81002B07D0002965
:104F000001D0281E02D03000FFF796FFFEBD300012
:104F10002178FFF7BDFFF9E71817002010B514221C
:104F200000210248FDF714FD10BDC04618170020EF
:104F3000014B18617047C0461817002010B5054C8A
:104F4000010008222000FDF709FD0023A360E360B3
:104F500010BDC0461817002070B5244C1E002378E1
:104F60000500DA09C9098A4210D00020864229D1F9
:104F700028002100FFF72EFA23690120002B21D001
:104F8000220003212800984701201BE07F2B06D830
:104F9000A368181E16D032001549FDF7DFFCA26881
:104FA000E38992199B19A260E2889BB2E3819A423D
:104FB00001D03F2E15D82369002B04D12800217879
:104FC000FFF766FF70BD0221220028009847011EEE
:104FD000F4D12800FFF750FA80212800FFF74CFA9F
:104FE000D2E72800FFF728FFECE7C046181700209B
:104FF000D8160020F8B50500FFF702FB002824D0E2
:10500000FFF706FB061E20D1C8236B43114AD718B1
:10501000F978002919D010339C18200000F003FE05
:105020003F2812D93000F978FFF7A6FB00280CD0F2
:10503000200000F0F8FDF9783F2807D9EA01064D75
:10504000402330005219FFF7BBFBF8BD3000FFF7DB
:10505000A5FBFAE7101600209015002010B50400FB
:10506000FFF7CEFA002801D1002010BDFFF7D0FADB
:105070000028F9D10123C8304443024800190079BF
:105080001840F2E710160020C823584310B5034B10
:105090001030C01800F098FD10BDC046101600205A
:1050A00070B50400C8206043074B1030C018074B90
:1050B0009A4200D9064A92B200F0EAFD05002000AB
:1050C000FFF798FF280070BD10160020FEFF0000BB
:1050D000FFFF0000F8B50700FFF792FA002801D1A2
:1050E0000020F8BDFFF794FA051EF9D1C8247C43CF
:1050F0002600144B2436F618300000F065FD002819
:10510000EED0104B28001C19A178FFF735FB0028C2
:10511000E6D00D48FF0140373F18390030004022EB
:1051200000F0B6FDA178061E08D003003A00280062
:10513000FFF746FB0028D3D03000D2E7FFF72EFB65
:10514000FAE7C046101600209015002070B5C8245C
:1051500044430B4B2434E4180A4B05009A4200D90F
:10516000094A200092B200F0E8FD0600200000F09D
:105170002BFD3F2802D92800FFF7ACFF300070BD9F
:1051800010160020FEFF0000FFFF0000C823584358
:1051900010B5034B2430C01800F045FD10BDC046CB
:1051A00010160020F7B50025144CC822002120005D
:1051B000FDF7CEFB124B40221D70FF236371E123EC
:1051C0005B02A36008230F49A3730F480095073BB8
:1051D00000F0C6FC012340220C4900930C4800F06B
:1051E000BFFC0C4F3800FBF701FF0B4E3000FBF704
:1051F000FDFEE561276226636563F7BD101600209A
:10520000DD210020481600202016002088160020EE
:1052100034160020C8160020D0160020074B1A6A4A
:10522000196B002A02D00022DA611A62002902D02A
:1052300000221A635A6301207047C04610160020EE
:1052400010B5052200210B48FDF782FB0A4C23789C
:10525000DB0702D4094800F0F3FD2378084C9B07D4
:1052600002D4200000F0ECFD0121200000F007FE38
:1052700010BDC04610160020DD21002020160020A1
:1052800034160020F7B54B790600022B02D000251A
:105290002800FEBD8B79022BF9D11E4FBB78002B65
:1052A000F5D18B7809253B700C780C1903E0237835
:1052B000ED18ADB2E4186378242B1BD19542F6D9D2
:1052C0006378042B12D163790A2B0FD1124B277804
:1052D0000193124B300000930223E1191A00FFF7EB
:1052E00023FA0028D3D00E35ED19ADB20020FFF718
:1052F00081FECDE7052BE3D121003000FFF7FAF95D
:105300000028C4D0A3787B702378ED18ADB2E418E0
:10531000D6E7C046101600201216002013160020F3
:10532000F8B5050060200B0011001278002402403F
:10533000202A43D12A4F4A790E7938781202324313
:1053400090423BD148782038032837D801F028FB19
:1053500002151838012B06D107232800214AFFF730
:10536000B3FD01242AE0032BFBD11F4B002BF8D007
:1053700000201C49FEF7EAFCF3E7012BF1D1EBE733
:10538000012B03D12800FFF78DFDEAE7032BE8D1BD
:105390000124CD788A7821002D0215432E00134870
:1053A0003D71A94300F06BFD114B2640002BD8D076
:1053B0006A0831000020224000E000BF2000F8BD54
:1053C000012BDFD0032BCCD10A4B002BC9D08B781B
:1053D000C97800200902194300E000BFC1E7C046B8
:1053E00010160020181600204D3D00103416002025
:1053F0000000000000000000F7B5314C0190009162
:105400001D00E3788B4205D0A3788B4211D0002594
:105410002800FEBD2B4F2C493800AAB200F08DFCAD
:105420002A4B002B0BD12A4B002B1DD10020FFF75C
:10543000E1FDA378009A93421ED00125E8E7637945
:105440000026FF2BEFD0AE42EDD01F4B62799B5D63
:105450009A4207D1380000F0CBFB002802D16179D5
:1054600000E000BF0136EEE7380000F0C1FB002885
:10547000DCD100E000BFD9E7164B002B02D00020A2
:1054800000E000BF0020FFF725FE0028D5D112481C
:1054900000F09AFB0028D0D1002DCED03F232E0063
:1054A0001E401D42C9D1A1780198FFF765F9051E7C
:1054B000C3D033003200A1780198FFF781F9A7E744
:1054C000101600202016002090150020000000007B
:1054D000000000000000000034160020030000203F
:1054E00010B5834202D1024900F029FA10BDC0462E
:1054F000C0170020932230B5002185B092001048DB
:10550000FDF726FA0F4B802402930F4B40250093A2
:10551000002364001A001900039501940B4800F061
:10552000B0F90B4B012202930A4B03950093002321
:1055300001941900084800F0A4F905B030BDC04638
:10554000BC1700203C17002008190020E418002098
:105550007C170020E4170020C017002010B5044875
:1055600000F0BFF9034800F0BCF9012010BDC046AF
:10557000E4180020C017002070B50025064C07482D
:10558000257000F05DFC064800F05AFC2A23FF332A
:10559000E554657170BDC046BC170020EC180020B2
:1055A000C8170020F7B501904B790D00FF2B0AD1E9
:1055B0000C780C19A3182A220093324BFF329E5C00
:1055C0005A7916435AD00020FEBD2378E418637838
:1055D000052B05D0009B9C42F7D3601B80B2F3E7FC
:1055E000009B9C42F9D221000198FFF783F8002824
:1055F000E9D0A3780136234FF6B2DB09012B1DD188
:10560000214800F01DFCA378204A7B716379217941
:105610001B020B435B055B0D9B185A425341022151
:105620003A795B008A43134300203B71FFF756FF32
:105630002378E4182B79B342C9D8CEE7144800F098
:10564000FFFB2A22A378FF32BB54637921791B0226
:105650000B430E4A94205B055B0D9B185A42534145
:10566000022140003A5C5B008A4313433B540949E2
:10567000019800F097F90028DAD1A4E78A781A7027
:10568000D8E7C046BC170020C817002000FEFFFF67
:10569000EC180020E41800202A22F8B51C001C4B4E
:1056A000FF329A5C05008A4218D05B7900268B4253
:1056B0002CD1184B002B03D00020A1B200E000BF7A
:1056C000154F2800390000F03AF9012600281DD1B5
:1056D00022003900280000F006F917E01A00FE3217
:1056E000D28E002A05D0FC33196B0C48A2B200F010
:1056F00024FB0B4B002B04D000200A49A2B200E08F
:1057000000BF2800084900F04DF901263000F8BD1F
:10571000BC17002000000000C0170020EC1800207B
:10572000000000003C170020E41800200A0013B518
:1057300000290DD16B4601245971100001A91C717B
:10574000FEF76EFF031E01D0094A1470180016BD43
:1057500000230128FAD809789942F7D0044B19544C
:1057600001239942F2D11100FEF75AFF0300EDE741
:10577000DF210020F8B503780400DB070E00DD0F01
:10578000002B1DD103785B07DF0F002B14DB0121F9
:105790003000494201F0E4F82378DB07DD0F002BED
:1057A0000CD123785B0704D404230125227813430A
:1057B0002370300001F09CF82800F8BD3D00F8E7A8
:1057C0000025F9E770B50D000121040049422800C9
:1057D00001F0C6F823785B07DE0F002B06DA23788A
:1057E000DB0708D40422237893432370280001F0B8
:1057F0007FF8300070BD0026F8E7000010B543794F
:105800000479C2781B0223435B0592075B0D920F5C
:10581000022A0DD00020032A12D0012A07D1023912
:105820004A4251410B4A891899424041C0B210BDC9
:105830000020022906D1084A981843425841F5E74A
:10584000022903D040229A424041EFE78022D20051
:10585000F9E7C046FF03000000FEFFFF70B57F269A
:105860008A18914200D370BD4C78052C06D18D78F2
:105870002C0034406400ED09041963550C780919B3
:10588000EFE7F0B585B015001A000AAB80CB040035
:105890001E880DAB1B88009203930123194008005A
:1058A00021783200994301432000217008303900EB
:1058B00000F056F9002F0DD0002E0BD026001C361C
:1058C0003000FBF793FB00239D4201D033000026FC
:1058D0006361A66101200C9B6360039B638005B03C
:1058E000F0BD01207047F8B50B7805000C001700DB
:1058F00040269B0701D58026B6002000083000F026
:1059000063F9002801D00020F8BD002FFBD0013E34
:105910003742F8D1012623783342F4D12800617848
:10592000FEF72AFF0028EED023781A0032403342D7
:10593000E9D1130028006178FEF742FFE4E7F8B5EB
:105940000C000834060020000D0000F03DF900288E
:1059500001D10020F8BD01272B783B42F9D130005E
:105960006978FEF709FF0028F3D020006A8869688B
:1059700000F08EF92B78041E0BD03B42E9D10300D6
:10598000697830006A68FEF71BFF0028E1D020002C
:10599000E0E71C003C403B42DBD130006978FEF779
:1059A000FDFEF4E7F7B58A8905000C000B78002AA4
:1059B0001AD10126334201D00020FEBD4978FEF7FE
:1059C000DBFE0028F8D023781A0032403342F3D1AE
:1059D00063886178002B00D062682800FEF7F0FE33
:1059E0000028E9D06088E8E740269B0701D580269B
:1059F000B600230008331800019300F014F9864222
:105A0000DAD8012723783B42D6D128006178FEF707
:105A1000B3FE0028D0D0019800F005F92378864223
:105A200017D83B42C8D1764206406388301CB6B2D4
:105A30009E4200D9181C002286B26178964200D09E
:105A4000626833002800FEF7BBFE0028B4D03000A7
:105A5000B3E71E003E403B42AED128006178FEF71E
:105A60009DFEF4E78A1892B24000914201D882422A
:105A700001DB121A92B21000704770B50500D41AFB
:105A80000800AE88A4B29A4202D271006418A4B28F
:105A9000211E11D0A64204D296420FD8921B93B277
:105AA0006B819E420CD9EA8829685204520C5343F8
:105AB000C918FCF753FF0121080070BDB218EEE7CA
:105AC0009B1B9BB2EDE7F0B585B002910AA90C884B
:105AD00000901D1B8688ADB2A34202D271006D18E2
