:020000041000EA
:1000000000B5324B212058609868022188439860DF
:10001000D860186158612E4B002199600221596106
:100020000121F02299502B49196001219960352056
:1000300000F044F80222904214D00621196600F024
:1000400034F8196E01211966002018661A6600F04E
:100050002CF8196E196E196E052000F02FF8012189
:100060000842F9D1002199601B49196000215960AB
:100070001A491B48016001219960EB211966A021F2
:10008000196600F012F800219960164914480160C1
:100090000121996001BC002800D000471248134993
:1000A000086003C880F30888084703B5996A0420EC
:1000B0000142FBD001200142F8D103BD02B5186610
:1000C0001866FFF7F2FF186E186E02BD00000240BE
:1000D000000000180000070000035F00212200005C
:1000E000F4000018222000A00001001008ED00E03C
:1000F00000000000000000000000000074B24E7A12
:1001000000200420F7010010CB010010CD010010E9
:10011000C9010010C9010010C9010010C901001077
:10012000C9010010C9010010C9010010CF01001061
:10013000C9010010C9010010D1010010D301001045
:10014000C1010010C1010010C1010010C101001067
:10015000C1010010C1010010C1010010C101001057
:10016000C1010010C1010010C1010010C101001047
:10017000C1010010C1010010C1010010C101001037
:10018000C1010010C1010010C1010010C101001027
:10019000C1010010C1010010C1010010C101001017
:1001A000C1010010C1010010C1010010C101001007
:1001B000C1010010C1010010C1010010C1010010F7
:1001C000EFF30580103800BE00BE00BE00BE00BECA
:1001D00000BE00BEF2EB887180390010A439001017
:1001E0003802001090A31AE71E481F49086006C88D
:1001F00081F3088810471D480068002801D019487D
:10020000F3E70DA40ECC002902D000F012F8F9E7B4
:100210001749184A002000E001C19142FCD116495B
:100220008847164988471649884700BEFDE701C937
:1002300001C29A42FBD37047A4390010C0000020CD
:1002400090020020743B00100000042000000420F5
:10025000743B001000100420001004200000000077
:10026000704700000000000008ED00E0000000D032
:1002700090020020B0C801203D310010850B001015
:1002800035310010F8B5C04610B5064C2378002B68
:1002900007D1054B002B02D0044800E000BF01232A
:1002A000237010BD10060020000000003838001038
:1002B000044B10B5002B03D00349044800E000BFF5
:1002C00010BDC046000000001406002038380010A1
:1002D000504BF0B557469A4600234E469946783B18
:1002E0004546DE469846FC23E0B5DB00FD250127A8
:1002F00000269C4683B0ED007F4244467823514659
:10030000644345485B420BE0AA4200DD80E08F2A4F
:1003100000DC7DE062460A8001330231782B09D08F
:100320001A005A4312198242EEDD01330E80023167
:10033000782BF5D1773B9B46EF33D8449B46F0337F
:10034000D9449B46E123DA441B029945D5D1302399
:100350009B46324B9A46B4235B009946584601F0BF
:1003600021FF0023002400250026984600900191DB
:100370002B4F16E0404601F015FF2A4A2A4B01F0A8
:1003800000FF0022294B01F0DEFE04000D0001F009
:100390005BFF06000F002000290001F06BFF040046
:1003A0000D000098019932003B0001F0EAFE0022A6
:1003B0001F4B01F0BFFE01F00DFF0600EF2815D81E
:1003C0000098019922002B0001F0DBFE0022184B5F
:1003D00001F0B0FE01F0FEFEEF2807D852460301FF
:1003E000181A00010B4B861976009A5301239C467C
:1003F000E044C845BED101239C46E3445B46332B11
:10040000ACD103B0F0BCBB46B246A946A046F0BD95
:100410000F8081E768060020A31F000000F8FFFF9F
:100420000000F03F6E861BF0F92109400080664015
:1004300000005E408368F0B5454698460123DE46DD
:1004400057464E469946E0B54E46C368D0249E4076
:10045000240683B007684568A6610F2001F0E6F91D
:100460006661782001F0E2F96B46DE1D11234246F9
:1004700033709B464B4693409846A3614B46AB4036
:100480001D003100A3610122380003F0A5F9782096
:10049000656101F0CBF93A23337043463100A36123
:1004A00001223800A56103F097F955236561337087
:1004B00043463100636101223800A56103F08CF9E5
:1004C00036236561337043463100A3610122380051
:1004D000A56103F081F9002365619A4633704346B4
:1004E0003100636101223800A56103F075F9B22380
:1004F0006561337043463100A36101223800A56174
:1005000003F06AF90C23424665613100337038000C
:1005100062610122A56103F05FF90C234246656127
:1005200031003370380062610122A56103F054F993
:1005300052466561327042463100626138000122E4
:10054000A56103F049F93322656192463270424653
:100550003100626138000122A56103F03DF9524685
:100560006561327042463100626138000122A56146
:1005700003F032F9B7234246656131003370380029
:10058000A2610122A56103F027F935234246656186
:1005900031003370380062610122A56103F01CF95B
:1005A000BB2342466561310033703800A2610122ED
:1005B000A56103F011F919234246656131003370DA
:1005C000380062610122A56103F006F9C0234246AA
:1005D0006561310033703800A2610122A56103F02A
:1005E000FBF841462C2265613800327061612B3A7C
:1005F0003100A56103F0F0F8C22341466561012294
:1006000033703800A1613100A56103F0E5F8494677
:100610006561317041460122616138003100A56198
:1006200003F0DAF8C32341466561012233703800D4
:10063000A1613100A56103F0CFF812234146656145
:1006400001223370380061613100A56103F0C4F804
:10065000C42341466561012233703800A161310035
:10066000A56103F0B9F8404620216561012231708F
:10067000606131003800A56103F0AEF8C623404642
:100680006561310033700122A0613800A56103F07B
:10069000A3F80F2340466561310033700122606189
:1006A0003800A56103F098F8D0206561824630706B
:1006B00040463100A06101223800A56103F08CF8AA
:1006C000A423404665613100337001226061380027
:1006D000A56103F081F8A1234046656131003370C4
:1006E000012260613800A56103F076F8E0234046FE
:1006F0006561310033700122A0613800A56103F00B
:100700006BF85046656130704046310060610122EF
:100710003800A56103F060F84246042065613100AD
:100720003070626138000122A56103F055F80D2296
:1007300065619146327042463100626138000122A3
:10074000A56103F049F85A466561327042463100AE
:10075000626138000122A56103F03EF84146132290
:100760006561380032706161123A3100A56103F0B1
:1007700033F82B23414665610122337038006161F3
:100780003100A56103F028F840463F216561012250
:100790003170606131003800A56103F01DF8542309
:1007A0004046656131003370012260613800A56107
:1007B00003F012F84C23404665613100337001228A
:1007C00060613800A56103F007F8182340466561B1
:1007D00031003370012260613800A56102F0FCFF36
:1007E0004846656130704046310060610122380042
:1007F000A56102F0F1FF0B234046656131003370C3
:10080000012260613800A56102F0E6FF1F206561EA
:100810008146307040463100606101223800A56198
:1008200002F0DAFF424623206561310030706261D8
:1008300038000122A56102F0CFFFE1234246656145
:10084000310033703800A2610122A56102F0C4FFBB
:1008500052466561327042463100626138000122C1
:10086000A56102F0B9FF0420656130704046310097
:10087000606101223800A56102F0AEFF0C236561C2
:10088000337043463100636101223800A56102F0F4
:10089000A3FF5B466561337043463100636101220B
:1008A0003800A56102F098FF132365613370434659
:1008B0003100636101223800A56102F08DFF2C2216
:1008C0006561327042463100626138000122A561E3
:1008D00002F082FF3F23656133704346310063615C
:1008E00001223800A56102F077FF4423656133706F
:1008F00043463100636101223800A56102F06CFFBC
:100900005123656133704346310063610122380031
:10091000A56102F061FF2F2365613370434631000A
:10092000636101223800A56102F056FF4B46656104
:10093000337043463100636101223800A56102F043
:100940004BFF4B46656133704346310063610122C2
:100950003800A56102F040FF434620216561012275
:100960003170380063613100A56102F035FF434604
:100970002320656131003070012263613800A56178
:1009800002F02AFF21236561337043463100A361E1
:1009900001223800A56102F01FFF29236561337031
:1009A00043460122A36131003800A56102F014FF23
:1009B0003220656100F03AFF03B0F0BCBB46B2469E
:1009C000A946A046F0BDC046F0B54646D6464F46BD
:1009D000C0B582B06B460125DE1D2A2333702B0083
:1009E000D0248D4093402406A36131000122A561EB
:1009F0009A46070002F0F0FE0023656199463370C5
:100A000053463100636101223800A56102F0E4FE23
:100A10004B466561337053463100636101223800F3
:100A2000A56102F0D9FE4B46656133705346310033
:100A3000636101223800A56102F0CEFEEF236561FB
:100A40009846337053463100636101223800A56136
:100A500002F0C2FE2B236561337053463100A3615F
:100A600001223800A56102F0B7FE4B466561337084
:100A700053463100636101223800A56102F0ACFEEB
:100A80004B46656133705346310063610122380083
:100A9000A56102F0A1FE4B466561337053463100FB
:100AA000636101223800A56102F096FE434665614C
:100AB000337053463100636101223800A56102F0B2
:100AC0008BFE2C236561337053460122A3613100F4
:100AD0003800A56102F080FE656102B0E0BCBA4654
:100AE000B146A846F0BDC04630B5102214212248B8
:100AF00083B0FFF769FF112215212048FFF764FF3B
:100B0000D02380221B0652025A61802292025A612F
:100B1000802252039A61802292039A61E123184C49
:100B20005B02E5186946238806311A0A0A701248E2
:100B300001224B7002F050FE6B460122991D0F48B6
:100B400002F04AFE6B460122D91D0B4802F044FE1A
:100B50006B4601220948D91D023402F03DFEAC4229
:100B6000E0D1D02380221B0652035A6180229203D7
:100B70005A6103B030BDC04600C0034000000440CD
:100B800068060020F8B5CE46474680B502F0E6FB81
:100B9000FA20C00000F04AFE674802F031FC16203F
:100BA00000F00AF9D0248023644F2406DB0363623B
:100BB00038006361624902F033FD0721022589464E
:100BC000604B7A681D603B682A404B40C8318846BC
:100BD0000B405D495D4E0B605D4B01211A600620A4
:100BE00000F0D0F80121072000F0CCF83000544983
:100BF00002F016FD4946574B72681D6033682A4063
:100C00004B4041460B4054490A200B60534B012195
:100C10001A6000F0B7F801210B2000F0B3F814209F
:100C200000F0CAF880235B0363621020636100F068
:100C3000C3F8802380255B026362ED02122000F07E
:100C4000BBF86562152000F0B7F880239B03636250
:100C50001120636100F0B0F880239B0263621320CF
:100C600000F0AAF880231B036362656163611423AB
:100C70003B4D3C4C6B60043BAB600233EB60033399
:100C80006360043BA36038480233E3602F60266052
:100C900002F0B6FB2800FFF7CDFB2000FFF7CAFBF0
:100CA000324802F0ADFBFFF713FBFFF71DFF3048A2
:100CB00002F0A6FB00F064FE2E4B06000F009846E3
:100CC00000F05EFE801BB9412B4D012445440029F4
:100CD00023DD00F055FE06000F00002C28D0E12295
:100CE00000214046520202F0F7F9244C4444B42259
:100CF0002000E134FF215200FF3402F0EDF9A5425B
:100D0000F5D10024FFF7F0FE0A2000F08FFD00F07F
:100D100037FE801BB9410029DBDC0029F4D1184BD8
:100D20009842F1D900F02CFE06000F00002CD6D11D
:100D3000FFF7CEFA0124E5E73838001000C0034081
:100D4000002D310104F0034000D0034000000440B6
:100D500004E0034004300440001004400420044038
:100D60006CC801208CC80120403800105038001099
:100D70006038001068060020FC3E01007C83000003
:100D8000C0C62D0010B54024084A83009A18126886
:100D9000C0005440C0222240054CA44663441A605F
:100DA000044B9C466044416010BDC04604C00140F5
:100DB00004D00140004001400123D0228340402163
:100DC000120693629361094A83009A181268C00060
:100DD0005140C0220A4006498C4663441A60054BC4
:100DE0009C460523604443607047C04604C00140F0
:100DF00004D00140004001400FB400B5084883B062
:100E000002F0FEFA049B002B07D005A918000191FF
:100E100002F076F9034802F0F3FA012002F088F9B3
:100E2000743800108438001070B5EFF3108C72B66F
:100E30000D4D2B68002BFCD0BFF35F8F0724CB0830
:100E4000C618C05C01230C40A3401C0004400342B0
:100E500007D103433370BFF35F8F2C608CF310888E
:100E600070BD1000FFF7C8FF2C0100D0044A1078B5
:100E7000431CDBB2172B00D9102313707047C046F8
:100E8000E80100200021044B044ABFF35F8F02C336
:100E90009342FAD17047C046000100D0800100D0D3
:100EA000054B064A1360064A136053609360D36093
:100EB00013615361936170478080808000E400E09B
:100EC00004E400E01F2318401E3B8340002905D0A6
:100ED000C021044A490053501360704780220149E1
:100EE0008B50FAE700E100E070B50D00EFF31086DB
:100EF00072B60F4A1368002BFCD0BFF35F8F0D4B07
:100F000010309B6884001B590B4A934203D09D42CA
:100F100001D000F09BFF074B9B681D51BFF35F8F13
:100F2000BFF35F8F0022024B1A6086F3108870BDFA
:100F3000240100D000ED00E0C1010010F0B5DE4654
:100F400057464E464546E0B50C0083B0EFF3108996
:100F500072B65F4A1368002BFCD0BFF35F8F5D4B06
:100F60009A68030010339F00D5595B4A904695421A
:100F70003DD0A5424ED0594EAA1B2F2A37D8584AE9
:100F8000934612689446012261469246824011407F
:100F90001F221040524682409246019180225146C3
:100FA00058468150BFF35F8FEFF305829346002AC6
:100FB00032D101232A009A439068844208D17CE010
:100FC0004B005B189B00F318986884422ED01A00DF
:100FD000062151560029F3DA84424DD0019B002BA3
:100FE0001FD0C02251463E4B520099501960394BD8
:100FF0009B68DD51BFF35F8FBFF35F8F0022344BDF
:101000001A6089F3108803B0F0BCBB46B246A9460B
:10101000A046F0BD1500EAE79342CAD000F016FFE3
:10102000C7E7802351462E4AD150E0E706215956A2
:10103000002922DB4A005018800034188046A0683E
:101040009860E079D871062020569871002825DB39
:10105000A488F01A6405241544440019E02400050E
:10106000400D24022043988052181E4B9200B6185F
:101070001A781970B271B1E71300594600290FD1DF
:10108000FF3191711849918016490A789A71174A6F
:101090009B1B5B415A43120D0A709FE71448E2E71D
:1010A000144A1549D21A083A5002400D014399805A
:1010B000124952080A43DA8090E70621515613007C
:1010C0000029B7DA5A46002AEAD14546DCE7C0468D
:1010D000240100D000ED00E0C1010010EC0100206F
:1010E00000E100E0ACC8012001BDFFFFAAAA00009A
:1010F00001BD00002602002000F0FFFF00F8FFFF06
:1011000070B501240443EFF30581EFF3108C72B640
:10111000214A1368002BFCD0BFF35F8F1F4B0500E3
:101120001F4AED1A6D416A43120D1E4D8900AE68CB
:1011300052B27658A6421CD00621595691421CD074
:1011400012215956914222D01E215956914220D047
:101150002A2159560324914210D0134B19781A7042
:101160008171BFF35F8F00220B4B1A608CF31088E4
:1011700070BDAB680D4C5C50EFE7002461000919AD
:1011800089005B18FF21997109499980E5E70124DD
:10119000F4E70224F2E7C046240100D0EC0100206D
:1011A000AAAA000000ED00E0ACC80120C1010010B7
:1011B00001BDFFFF024B9C466144890001607047FE
:1011C00040000034F8B5134D134E2C00FF27B542F4
:1011D0001ED22368002B0FD0FFF748FE0100280025
:1011E000FFF7E8FFA780BFF35F8F0834B4420FD248
:1011F00023682500002BEFD1FFF738FE01002800FF
:10120000FFF7D8FF2771BFF35F8F0834B442EFD3E5
:10121000F8BDC04688020020900200200A4B1968E1
:10122000EFF3108072B60A68002AFCD0BFF35F8F1C
:101230001B68BFF35F8F00221A6080F3108840BFE5
:10124000002000217047C046A0C80120F0B5DE464E
:1012500057464E464546E0B585B0EFF30582032379
:1012600013409A0011000392B64A52589046012248
:101270009A409146B44B1A604B46B4484363434688
:1012800008229B5E9A46002B3DDA43469B881BB2A0
:10129000002B00DBA1E043469B79002B00D0F3E05C
:1012A000434608241C5F002C23DB4246526963003E
:1012B00094461B19DB0063449C68DD68631C00D105
:1012C0000FE1A248039984466144826A0B69A61A19
:1012D0009B1A9E4215D34A46036A1A4211D09B4874
:1012E00000F046FB241A8D41002D02DCC4D1002CF5
:1012F000C2D040BF05B0F0BCBB46B246A946A0462E
:10130000F0BD0C61EBE7424652695B0093465344E3
:10131000DB009B445B469E68DF6800F029FB801B76
:10132000B9410029B1DB002F00DAE5E05B46884ACD
:101330001B69934200D1D8E041465A460820085E16
:101340005288000410435A465169984704000D0022
:1013500023002B4300D1CFE0002D00DBE8E0361B5B
:10136000AF4134003D005B469C60DD600021595E6A
:10137000002900DA89E743465B6922009C462B007E
:1013800048004018C00060448668C768921BBB4193
:10139000002B00DA79E74346664602000094019587
:1013A00019810CE07B00DB19DB00F3180098019930
:1013B0009C68DD68001BA941002904DB1A0000239A
:1013C000D75E002FEEDA5B461F80534613804346FC
:1013D0009B881BB2002B00DA5DE743461A69EFF3E6
:1013E000108172B61368002BFCD0BFF35F8F4346A9
:1013F0009B8842461BB29A4601235B429380136945
:10140000BFF35F8F00221A6081F310885346002BD0
:1014100000DA40E743465B699C46082343449B4609
:1014200053465F0043465744FF0008229A5E6744D4
:101430005E46BC68FD68002A19DB3B0000940195FC
:1014400067469C4604E01E000023F25E002A0BDB88
:101450000098019953009B18DB00FB189C68DD681D
:10146000001BA9410029EEDA6346BC461F00534623
:10147000338000217B5E3A809A46002BD0DA4346C7
:101480009B79002B00D10BE7002342469371434622
:1014900046460821595E08364B1C00D129E74746CD
:1014A0008C46556902E006004B1C17D04B005B18B8
:1014B000DB00E8180A00E95E43881BB2002BF2DA71
:1014C00001235B42DC178360C4606245ECD031804D
:1014D0003B89944603803A814B1CE7D1B846644669
:1014E000E1E66B1C00D0ECE6F9E65B465C692000A7
:1014F00023699847002821D15B4642461B88138107
:101500001269EFF3108372B611680029FCD0BFF3A3
:101510005F8F4246594652880A8042465146518062
:101520001269BFF35F8F0021116083F31088ACE66E
:10153000064800F01DFA24184D4114E76568246838
:1015400006E7C0467CC801203C70054000400540CD
:101550004D12001070B52E4C2569002D04D00A21C3
:101560002C48FFF727FE70BD2B4E0321300000F002
:10157000F5F9E660FFF77AFC284B03229C46D0235E
:1015800022701B061B6801216370254B6044A36019
:101590000F23800020610220638063694942A1809B
:1015A00019800231198647311D83585218315A5219
:1015B00075325C3999521832013199521832013121
:1015C0009952183201319952083518329D52023120
:1015D0001832995218320131995218320131995208
:1015E00018320131995218320131995218320131B1
:1015F00099520C4B0C49DC6001303562FFF774FCEA
:1016000001210320FFF75EFC084B1D60A7E7C046E1
:1016100034020020A0C801200040054040000034F2
:10162000FFFF10007CC801204D12001038600540FB
:1016300070B5C646010000B50469EFF3108C72B6B0
:1016400020680028FCD0BFF35F8F02200D5E486940
:101650006C0080466419E4004444002D01DB2088BE
:1016600048800869BFF35F8F002606608CF31088FE
:10167000002D30DBE36063880598013320615B0453
:1016800006985B0CA26060611A1C002B21D090B2FE
:101690002B04628018430A69EFF3108672B6136850
:1016A000002BFCD0BFF35F8F8B8823808D800B696C
:1016B000BFF35F8F00221A6086F310880B78013227
:1016C0009A40CB6805498C4663441A6040BCB046DA
:1016D00070BD0122DBE701204042F7E73C2000001B
:1016E00010B543890A14934233DD53009B184269B5
:1016F000DB00944604696344EFF3108C72B62268F1
:10170000002AFCD0BFF35F8F5A88090494B2090CF9
:101710008A4208D00369BFF35F8F00221A608CF3FE
:101720001088002010BD8022120214435C80012327
:1017300002698371BFF35F8F002111608CF3108801
:10174000054902788C469340C268012062441360C8
:10175000E8E70020E6E7C0463C200000F0B50400C2
:101760000D0006267642F717C64636196F4100B5BA
:1017700082B08F4214D811D000F002F932003B0041
:10178000121A8B41002B15DC002B44D020002900BD
:1017900000F02AF902B080BCB846F0BD8642EBD911
:1017A0000026002700F0ECF832003B00121A8B41B3
:1017B000002BE9DD00F0E4F832003B00121A8B4107
:1017C000002B0ADB00230193144B320000931448D2
:1017D0003B00FFF72DFF0028D8DBB0460026BC46B3
:1017E000104A114F7B6A9C4504D8B96A8845CDD907
:1017F0009C45CBD11168EFF3108072B60B68002BBB
:10180000FCD0BFF35F8F1368BFF35F8F1E6080F360
:10181000108820BFE6E7002AB8D0CBE71D120010E1
:1018200034020020A0C801200040054070B5060029
:1018300000F0A6F8FA2204000D0000233000002179
:10184000920001F0DFFB00196941002902DBFFF77C
:1018500085FF70BD012001494042F8E7FFFFFF7F8F
:10186000F0B5CE46474680B504000D0083B0EFF3D7
:101870000587002F0DD0364A0020536A8B4203D3D0
:10188000926A0130A24250D303B0C0BCB946B04600
:10189000F0BD304B9846DB689946434648461E7873
:1018A00000F066F80B00494602000436B600715895
:1018B00020008E1A2900801A99418F4211DC0ED027
:1018C00020BF234A0020536AAB42DDD3926A013025
:1018D000A242D9D2E81A421E9041C0B2D4E7864251
:1018E000EED900F04DF822002B00121A8B41002B8C
:1018F00020DB00230193184B2200009340462B006D
:10190000FFF796FE011E15DD114B2E005A6A954217
:101910001CD89B6AA34217D34046FFF7E1FE0C4A4E
:101920000020536A9E42AFD8D0E7581A421E904119
:10193000C0B2A9E7064A0020536AAB42A4D3926A18
:101940000120A242A0D2C5E79542E5D120BFE3E73E
:1019500000400540340200201D12001010B5024A5C
:101960000248FFF761FA10BD8838001034060020E5
:101970000300416A0A00986A596A8A42FAD170479C
:10198000034B596A0A00986A596A9142FAD1704722
:101990000040054070B504000D00124A536A19005A
:1019A000966A536A8B42FAD13000190024184D41CF
:1019B000AB4211D80ED02B000A494A6A9A42FCD396
:1019C00007D1084A02E0516A994202D1916AA142C4
:1019D000F9D370BDA642EED9012301246442E51774
:1019E0005B42E9E700400540064A536A9942FCD849
:1019F00007D1044B02E05A6A914202D19A6A8242AC
:101A0000F9D3704700400540F8B5040006200D00EA
:101A100000F076F9002842D0364B3749E21853429D
:101A20005A418023DB039C469205344B62441A6082
:101A3000334B1A6010000B689843FBD12D4B80216B
:101A4000E3185A4253412F4A5B004900995206203D
:101A500000F056F92900C00000F02EFB0130C30948
:101A60001ED1402701226262A362266BF30722D4B3
:101A7000E36A254B0620E51800232B60266300F05F
:101A80003FF93900800000F017FB7022E36A5A40EA
:101A90007E2313402B601D4B23630323A364F8BDF7
:101AA0001B4A93421ED900231A4A1B4F6262A3624B
:101AB000266BF307DCD5194B144AE3181A60656AE4
:101AC000A26A0620AD01AD1800F01AF9144900F021
:101AD000F3FAAD020100280000F0EEFA0021FFF752
:101AE00059FFC5E74006800E9F011A003F1803000A
:101AF000B9E7C0460080FCBF08C0004000E00040DD
:101B000000F00040A4C801202C10000001030000D8
:101B1000FEFF0000FFFF0000C0FF3F00303000006C
:101B20004E0E0000F8B5DE464E4657464546E0B537
:101B30008B4605000A991800160000F0BDFA0A9BB2
:101B40006C001F02324B64199C46A4006444636815
:101B500081469F4200D967602B1FDBB29846012B5C
:101B600030D9C02380229B01E31812011A60294B4F
:101B7000AD0059599A4600291BD12268760172405E
:101B8000E0268023164042465B01E3181E60012ACE
:101B900030D9802380229B01E31812011A6053463A
:101BA0004A4667605A51F0BCBB46B246A946A046B9
:101BB000F8BD586900F080FA431C5800C01803387B
:101BC000FDD2DAE75B46012BCBD1C02303229B0178
:101BD000E3181A60023AA3681A42FCD0E023226894
:101BE000760156401E4080230A4A5B019246E31864
:101BF0001E60AD005A462168514003220A401A6017
:101C000001225B469A40A3681A42FCD0C1E7C04655
:101C10000080004038060020F0B546464F46D646C4
:101C2000C0B51F00344B44009C462418A4006444F3
:101C3000636888461600FF2B02D880235B00636030
:101C4000031FDBB29A46012B30D9C02380229B01AF
:101C5000E31812011A60294B850059599946002949
:101C60001BD1226876017240E0268023164052463E
:101C70005B01E3181E60012A30D9802380229B017A
:101C8000E31812011A6080235B0063604B465F51CA
:101C9000E0BCBA46B146A846F0BD586900F00CFA5F
:101CA000431C5800C0180338FDD2DAE74346012B25
:101CB000CBD1C02303229B01E3181A60023AA36828
:101CC0001A42FCD0E0232268760156401E40802351
:101CD0000A4A5B019146E3181E608500424621686E
:101CE000514003220A401A60012342469340A268F1
:101CF0001342FCD0C1E7C0460080004038060020F7
:101D0000014B8000C058704738060020F8B5040029
:101D100020481D0017000E0000F0CEF90100380029
:101D200000F0CAF9069B29041B0319432368002B02
:101D30001EDB194B194DE21853425A4180235B01B7
:101D40009C461203164B62441A60164B1A60170029
:101D50002B689F43FBD1144B2660E2182123A0601F
:101D600013602368002BFCDA0823E1601360F8BDE0
:101D70003F2322681340B342DBD1A3681B051B0D30
:101D80008342D6D1EE22E368D20213408B42D0D1F7
:101D9000EDE7C046001BB7000040FDBF08C0004093
:101DA00000E0004000F00040043000008023024AC0
:101DB0009B000B43D362704700800540142310B58D
:101DC0000100188804331B88984710BD162310B5EE
:101DD0000100188802331B88984710BDF8B54746A4
:101DE000CE4680B50F1E19D0142399460433040043
:101DF0000025012698464B461888434621681B88D3
:101E0000984701C4431E9841013540420640AF4205
:101E1000F1D13000C0BCB946B046F8BD0126F8E7A4
:101E2000AA23064A1B0113608D235B00D36004497B
:101E3000044B19605368002BFCDA704700400240E5
:101E400000B0FA00006002407047C04610B501487B
:101E5000FEF7D2FFAC38001070B5074D074EB54203
:101E600009D20024013E761BB60808CD984723000E
:101E70000134B342F9D170BDF83700103438001086
:101E8000054B064A06491A60064A074B1A601000BD
:101E90000B689843FBD1704700E00040BFCDFBFECC
:101EA00008C00040FE7F3C0000F00040044BDB6CAB
:101EB000002B03D18022034BD2021A607047C04628
:101EC000000011504C201150044A054B1A60054A7D
:101ED0001368DB018033FBD17047C046FFFFFF0171
:101EE00000F0004008C000404022034B9A675A6748
:101EF0001A67DA667047C04600F0014010B5FEF779
:101F0000C1FF10BDF8B52D492D4C2E4D641AA610F9
:101F10003200302E00D930222800920001F0E2F881
:101F2000BC2C41D80123711C08009C46264A30294C
:101F30003DD92F272C196407E30FBF1B052F19D993
:101F4000302917D8002B36D0B1006A506146CC1A20
:101F5000F3189B006108EB18C900C9181A605A6091
:101F600008338B42FAD101232100994346188C4251
:101F70001AD0711CB300EA50302915D089006A507C
:101F8000B31C2E2E10D09B00EA50F31C2D2E0BD02C
:101F90009B00EA50331D2C2E06D09B00EA50731D87
:101FA0002B2E01D09B00EA50084B9D60F8BD2F33CB
:101FB0009B1B9C46BDE73000C8E7C04600010010EF
:101FC000C001001000000020C101001000ED00E081
:101FD000002310B5294C82B0A367FFF721FF01222F
:101FE000274B1A60636C012BFCD10322254B1A602E
:101FF000224A936B012BFCD1013300930121224A29
:1020000022480433FFF782FE052301210093204A72
:102010002048FFF77BFE0022022104201E4BFFF721
:10202000FBFD0022012105201C4BFFF7F5FD0022DE
:10203000002107201A4BFFF7EFFD002200210820A6
:10204000174BFFF7E9FD8023DB00009300220021FE
:102050000920134BFFF766FD0022104B00210620DC
:10206000FFF7DAFD0420FFF74BFE0E4900F024F8DD
:1020700001000020FFF79AFE02B010BD0080004072
:102080003CB0004030B00040002F68590080024052
:10209000008C864700C00240001BB7004059730700
:1020A000006CDC0240420F0001480421014B18473C
:1020B00050020020DD1D0010114A936F9B0813D2BF
:1020C00010665166002905D0FFE7FFE7FFE7516F73
:1020D000106F704704B5002801D00020C04301F004
:1020E00073FB002104BDC046F0B5146E556E576FEA
:1020F000166FFFF7E5FF1466556657671667F0BD64
:10210000000000D044464D4656465F46F0B4704746
:10211000F0BCA046A946B246BB4670474840414085
:10212000484018B41B4B5B68FC46019308BD04DFB4
:102130002326001018B4174B1B68FC46019308BDFA
:1021400000DF2D2600109446134A926F920809D2A0
:10215000624618B40F4BDB68FC46019308BD0CDFE8
:10216000E52800100C4AF0B5146E556E576F166FC7
:102170006246FFF7EEFF084A146655665767166712
:10218000F0BD18B4034B9B68FC46019308BD08DF03
:102190008927001010040020000000D00021002832
:1021A00005D17047C1174840401AFAD0C90713B586
:1021B000064B1B6898470CBC441CA2401005120B30
:1021C0000349091B09051943114310BD9CC801208F
:1021D0001F04000010B54C00620D8023D218DB00F4
:1021E000D21A5B057E2A10DD9E3A13DACC1709035A
:1021F000490819435242D140640001341532202A63
:1022000005DAD0400843604310BD002010BD0846E9
:10221000604310BDC80FC018013810BD18B4044B7E
:102220001B6EFC46019308BD60DFBF2B0010000051
:1022300010040020024A034B00B500F0D1F900BDA4
:10224000182D4454FB2119408A0002D3920D092A0B
:1022500008DA18B4064BDB6BFC46019308BD3CDF83
:10226000F32C001000B5FFF7E5FF04BC9646F0E73D
:10227000100400208A0002D3920D092A08DA18B44B
:10228000064B1B6CFC46019308BD40DF032D00107C
:1022900000B5FFF7CFFF04BC9646F0E7100400201E
:1022A000132370B51D78012D19D014DD1E48FFF7DA
:1022B0008DFD06001D48FFF789FD1D4C8022310071
:1022C000200000F00FFF022D06D01A48FFF776FD20
:1022D000194B186070BD164C184BA364F5E7174BEB
:1022E000134C23606360A360E36023616361A361B7
:1022F000E36123626362A362E36223636363A363B4
:10230000E36323646364A364E36423656365A36593
:10231000E36523666366A366E36623676367A36773
:10232000E367A364D1E7C04653440000534600006E
:10233000100400204C3300009CC80120F12500103F
:10234000F0B557464E464546DE46E0B587B00292A8
:102350005A009A46530D9946109B4D0004006D0D8E
:10236000002B01D000221A609A4A95427DD04B463C
:10237000002B7AD0002D00D182E027000E0091457D
:1023800075D0013B0393AB4271DCCB0F0E03984633
:10239000330B9B4680235B039C465B46624613439C
:1023A0001F005346060018036346000B0343029ABE
:1023B0000193039B0092AB4200D1AAE04346002B5D
:1023C00000D1B7E033003C0000275E42A7414B46F6
:1023D000ED1A002D00DCC0E00120019B40421911E4
:1023E000FFF76AFE002398464B4603935346AB46DD
:1023F000029004931BE032009A40150033005246CD
:1024000093401C004B464846D917009A019B00F0A8
:10241000F9FD4346524693404B4498465B4626009E
:102420002F009B1A361A8F419B46002B2BDD5B46F3
:10243000DA460C2B01DD0C239A46029ABB1153435A
:1024400051461D22521A1341202201335B10524281
:1024500099468B18CFD5202332005B1ADA4013003F
:102460003A008A4015001D43C8E700275A4E38003D
:10247000310007B0F0BCBB46B246A946A046F0BD4D
:1024800000270026F3E7039B9946049B9A46009B8E
:10249000019CBC4200DD83E000D17DE0009B019CFB
:1024A000F61AA741BC4200DD8BE000D185E0009B1D
:1024B000019CF61AA74102239C46E0443200009892
:1024C00001993B0092197B418B421ADC17D000998D
:1024D0008A425AD05346002B02DA43465B42984662
:1024E000109B002B01D042461A604B463B4A3000FD
:1024F0003900D21AFFF792FE07000E00B7E78242BA
:10250000E5D9009B019CF61AA74101239C46E044B3
:10251000E0E7019B9F422FDD009801994346001898
:102520004941002B3FD1039B361A8F419946012325
:102530009846CFE74B46ED1A002D00DD4CE7019B96
:10254000BB42BBDC009B019CBC4201D1B342B5D86D
:10255000009B019CF61AA74133E000239846009B9C
:10256000019CF6186741002F2FDAF6186741022305
:102570005B429C46E044A1E7009A019B9F4201D147
:102580009642C9D827000E0071E7019A9342A1D163
:102590004346DB079ED5B4E7009BB34200D87DE7F6
:1025A000002FDCDB8AE7039B801BB941994601239E
:1025B0005B4206000F0098468CE7009BB34200D8B0
:1025C00075E701239C46E04478E701235B429C4683
:1025D000E04473E7FF0700000000F07F33040000D1
:1025E00010B5002482B00094FFF7AAFE02B010BD1F
:1025F00007B5604601880A0A0230DF2AFAD1C9B25B
:10260000820804D3028840880004104300E0006878
:10261000014A5050039007BD100400200FB403BCC2
:102620000CBCF0B50124E407634000E0F0B50C0DEC
:10263000CF0F661E3605891B640503D3C94340428C
:1026400000D30131640D03D0661CF60A07D0E41BE9
:1026500000207F00791C89078912803C24031D0D0E
:10266000DF0F6E1E36059B1B6D0503D3DB43524205
:1026700000D301336D0D03D06E1CF60A07D0ED1B9D
:1026800000227F007B1C9B079B12803D2D032F1B8C
:10269000661B58D4A446202E46DA20371400BC40CE
:1026A0001D00BD40F24033412A4380185941CB0FF1
:1026B00005D0C943C04300226442504151416246A3
:1026C0004D0D28D10D0D07D100281FD024194041F0
:1026D0004941013A0D0DF9D0640006D3013000D311
:1026E0000131002C01D140084000013A0BD4941C68
:1026F000E40A04D112051144DB071944F0BDD907DF
:10270000204B194300E0D9070020F0BD0029DDD19E
:10271000002CDBD1F0BD0132C6074008CD072843AD
:102720004908002EE1D0D9E73C2E29DA203E403777
:102730001400BC4000D00124F24014431A00BB40F6
:102740001C43D317ACE7AC46202F08DA2036040030
:10275000B4400D00B540F84039412843A5E73C2F6F
:102760000CDA203F40360400B44000D00124F84089
:1027700004430800B1400C43C117EAE710001900F8
:10278000002494E70000F07FF0B50C0D661E3605BE
:10279000891BE60A6405640D02D0651CED0A04D0AD
:1027A000002001210905803C2403A4461C0D671E5E
:1027B0003F05DB1BE70A6405640D02D0651CED0ACA
:1027C00004D0002201231B05803C2403774064448D
:1027D00097B484B296B27443070C7E43150C6F43D2
:1027E00080B26843361802D3012000043F18300439
:1027F000350C00197D41844688B29AB250430C0CC6
:1028000062431F0C7C438EB27E43921902D3012691
:102810003604A4191604170C3618674101BC81B29E
:102820009AB25143040C62431B0C5C4380B2584380
:10283000121802D30120000424181004130C4018AD
:1028400063412D185E410020474106BC88B293B217
:1028500058430C0C6343120C544389B251435B1828
:1028600002D301210904641819041A0C09186241E1
:102870006D1856410020474118BCF902720D1143F2
:10288000F0026A0D1043ED020A0D03D16D194041AB
:102890004941013B124E9B1B7600B3420ED26D00A4
:1028A00007D30130002671416646354301D1400807
:1028B00040001B05C918E4072144F0BD0BDA0133C1
:1028C00006D1013004D101314F0D01D04908F2E7A2
:1028D000E1070020F0BD013631050020EBE70000E4
:1028E000FF030000F0B51C0D671E3F05DB1BE70A68
:1028F0006405640D02D0661CF60A04D00022012390
:102900001B05803C2403D0252D060026F6432E66A9
:102910001E096E66CE0FF619B44649004F0D02D05F
:102920007E1CF60A03D000200021403F3F033E1BDF
:10293000B600B444013F7F05C91B49082E6F01361C
:1029400076089C02950D25437543ED137543AD1331
:1029500001356D10F603761B0CB4CC02450D2C43EB
:10296000A2B2B3B25A43270C7B43350C6F43A4B2D7
:102970006C431B1902D3012424043F191C041D0CB1
:10298000A4187D4124196D41009A91B2ACB2614303
:10299000170C7C432B0C5F4392B25A43A41802D30A
:1029A00001221204BF182204230C52187B41019CFF
:1029B0006C431B19520ED9010A434401A01A81B27B
:1029C000B2B2514303145A43360C734387B2774370
:1029D000D617D21900277E4136049B191704160C0E
:1029E0007F185E417316ED18F301002680337541A0
:1029F000A90F06D16400690AE8055B0A184309D2E9
:102A00002FE00422944480337541A90AA8059B0A4B
:102A1000184326D3404149412404009A019B0D00EC
:102A20005543641B4343E41A95B286B27543170CB1
:102A30007E43030C5F4392B25A43B61802D301227D
:102A40001204BF183204330C52197B4152429C418C
:102A5000002C02D40022013051414008CA07104323
:102A6000490802B06246D7079210084BD218084BAB
:102A70009A4203D212058918C919F0BD0020002A14
:102A800001DC3900F0BD01331905F5E7FD03000055
:102A9000FE070000624618CA94465A46002A20DB08
:102AA00004E0624618CA944600291ADAC018614147
:102AB0005B463B415C46B4405246FA4022434446A2
:102AC0004D4662416B41904699462B46B3403D418D
:102AD000FC401C4352465B46A241AB4192469B469A
:102AE0007047C01AA1414B463B414C46B440424658
:102AF000FA40224354465D4662416B4192469B46F2
:102B00002B46B3403D41FC401C4342464B46A2414C
:102B1000AB41904699467047002200B500F00DF891
:102B2000CA179A4200D100BDD8430121C9074140CC
:102B300000BD000000220B150AD410B5944600F029
:102B400079F81414013400DA0021CB17144C204713
:102B50000020002170476244343A0CD40C2A07DA72
:102B600004009140904052422032D440214310BD95
:102B7000D843D94310BD203207D40C46944052426A
:102B800020321141D040204310BD0800C917203227
:102B900003D452422032104110BD1800190010BD5C
:102BA000572B001000210A00002104E000210A0038
:102BB000C11704E00022002306E0C0460022CB1724
:102BC00058405940C01A994130B5184CA21A0029F2
:102BD00003D1010010D00020203A4C1512D104D2AC
:102BE000013A001849414C0DFAD3114CA24204D2CB
:102BF00012058918DB07C91830BDD243520D0020D9
:102C00000021F5E703D4013A00184941FBD50B3206
:102C10004405C00A4D052843C90A640003D00024B6
:102C200060416141E1E7E0D34408F8E73204000085
:102C3000FE0700000A0DCC0F531E1B05C91A5205D2
:102C400003D3C943404200D30131520D03D0531C7A
:102C5000DB0A07D0121B00206400611C890789125F
:102C6000803A1203014BD21A70470000FF030000A4
:102C7000023225D40C2A1CDA1125AD1A0B002B4187
:102C8000083207350600EE40904091403143F0CCC9
:102C900063431A1500235A41554356435743BF0215
:102CA000F412760576196741ED177F19801BB9413B
:102CB00070470C220020C917490001310905DBE7E4
:102CC0000902030E194300025342203208D40C00BB
:102CD00019419440D840204300225041514170474F
:102CE0000800C917203B2032F1D500200021002226
:102CF0007047F0B5FFF706FA00F00EF800F030F874
:102D000006E0F0B5FFF7FEF900F006F800F046F82F
:102D1000FFF7FEF9F0BD000000B5FFF78BFF30A410
:102D2000FFF7A6FF00242C4D2C4ED20702D3F6430A
:102D30006D426641520004D2A246A346A846B1465F
:102D400003E0A046A146AA46B3466EA4A4460127C6
:102D50001F26FFF7A6FE0137013E212FF9D100BD46
:102D6000594684B28DB26C43061475430B145E430E
:102D700082B25A43AD18EA1700D7D2431204B618EC
:102D80002A042B0C12197341404649469D009B179B
:102D9000920F2A43904199413E2210E7494684B25E
:102DA0008DB26C43061475430B145E4382B25A43D2
:102DB000AD18EA1700D7D2431204B6182A042B0C18
:102DC00012197341504659469D009B17920F2A4392
:102DD000504159413E22F2E6BB4DF09DC556F636B4
:102DE0007D5100001A61140085880A00FB2119003A
:102DF000F0B5FFF787F9404D0C002C4001D0AC42F4
:102E000002D1090D090500201C002C4001D0AC4264
:102E100002D11B0D1B0500220026ED02002B04D55C
:102E200002266B40694000D476424F1904D599427E
:102E30000CDD0136694003E0BB4207DA013E6B401E
:102E4000070010003A000F0019003B0040B4002AB0
:102E50000FD1002B0AD05C006415013409D14C005D
:102E60006415013402D10139013B02E00020002148
:102E70002EE0FFF737FD3E22FFF74FFE82468B46DE
:102E80000020002180460122920791461DA4A446FD
:102E900001271F26FFF7FEFD0137013E212FF9D143
:102EA0004A4653460C3A01246407002752081B0087
:102EB00005D49341001979416408F7D104E05341E6
:102EC000001BB9416408F1D1CE07491040083043D6
:102ED00040BC002E0AD0094C094D01D5E443ED4316
:102EE000F60701D100196941001969413D22FFF738
:102EF00066FEFFF70DF9F0BD0000F07F8D305A88B7
:102F0000A8F64332694FBB610567AC1DB16E4096B0
:102F1000FCBAAD0F72DB0BABA66EF50739BD9FE5B2
:102F200076ABFE034B6297BA5BD5FF01D694DBDD2F
:102F3000AAFAFF005DEAEE5655FF7F006E77B7AA4A
:102F4000EAFF3F00BCBB5555FDFF1F00DEADAAAA3E
:102F5000FFFF0F006F5555F5FFFF0700ABAAAAFE54
:102F6000FFFF03005555D5FFFFFF0100ABAAFAFF95
:102F7000FFFF00005555FFFFFF7F0000ABEAFFFF9A
:102F8000FF3F000055FDFFFFFF1F0000ABFFFFFFED
:102F9000FF0F0000F5FFFFFFFF070000FFFFFFFF2F
:102FA000FF0300000000000000020000000000001D
:102FB0000001000000000000800000000000000090
:102FC00040000000000000002000000000000000A1
:102FD00010000000000000000800000000000000D9
:102FE00004000000000000000200000000000000DB
:102FF0000100000000000080000000000000004010
:103000000000000051434343C9188C46110C83B2A1
:103010004B4310B4040C614392B280B250436243FC
:103020001C041B0C001910BC59411304120CC018CD
:103030005141614470470000132310B512481C78B9
:10304000FEF7C4FE0100012C0AD003DD80220F48E8
:1030500000F048F80E48FEF7B1FE0E4B186010BDA8
:103060000A4C5422200000F03DF80B4B6365A36529
:10307000E36523666366A366E36623676367A36706
:10308000E3672362E361E5E7534600001005002093
:103090004C3300009CC801209D30001007B56046ED
:1030A00001880A0A0230DF2AFAD1C9B2820804D3A1
:1030B000028840880004104300E00068014A505034
:1030C000039007BD1005002001480421014B18475B
:1030D00060020020DD1D0010014B1B681847000036
:1030E00060020020014B5B6818470000600200206E
:1030F00010B5002800D110BD00F036F9FBE7C0463E
:1031000010B5094A0300146884B0002C08D00122CD
:1031100000910648524203A9A047012004B010BD07
:1031200000F06EF90020F9E768C80120F1300010C6
:1031300000BEFDE710B5FFF7FBFFC04670B5FEF718
:103140008BFE074D074EB54209D20024013E761B87
:10315000B60808CD984723000134B342F9D170BDB9
:103160003438001038380010030010B50800110082
:103170001B68984710BDC046F0B546464F46D64638
:10318000C0B5437D80460E001700002B46D0002AB4
:103190003FDD4B1E9946244B0125002400209A4612
:1031A0000DE04B461B5D0D3B5A425341325DDBB295
:1031B0000A2A0BD02B00013401359F421ADD002C66
:1031C000EFD14346325D1B7D0A2AF3D1002BF1D1AA
:1031D000A04204DA4346211A1B6830189847434638
:1031E00050461B6802219847013428002B00013506
:1031F0009F42E4DC874204DD4346391A1B683018DD
:103200009847F619013E33780D3B5A4253414246E6
:103210001375E0BCBA46B146A846F0BD036811007C
:1032200030009847F5E7C04634390010F0B5DE4667
:1032300057464E464546E0B585B017001C000600CF
:103240000D00FEF79DFB0023314A12184B41002B65
:1032500059DB304908008A4600F0C6FA01906B1C21
:1032600003D1300000F076FA0500002C26D12A4B5D
:1032700098462A4B1C68002C15D0002F21D1284FCE
:1032800002E02469002C0ED02368002BF9D03B68A3
:10329000002B01D0A342F4D120002A003100C04706
:1032A0002469002CF0D1019B002B28D1280005B007
:1032B000F0BCBB46B246A946A046F0BD194B9846A5
:1032C000D7E7174B994602ABDF1D0A239B4602E066
:1032D0002469002CE7D02368002BF9D04B461B68EB
:1032E000002B01D0A342F3D12A0031002000C047B7
:1032F0005B460122390020003B70C047E8E750469A
:1033000000F05AFAD2E70122074B5242A1E7C04629
:1033100040420F0088020020693100106006002042
:103320006406002079310010FFFFFF7F0A4A13680E
:10333000002B05D10CE01A001B691032002B07D0BE
:103340009842F8D1002902D10369136001617047E6
:103350000029FCD01060FAE76006002010B500F0EC
:1033600037F9012010BDC046F0B5CE46474680B5BE
:1033700083B06B460600DD1D2870FEF701FB0023BD
:103380001A4A12184B41002B2BDB194908008846BA
:1033900000F02AFA174B81461C68002C14D0164FF7
:1033A00002E02469002C0FD02368002BF9D03B6881
:1033B000002B01D0A342F4D1200001222900FFF705
:1033C000DBFE2469002CEFD14B46002B05D13000E9
:1033D00003B0C0BCB946B046F0BD404600F0ECF9C1
:1033E000F5E70122054B5242CFE7C04640420F00AD
:1033F000880200206006002064060020FFFFFF7F97
:1034000070B5040000F0A6F90123010005000122B7
:103410002000FFF70BFF084B1C68002C06D06368E8
:10342000002B05D098472469002CF8D1280070BDE6
:103430002469002CF3D1F9E760060020F0B50D1ED9
:1034400015DD0E4B0D271A680D4B4519D31859423F
:103450004B410C495B005E5E20210478A64207D0F8
:1034600093691942FCD101301460A842F5D1F0BD36
:1034700093691942FCD11760F2E7C046A8C8012041
:103480000080FCBFA4C8012030B504000D1E24DD5F
:10349000002010211A4B013C1A689369194217D178
:1034A000013093691942FCD1136823548542F4D149
:1034B000144B1B68002B0AD050239363516B183BAD
:1034C0000B4011498C4662441360002814D030BD73
:1034D0000C4B1B68002BEFD1F7E70A4B1B68002B46
:1034E0000AD05022064B1B689A63596B183A0A405F
:1034F00005498C4663441A6003204042E7E7C04612
:10350000A8C801202C06002034100000064B10B57E
:103510001B68002B06D00021044A12689163044AFC
:103520001068984710BDC0462C060020A8C801208E
:10353000300600200822034B19688B691A42FCD11F
:103540007047C046A8C8012070B51B4E1B4B32689F
:103550000500D3185842434114331C00002D04D0F9
:10356000174B1A68002A11D070BD154E3368002B16
:10357000FAD0002120009563FDF7A4FC200011493A
:10358000FDF7DCFC104B35601D60EDE71D600E4B58
:10359000200019600B49FDF7A7FC01212000FDF771
:1035A00091FC502233689A63596B183A0A400749D4
:1035B0008C4663441A60D7E7A8C801200080FCBF8E
:1035C0002C0600200D3500103006002034100000BD
:1035D0000D4B10B51B780D4B0D4C1B780D4B02217C
:1035E0001B780D4B00202360FDF7CCFB022101204E
:1035F000FDF7C8FBE12120684902FEF705FA012129
:103600000648FFF793FE10BD983900109C39001052
:10361000A8C80120A039001000400340700200201B
:10362000F0B557468246454B454653445A425341AE
:103630008022DE464E46920294465B42E0B51B0C69
:103640003F4A1B04634413603E4A0D003E4985B067
:10365000136018000A689043FBD181460620FEF7EC
:103660004FFB53465A6802231A400192524680216A
:1036700004320292354AEF0D52446E0213600392F7
:103680003B0032000224490006E0904206D3023497
:1036900092197B418C4201D0002BF6D02B00802662
:1036A0002702A0463F1B05001C00760003E04346AE
:1036B000FF1A012E3DD039002800B346013EFEF727
:1036C000FBFC8442F3D2444659463302A84699464D
:1036D000614353464A461C611B6880255340FF22C4
:1036E000120213408022920194466D0155442B60D2
:1036F000029B019A63441A60524650680222039C5E
:10370000072622605446246810406640CF24344087
:103710002C60032418600E485044046040461A6030
:10372000FEF7CAFC05B0F0BCBB46B246A946A046AF
:10373000F0BD44461900A846CBE7C0460040FCBF98
:1037400000E0004000F0004008C0004004300000ED
:103750002420000010B583070AD00300032102E0F3
:1037600001330B4205D01A78002AF9D1181A10BD7E
:10377000030019680C4A0D4C8A188A4322420FD163
:103780005968094A04338A188A43224208D1596881
:10379000054A04338A188A432242F1D000E00133FB
:1037A0001A78002AFBD1E1E7FFFEFEFE80808080D0
:1037B000F8B5C0460000000001B40248844601BCD0
:1037C000604700BF5D01002001B40248844601BC8F
:1037D000604700BFD101002001B40248844601BC0B
:1037E000604700BF8501002001B40248844601BC47
:1037F000604700BFC1000020811E0010AD1E0010F8
:10380000A9200010C9300010A1220010393000108A
:10381000D11F0010C91E0010E91E0010FD1E00106F
:10382000C5110010051F001055150010491E00108D
:08383000A10E0010B10200100E
:103838005354415254000000496E697420646973FE
:10384800706C61797300000044726177696E67205B
:103858006579657300000000526561647921204232
:103868006C696E6B696E672E2E2E00000A2A2A2A52
:103878002050414E4943202A2A2A0A000A00000003
:10388800486172647761726520616C61726D202590
:103898006420616C726561647920636C61696D652F
:1038A800640000004861726420617373657274007B
:1038B80052656C6561736500626F6F74325F773251
:1038C8003571303830000000322E322E30000000C2
:1038D8007069636F000000004D617220323220323F
:1038E8003032360005005250DE65F468743B001033
:1038F800060052505422A29DE03800100600525093
:10390800BBFF3CB6D838001006005250ABB360532A
:10391800D038001006005250E182887FC03800106D
:1039280006005250D3F07542B83800100D0A000056
:103938005541525420737464696E000055415254C5
:10394800207374646F757400554152542073746405
:10395800696E202F207374646F75740006005250CE
:1039680053B4F4A15039001008005250120000005E
:083978000800525092100000FB
:10398000EC380010F838001004390010103900101D
:103990001C390010283900106439001070390010EB
:0439A0007839001062
:1039A400F0B5C646150000B504001E000268EFF32A
:1039B400108172B61368002BFCD0BFF35F8F042311
:1039C400E356002B2DDB2268BFF35F8F00201060CD
:1039D40081F31088D0221206127852B290469A428D
:1039E40003D1002080BCB846F0BD00270BE023685B
:1039F400BFF35F8F1F6081F310882800310000F04F
:103A04005BF80028EDD12268EFF3108172B61368D9
:103A1400002BFCD0BFF35F8F23797F2BE7D943467C
:103A240002E0D0231B061B6823712368BFF35F8F5A
:103A340000221A6081F310880120D3E70268EFF3B3
:103A4400108172B61368002BFCD0BFF35F8FFF2385
:103A540003710368BFF35F8F00221A6081F310883B
:103A640040BF704730B50400101E0AD00A000D187C
:103A74000221E3681942FCD013780132A360954215
:103A8400F7D1E3685B0704D50421A368E36819420E
:103A9400FBD11021E3681942FCD1E3685B0704D52C
:103AA4000421A368E3681942FBD10123236230BDDA
:103AB4007047C0460000000001B40248844601BCBF
:103AC400604700BF611800101000000000000000F3
:103AD40000000100000000000000000000000200DF
:103AE40000000000000000000000030000000000CF
:103AF400000000000000FF000000000001B548685D
:103B040001318E460047704609380149884701BD96
:103B1400011100100000000000000000000000007F
:103B240000000000000000009002002000000000DF
:103B3400503300004C330000543300005233000073
:103B44004D5300004D430000533400004334000043
:103B54003D3400103535001089340010493500100B
:103B64000000000000010000000000000000000050
:04000005100001E9FD
:00000001FF
